{
  "_format": "hh-sol-artifact-1",
  "contractName": "SocialLending",
  "sourceName": "contracts/SocialLending.sol",
  "abi": [
    {
      "inputs": [],
      "stateMutability": "nonpayable",
      "type": "constructor"
    },
    {
      "anonymous": false,
      "inputs": [
        {
          "indexed": false,
          "internalType": "uint256",
          "name": "loanID",
          "type": "uint256"
        },
        {
          "indexed": false,
          "internalType": "address",
          "name": "lenderAddress",
          "type": "address"
        }
      ],
      "name": "LenderDeposit",
      "type": "event"
    },
    {
      "anonymous": false,
      "inputs": [
        {
          "indexed": false,
          "internalType": "uint256",
          "name": "loanID",
          "type": "uint256"
        }
      ],
      "name": "LoanFunded",
      "type": "event"
    },
    {
      "anonymous": false,
      "inputs": [
        {
          "indexed": false,
          "internalType": "uint256",
          "name": "loanID",
          "type": "uint256"
        }
      ],
      "name": "LoanNeedsRepayment",
      "type": "event"
    },
    {
      "anonymous": false,
      "inputs": [
        {
          "indexed": false,
          "internalType": "uint256",
          "name": "loanID",
          "type": "uint256"
        }
      ],
      "name": "LoanRepaid",
      "type": "event"
    },
    {
      "anonymous": false,
      "inputs": [
        {
          "indexed": false,
          "internalType": "uint256",
          "name": "loanID",
          "type": "uint256"
        }
      ],
      "name": "LoanRequested",
      "type": "event"
    },
    {
      "inputs": [
        {
          "internalType": "address",
          "name": "",
          "type": "address"
        }
      ],
      "name": "borrowers",
      "outputs": [
        {
          "internalType": "uint256",
          "name": "",
          "type": "uint256"
        }
      ],
      "stateMutability": "view",
      "type": "function"
    },
    {
      "inputs": [
        {
          "internalType": "uint128",
          "name": "_loanAmount",
          "type": "uint128"
        }
      ],
      "name": "createLoan",
      "outputs": [
        {
          "internalType": "uint256",
          "name": "loanID",
          "type": "uint256"
        }
      ],
      "stateMutability": "payable",
      "type": "function"
    },
    {
      "inputs": [],
      "name": "createUniqueLoanLink",
      "outputs": [],
      "stateMutability": "nonpayable",
      "type": "function"
    },
    {
      "inputs": [
        {
          "internalType": "uint256",
          "name": "_loanID",
          "type": "uint256"
        },
        {
          "internalType": "uint128",
          "name": "_depositAmount",
          "type": "uint128"
        }
      ],
      "name": "depositToLoan",
      "outputs": [],
      "stateMutability": "payable",
      "type": "function"
    },
    {
      "inputs": [
        {
          "internalType": "uint256",
          "name": "_loanID",
          "type": "uint256"
        }
      ],
      "name": "disburseLoan",
      "outputs": [],
      "stateMutability": "nonpayable",
      "type": "function"
    },
    {
      "inputs": [
        {
          "internalType": "uint256",
          "name": "",
          "type": "uint256"
        },
        {
          "internalType": "uint256",
          "name": "",
          "type": "uint256"
        }
      ],
      "name": "lenders",
      "outputs": [
        {
          "internalType": "address",
          "name": "lenderAddress",
          "type": "address"
        },
        {
          "internalType": "uint128",
          "name": "depositAmount",
          "type": "uint128"
        },
        {
          "internalType": "bool",
          "name": "isRepaid",
          "type": "bool"
        },
        {
          "internalType": "uint128",
          "name": "amountToRepay",
          "type": "uint128"
        }
      ],
      "stateMutability": "view",
      "type": "function"
    },
    {
      "inputs": [
        {
          "internalType": "uint256",
          "name": "",
          "type": "uint256"
        }
      ],
      "name": "loanDetails",
      "outputs": [
        {
          "internalType": "uint256",
          "name": "loanID",
          "type": "uint256"
        },
        {
          "internalType": "uint256",
          "name": "tenor",
          "type": "uint256"
        },
        {
          "internalType": "uint128",
          "name": "loanAmount",
          "type": "uint128"
        },
        {
          "internalType": "uint128",
          "name": "amountDeposited",
          "type": "uint128"
        },
        {
          "internalType": "uint128",
          "name": "amountDisbursed",
          "type": "uint128"
        },
        {
          "internalType": "uint128",
          "name": "amountRepaid",
          "type": "uint128"
        },
        {
          "internalType": "uint128",
          "name": "interestRate",
          "type": "uint128"
        },
        {
          "internalType": "address",
          "name": "borrowerAddress",
          "type": "address"
        },
        {
          "internalType": "uint128",
          "name": "loanAmountWithInterest",
          "type": "uint128"
        },
        {
          "internalType": "enum SocialLending.LoanStatus",
          "name": "loanStatus",
          "type": "uint8"
        }
      ],
      "stateMutability": "view",
      "type": "function"
    },
    {
      "inputs": [],
      "name": "loanIDCounter",
      "outputs": [
        {
          "internalType": "uint256",
          "name": "_value",
          "type": "uint256"
        }
      ],
      "stateMutability": "view",
      "type": "function"
    },
    {
      "inputs": [],
      "name": "owner",
      "outputs": [
        {
          "internalType": "address",
          "name": "",
          "type": "address"
        }
      ],
      "stateMutability": "view",
      "type": "function"
    },
    {
      "inputs": [
        {
          "internalType": "uint256",
          "name": "_loanID",
          "type": "uint256"
        }
      ],
      "name": "payoutDepositsWithInterest",
      "outputs": [],
      "stateMutability": "payable",
      "type": "function"
    },
    {
      "inputs": [
        {
          "internalType": "uint256",
          "name": "_loanID",
          "type": "uint256"
        },
        {
          "internalType": "uint128",
          "name": "_repaymentAmount",
          "type": "uint128"
        }
      ],
      "name": "repayLoan",
      "outputs": [],
      "stateMutability": "payable",
      "type": "function"
    },
    {
      "inputs": [],
      "name": "requestLoan",
      "outputs": [],
      "stateMutability": "nonpayable",
      "type": "function"
    }
  ],
  "bytecode": "0x60806040526102bc600160006101000a8154816fffffffffffffffffffffffffffffffff02191690836fffffffffffffffffffffffffffffffff160217905550605a600160106101000a81548160ff021916908360ff16021790555034801561006757600080fd5b50336000806101000a81548173ffffffffffffffffffffffffffffffffffffffff021916908373ffffffffffffffffffffffffffffffffffffffff160217905550613db4806100b76000396000f3fe6080604052600436106100a75760003560e01c80637aa489bb116100645780637aa489bb1461016d5780638da5cb5b146101b3578063b73e4da0146101de578063bf5d50c414610207578063ea1e55c814610244578063f86428bd14610260576100a7565b80630126fb10146100ac5780630254b24e146100c8578063257965f5146100e45780632fa6c0f6146100fb578063513484541461012b5780636fb4eb3d14610156575b600080fd5b6100c660048036038101906100c19190613193565b6102a0565b005b6100e260048036038101906100dd9190613193565b610e60565b005b3480156100f057600080fd5b506100f9611c14565b005b61011560048036038101906101109190613141565b611c16565b6040516101229190613967565b60405180910390f35b34801561013757600080fd5b5061014061210d565b60405161014d9190613967565b60405180910390f35b34801561016257600080fd5b5061016b612119565b005b34801561017957600080fd5b50610194600480360381019061018f919061316a565b61211b565b6040516101aa9a999897969594939291906139ab565b60405180910390f35b3480156101bf57600080fd5b506101c8612244565b6040516101d59190613767565b60405180910390f35b3480156101ea57600080fd5b506102056004803603810190610200919061316a565b612268565b005b34801561021357600080fd5b5061022e60048036038101906102299190613118565b612ca7565b60405161023b9190613967565b60405180910390f35b61025e6004803603810190610259919061316a565b612cbf565b005b34801561026c57600080fd5b50610287600480360381019061028291906131cf565b612fb8565b6040516102979493929190613782565b60405180910390f35b806fffffffffffffffffffffffffffffffff1634146102f4576040517f08c379a00000000000000000000000000000000000000000000000000000000081526004016102eb90613867565b60405180910390fd5b6000816fffffffffffffffffffffffffffffffff1611610349576040517f08c379a000000000000000000000000000000000000000000000000000000000815260040161034090613847565b60405180910390fd5b6000600360008481526020019081526020016000206040518061014001604052908160008201548152602001600182015481526020016002820160009054906101000a90046fffffffffffffffffffffffffffffffff166fffffffffffffffffffffffffffffffff166fffffffffffffffffffffffffffffffff1681526020016002820160109054906101000a90046fffffffffffffffffffffffffffffffff166fffffffffffffffffffffffffffffffff166fffffffffffffffffffffffffffffffff1681526020016003820160009054906101000a90046fffffffffffffffffffffffffffffffff166fffffffffffffffffffffffffffffffff166fffffffffffffffffffffffffffffffff1681526020016003820160109054906101000a90046fffffffffffffffffffffffffffffffff166fffffffffffffffffffffffffffffffff166fffffffffffffffffffffffffffffffff1681526020016004820160009054906101000a90046fffffffffffffffffffffffffffffffff166fffffffffffffffffffffffffffffffff166fffffffffffffffffffffffffffffffff1681526020016005820160009054906101000a900473ffffffffffffffffffffffffffffffffffffffff1673ffffffffffffffffffffffffffffffffffffffff1673ffffffffffffffffffffffffffffffffffffffff1681526020016006820160009054906101000a90046fffffffffffffffffffffffffffffffff166fffffffffffffffffffffffffffffffff166fffffffffffffffffffffffffffffffff1681526020016006820160109054906101000a900460ff1660058111156105db577f4e487b7100000000000000000000000000000000000000000000000000000000600052602160045260246000fd5b6005811115610613577f4e487b7100000000000000000000000000000000000000000000000000000000600052602160045260246000fd5b8152505090506000816000015111610660576040517f08c379a000000000000000000000000000000000000000000000000000000000815260040161065790613947565b60405180910390fd5b818160a0018181516106729190613a63565b9150906fffffffffffffffffffffffffffffffff1690816fffffffffffffffffffffffffffffffff16815250508060a001516fffffffffffffffffffffffffffffffff168161010001516fffffffffffffffffffffffffffffffff161115610a4257604051806101400160405280826000015181526020018260200151815260200182604001516fffffffffffffffffffffffffffffffff16815260200182606001516fffffffffffffffffffffffffffffffff16815260200182608001516fffffffffffffffffffffffffffffffff1681526020018260a001516fffffffffffffffffffffffffffffffff1681526020018260c001516fffffffffffffffffffffffffffffffff1681526020018260e0015173ffffffffffffffffffffffffffffffffffffffff1681526020018261010001516fffffffffffffffffffffffffffffffff168152602001600360058111156107f7577f4e487b7100000000000000000000000000000000000000000000000000000000600052602160045260246000fd5b81525060036000858152602001908152602001600020600082015181600001556020820151816001015560408201518160020160006101000a8154816fffffffffffffffffffffffffffffffff02191690836fffffffffffffffffffffffffffffffff16021790555060608201518160020160106101000a8154816fffffffffffffffffffffffffffffffff02191690836fffffffffffffffffffffffffffffffff16021790555060808201518160030160006101000a8154816fffffffffffffffffffffffffffffffff02191690836fffffffffffffffffffffffffffffffff16021790555060a08201518160030160106101000a8154816fffffffffffffffffffffffffffffffff02191690836fffffffffffffffffffffffffffffffff16021790555060c08201518160040160006101000a8154816fffffffffffffffffffffffffffffffff02191690836fffffffffffffffffffffffffffffffff16021790555060e08201518160050160006101000a81548173ffffffffffffffffffffffffffffffffffffffff021916908373ffffffffffffffffffffffffffffffffffffffff1602179055506101008201518160060160006101000a8154816fffffffffffffffffffffffffffffffff02191690836fffffffffffffffffffffffffffffffff1602179055506101208201518160060160106101000a81548160ff02191690836005811115610a35577f4e487b7100000000000000000000000000000000000000000000000000000000600052602160045260246000fd5b0217905550905050610e5b565b8060a001516fffffffffffffffffffffffffffffffff168161010001516fffffffffffffffffffffffffffffffff1610610e1f57604051806101400160405280826000015181526020018260200151815260200182604001516fffffffffffffffffffffffffffffffff16815260200182606001516fffffffffffffffffffffffffffffffff16815260200182608001516fffffffffffffffffffffffffffffffff1681526020018260a001516fffffffffffffffffffffffffffffffff1681526020018260c001516fffffffffffffffffffffffffffffffff1681526020018260e0015173ffffffffffffffffffffffffffffffffffffffff1681526020018261010001516fffffffffffffffffffffffffffffffff16815260200160046005811115610b99577f4e487b7100000000000000000000000000000000000000000000000000000000600052602160045260246000fd5b81525060036000858152602001908152602001600020600082015181600001556020820151816001015560408201518160020160006101000a8154816fffffffffffffffffffffffffffffffff02191690836fffffffffffffffffffffffffffffffff16021790555060608201518160020160106101000a8154816fffffffffffffffffffffffffffffffff02191690836fffffffffffffffffffffffffffffffff16021790555060808201518160030160006101000a8154816fffffffffffffffffffffffffffffffff02191690836fffffffffffffffffffffffffffffffff16021790555060a08201518160030160106101000a8154816fffffffffffffffffffffffffffffffff02191690836fffffffffffffffffffffffffffffffff16021790555060c08201518160040160006101000a8154816fffffffffffffffffffffffffffffffff02191690836fffffffffffffffffffffffffffffffff16021790555060e08201518160050160006101000a81548173ffffffffffffffffffffffffffffffffffffffff021916908373ffffffffffffffffffffffffffffffffffffffff1602179055506101008201518160060160006101000a8154816fffffffffffffffffffffffffffffffff02191690836fffffffffffffffffffffffffffffffff1602179055506101208201518160060160106101000a81548160ff02191690836005811115610dd7577f4e487b7100000000000000000000000000000000000000000000000000000000600052602160045260246000fd5b02179055509050507f9a7851747cd7ffb3fe0a32caf3da48b31f27cebe131267051640f8b72fc471868160000151604051610e129190613967565b60405180910390a1610e5a565b6040517f08c379a0000000000000000000000000000000000000000000000000000000008152600401610e51906137e7565b60405180910390fd5b5b505050565b806fffffffffffffffffffffffffffffffff163414610eb4576040517f08c379a0000000000000000000000000000000000000000000000000000000008152600401610eab90613907565b60405180910390fd5b6000816fffffffffffffffffffffffffffffffff1611610f09576040517f08c379a0000000000000000000000000000000000000000000000000000000008152600401610f0090613827565b60405180910390fd5b6000600360008481526020019081526020016000206040518061014001604052908160008201548152602001600182015481526020016002820160009054906101000a90046fffffffffffffffffffffffffffffffff166fffffffffffffffffffffffffffffffff166fffffffffffffffffffffffffffffffff1681526020016002820160109054906101000a90046fffffffffffffffffffffffffffffffff166fffffffffffffffffffffffffffffffff166fffffffffffffffffffffffffffffffff1681526020016003820160009054906101000a90046fffffffffffffffffffffffffffffffff166fffffffffffffffffffffffffffffffff166fffffffffffffffffffffffffffffffff1681526020016003820160109054906101000a90046fffffffffffffffffffffffffffffffff166fffffffffffffffffffffffffffffffff166fffffffffffffffffffffffffffffffff1681526020016004820160009054906101000a90046fffffffffffffffffffffffffffffffff166fffffffffffffffffffffffffffffffff166fffffffffffffffffffffffffffffffff1681526020016005820160009054906101000a900473ffffffffffffffffffffffffffffffffffffffff1673ffffffffffffffffffffffffffffffffffffffff1673ffffffffffffffffffffffffffffffffffffffff1681526020016006820160009054906101000a90046fffffffffffffffffffffffffffffffff166fffffffffffffffffffffffffffffffff166fffffffffffffffffffffffffffffffff1681526020016006820160109054906101000a900460ff16600581111561119b577f4e487b7100000000000000000000000000000000000000000000000000000000600052602160045260246000fd5b60058111156111d3577f4e487b7100000000000000000000000000000000000000000000000000000000600052602160045260246000fd5b8152505090506000816000015111611220576040517f08c379a000000000000000000000000000000000000000000000000000000000815260040161121790613947565b60405180910390fd5b81816060018181516112329190613a63565b9150906fffffffffffffffffffffffffffffffff1690816fffffffffffffffffffffffffffffffff1681525050600460008260000151815260200190815260200160002060405180608001604052803373ffffffffffffffffffffffffffffffffffffffff168152602001846fffffffffffffffffffffffffffffffff168152602001600015158152602001846fffffffffffffffffffffffffffffffff16815250908060018154018082558091505060019003906000526020600020906003020160009091909190915060008201518160000160006101000a81548173ffffffffffffffffffffffffffffffffffffffff021916908373ffffffffffffffffffffffffffffffffffffffff16021790555060208201518160010160006101000a8154816fffffffffffffffffffffffffffffffff02191690836fffffffffffffffffffffffffffffffff16021790555060408201518160010160106101000a81548160ff02191690831515021790555060608201518160020160006101000a8154816fffffffffffffffffffffffffffffffff02191690836fffffffffffffffffffffffffffffffff160217905550505080606001516fffffffffffffffffffffffffffffffff1681604001516fffffffffffffffffffffffffffffffff16111561178a57604051806101400160405280826000015181526020018260200151815260200182604001516fffffffffffffffffffffffffffffffff16815260200182606001516fffffffffffffffffffffffffffffffff16815260200182608001516fffffffffffffffffffffffffffffffff1681526020018260a001516fffffffffffffffffffffffffffffffff1681526020018260c001516fffffffffffffffffffffffffffffffff1681526020018260e0015173ffffffffffffffffffffffffffffffffffffffff1681526020018261010001516fffffffffffffffffffffffffffffffff1681526020016001600581111561153b577f4e487b7100000000000000000000000000000000000000000000000000000000600052602160045260246000fd5b8152506003600083600001518152602001908152602001600020600082015181600001556020820151816001015560408201518160020160006101000a8154816fffffffffffffffffffffffffffffffff02191690836fffffffffffffffffffffffffffffffff16021790555060608201518160020160106101000a8154816fffffffffffffffffffffffffffffffff02191690836fffffffffffffffffffffffffffffffff16021790555060808201518160030160006101000a8154816fffffffffffffffffffffffffffffffff02191690836fffffffffffffffffffffffffffffffff16021790555060a08201518160030160106101000a8154816fffffffffffffffffffffffffffffffff02191690836fffffffffffffffffffffffffffffffff16021790555060c08201518160040160006101000a8154816fffffffffffffffffffffffffffffffff02191690836fffffffffffffffffffffffffffffffff16021790555060e08201518160050160006101000a81548173ffffffffffffffffffffffffffffffffffffffff021916908373ffffffffffffffffffffffffffffffffffffffff1602179055506101008201518160060160006101000a8154816fffffffffffffffffffffffffffffffff02191690836fffffffffffffffffffffffffffffffff1602179055506101208201518160060160106101000a81548160ff0219169083600581111561177d577f4e487b7100000000000000000000000000000000000000000000000000000000600052602160045260246000fd5b0217905550905050611bd2565b80604001516fffffffffffffffffffffffffffffffff1681606001516fffffffffffffffffffffffffffffffff1610611b96576040518061014001604052808260000151815260200162015180600160109054906101000a900460ff1660ff166117f49190613b7a565b62ffffff16426118049190613aa9565b815260200182604001516fffffffffffffffffffffffffffffffff16815260200182606001516fffffffffffffffffffffffffffffffff16815260200182608001516fffffffffffffffffffffffffffffffff1681526020018260a001516fffffffffffffffffffffffffffffffff1681526020018260c001516fffffffffffffffffffffffffffffffff1681526020018260e0015173ffffffffffffffffffffffffffffffffffffffff1681526020018261010001516fffffffffffffffffffffffffffffffff1681526020016002600581111561190c577f4e487b7100000000000000000000000000000000000000000000000000000000600052602160045260246000fd5b8152506003600083600001518152602001908152602001600020600082015181600001556020820151816001015560408201518160020160006101000a8154816fffffffffffffffffffffffffffffffff02191690836fffffffffffffffffffffffffffffffff16021790555060608201518160020160106101000a8154816fffffffffffffffffffffffffffffffff02191690836fffffffffffffffffffffffffffffffff16021790555060808201518160030160006101000a8154816fffffffffffffffffffffffffffffffff02191690836fffffffffffffffffffffffffffffffff16021790555060a08201518160030160106101000a8154816fffffffffffffffffffffffffffffffff02191690836fffffffffffffffffffffffffffffffff16021790555060c08201518160040160006101000a8154816fffffffffffffffffffffffffffffffff02191690836fffffffffffffffffffffffffffffffff16021790555060e08201518160050160006101000a81548173ffffffffffffffffffffffffffffffffffffffff021916908373ffffffffffffffffffffffffffffffffffffffff1602179055506101008201518160060160006101000a8154816fffffffffffffffffffffffffffffffff02191690836fffffffffffffffffffffffffffffffff1602179055506101208201518160060160106101000a81548160ff02191690836005811115611b4e577f4e487b7100000000000000000000000000000000000000000000000000000000600052602160045260246000fd5b02179055509050507f9e71d2fb732e68272b7e74ecfd14638673c1d77e19a5d390a3ffff054d57c44b8160000151604051611b899190613967565b60405180910390a1611bd1565b6040517f08c379a0000000000000000000000000000000000000000000000000000000008152600401611bc890613927565b60405180910390fd5b5b7f2b9861ebbeabab8ef193be0c040da5974e1f55400eec042a33563c742ef70ea0816000015133604051611c07929190613982565b60405180910390a1505050565b565b600080826fffffffffffffffffffffffffffffffff1611611c6c576040517f08c379a0000000000000000000000000000000000000000000000000000000008152600401611c63906138c7565b60405180910390fd5b6000600260003373ffffffffffffffffffffffffffffffffffffffff1673ffffffffffffffffffffffffffffffffffffffff16815260200190815260200160002054905060008114611cf3576040517f08c379a0000000000000000000000000000000000000000000000000000000008152600401611cea906137c7565b60405180910390fd5b611cfd600561306a565b6000611d096005613080565b9050600060405180610140016040528083815260200160008152602001866fffffffffffffffffffffffffffffffff16815260200160006fffffffffffffffffffffffffffffffff16815260200160006fffffffffffffffffffffffffffffffff16815260200160006fffffffffffffffffffffffffffffffff168152602001600160009054906101000a90046fffffffffffffffffffffffffffffffff166fffffffffffffffffffffffffffffffff1681526020013373ffffffffffffffffffffffffffffffffffffffff168152602001611de48761308e565b6fffffffffffffffffffffffffffffffff16815260200160006005811115611e35577f4e487b7100000000000000000000000000000000000000000000000000000000600052602160045260246000fd5b8152509050806003600083600001518152602001908152602001600020600082015181600001556020820151816001015560408201518160020160006101000a8154816fffffffffffffffffffffffffffffffff02191690836fffffffffffffffffffffffffffffffff16021790555060608201518160020160106101000a8154816fffffffffffffffffffffffffffffffff02191690836fffffffffffffffffffffffffffffffff16021790555060808201518160030160006101000a8154816fffffffffffffffffffffffffffffffff02191690836fffffffffffffffffffffffffffffffff16021790555060a08201518160030160106101000a8154816fffffffffffffffffffffffffffffffff02191690836fffffffffffffffffffffffffffffffff16021790555060c08201518160040160006101000a8154816fffffffffffffffffffffffffffffffff02191690836fffffffffffffffffffffffffffffffff16021790555060e08201518160050160006101000a81548173ffffffffffffffffffffffffffffffffffffffff021916908373ffffffffffffffffffffffffffffffffffffffff1602179055506101008201518160060160006101000a8154816fffffffffffffffffffffffffffffffff02191690836fffffffffffffffffffffffffffffffff1602179055506101208201518160060160106101000a81548160ff0219169083600581111561207a577f4e487b7100000000000000000000000000000000000000000000000000000000600052602160045260246000fd5b02179055509050508060000151600260003373ffffffffffffffffffffffffffffffffffffffff1673ffffffffffffffffffffffffffffffffffffffff168152602001908152602001600020819055507f3aaf3cfb4a0b578d6f38e521e750d0d70b9da5f05aa80dc67d0f251c954725af81600001516040516120fd9190613967565b60405180910390a1505050919050565b60058060000154905081565b565b60036020528060005260406000206000915090508060000154908060010154908060020160009054906101000a90046fffffffffffffffffffffffffffffffff16908060020160109054906101000a90046fffffffffffffffffffffffffffffffff16908060030160009054906101000a90046fffffffffffffffffffffffffffffffff16908060030160109054906101000a90046fffffffffffffffffffffffffffffffff16908060040160009054906101000a90046fffffffffffffffffffffffffffffffff16908060050160009054906101000a900473ffffffffffffffffffffffffffffffffffffffff16908060060160009054906101000a90046fffffffffffffffffffffffffffffffff16908060060160109054906101000a900460ff1690508a565b60008054906101000a900473ffffffffffffffffffffffffffffffffffffffff1681565b6000600360008381526020019081526020016000206040518061014001604052908160008201548152602001600182015481526020016002820160009054906101000a90046fffffffffffffffffffffffffffffffff166fffffffffffffffffffffffffffffffff166fffffffffffffffffffffffffffffffff1681526020016002820160109054906101000a90046fffffffffffffffffffffffffffffffff166fffffffffffffffffffffffffffffffff166fffffffffffffffffffffffffffffffff1681526020016003820160009054906101000a90046fffffffffffffffffffffffffffffffff166fffffffffffffffffffffffffffffffff166fffffffffffffffffffffffffffffffff1681526020016003820160109054906101000a90046fffffffffffffffffffffffffffffffff166fffffffffffffffffffffffffffffffff166fffffffffffffffffffffffffffffffff1681526020016004820160009054906101000a90046fffffffffffffffffffffffffffffffff166fffffffffffffffffffffffffffffffff166fffffffffffffffffffffffffffffffff1681526020016005820160009054906101000a900473ffffffffffffffffffffffffffffffffffffffff1673ffffffffffffffffffffffffffffffffffffffff1673ffffffffffffffffffffffffffffffffffffffff1681526020016006820160009054906101000a90046fffffffffffffffffffffffffffffffff166fffffffffffffffffffffffffffffffff166fffffffffffffffffffffffffffffffff1681526020016006820160109054906101000a900460ff1660058111156124fa577f4e487b7100000000000000000000000000000000000000000000000000000000600052602160045260246000fd5b6005811115612532577f4e487b7100000000000000000000000000000000000000000000000000000000600052602160045260246000fd5b815250509050600081604001516fffffffffffffffffffffffffffffffff1611612591576040517f08c379a000000000000000000000000000000000000000000000000000000000815260040161258890613947565b60405180910390fd5b3373ffffffffffffffffffffffffffffffffffffffff168160e0015173ffffffffffffffffffffffffffffffffffffffff1614612603576040517f08c379a00000000000000000000000000000000000000000000000000000000081526004016125fa906138e7565b60405180910390fd5b6003600581111561263d577f4e487b7100000000000000000000000000000000000000000000000000000000600052602160045260246000fd5b816101200151600581111561267b577f4e487b7100000000000000000000000000000000000000000000000000000000600052602160045260246000fd5b14156126bc576040517f08c379a00000000000000000000000000000000000000000000000000000000081526004016126b390613887565b60405180910390fd5b600081608001516fffffffffffffffffffffffffffffffff1614612715576040517f08c379a000000000000000000000000000000000000000000000000000000000815260040161270c90613887565b60405180910390fd5b6002600581111561274f577f4e487b7100000000000000000000000000000000000000000000000000000000600052602160045260246000fd5b816101200151600581111561278d577f4e487b7100000000000000000000000000000000000000000000000000000000600052602160045260246000fd5b146127cd576040517f08c379a00000000000000000000000000000000000000000000000000000000081526004016127c4906138a7565b60405180910390fd5b80604001516fffffffffffffffffffffffffffffffff1681606001516fffffffffffffffffffffffffffffffff16101561283c576040517f08c379a0000000000000000000000000000000000000000000000000000000008152600401612833906138a7565b60405180910390fd5b60003373ffffffffffffffffffffffffffffffffffffffff1682604001516fffffffffffffffffffffffffffffffff1660405161287890613752565b60006040518083038185875af1925050503d80600081146128b5576040519150601f19603f3d011682016040523d82523d6000602084013e6128ba565b606091505b50509050806128fe576040517f08c379a00000000000000000000000000000000000000000000000000000000081526004016128f590613807565b60405180910390fd5b604051806101400160405280836000015181526020018360200151815260200183604001516fffffffffffffffffffffffffffffffff16815260200183606001516fffffffffffffffffffffffffffffffff16815260200183604001516fffffffffffffffffffffffffffffffff1681526020018360a001516fffffffffffffffffffffffffffffffff1681526020018360c001516fffffffffffffffffffffffffffffffff1681526020018360e0015173ffffffffffffffffffffffffffffffffffffffff1681526020018361010001516fffffffffffffffffffffffffffffffff16815260200160036005811115612a21577f4e487b7100000000000000000000000000000000000000000000000000000000600052602160045260246000fd5b81525060036000858152602001908152602001600020600082015181600001556020820151816001015560408201518160020160006101000a8154816fffffffffffffffffffffffffffffffff02191690836fffffffffffffffffffffffffffffffff16021790555060608201518160020160106101000a8154816fffffffffffffffffffffffffffffffff02191690836fffffffffffffffffffffffffffffffff16021790555060808201518160030160006101000a8154816fffffffffffffffffffffffffffffffff02191690836fffffffffffffffffffffffffffffffff16021790555060a08201518160030160106101000a8154816fffffffffffffffffffffffffffffffff02191690836fffffffffffffffffffffffffffffffff16021790555060c08201518160040160006101000a8154816fffffffffffffffffffffffffffffffff02191690836fffffffffffffffffffffffffffffffff16021790555060e08201518160050160006101000a81548173ffffffffffffffffffffffffffffffffffffffff021916908373ffffffffffffffffffffffffffffffffffffffff1602179055506101008201518160060160006101000a8154816fffffffffffffffffffffffffffffffff02191690836fffffffffffffffffffffffffffffffff1602179055506101208201518160060160106101000a81548160ff02191690836005811115612c5f577f4e487b7100000000000000000000000000000000000000000000000000000000600052602160045260246000fd5b02179055509050507f69fc7e7edd4865b1a05c051b8bf5b0d588983f0969141c15a5dcea05d5324b1b8260000151604051612c9a9190613967565b60405180910390a1505050565b60026020528060005260406000206000915090505481565b60005b6004600083815260200190815260200160002080549050811015612fb4576000600460008481526020019081526020016000208281548110612d2d577f4e487b7100000000000000000000000000000000000000000000000000000000600052603260045260246000fd5b90600052602060002090600302016040518060800160405290816000820160009054906101000a900473ffffffffffffffffffffffffffffffffffffffff1673ffffffffffffffffffffffffffffffffffffffff1673ffffffffffffffffffffffffffffffffffffffff1681526020016001820160009054906101000a90046fffffffffffffffffffffffffffffffff166fffffffffffffffffffffffffffffffff166fffffffffffffffffffffffffffffffff1681526020016001820160109054906101000a900460ff161515151581526020016002820160009054906101000a90046fffffffffffffffffffffffffffffffff166fffffffffffffffffffffffffffffffff166fffffffffffffffffffffffffffffffff16815250509050600181604001901515908115158152505080600460008581526020019081526020016000208381548110612eaa577f4e487b7100000000000000000000000000000000000000000000000000000000600052603260045260246000fd5b906000526020600020906003020160008201518160000160006101000a81548173ffffffffffffffffffffffffffffffffffffffff021916908373ffffffffffffffffffffffffffffffffffffffff16021790555060208201518160010160006101000a8154816fffffffffffffffffffffffffffffffff02191690836fffffffffffffffffffffffffffffffff16021790555060408201518160010160106101000a81548160ff02191690831515021790555060608201518160020160006101000a8154816fffffffffffffffffffffffffffffffff02191690836fffffffffffffffffffffffffffffffff160217905550905050508080612fac90613c4f565b915050612cc2565b5050565b60046020528160005260406000208181548110612fd457600080fd5b9060005260206000209060030201600091509150508060000160009054906101000a900473ffffffffffffffffffffffffffffffffffffffff16908060010160009054906101000a90046fffffffffffffffffffffffffffffffff16908060010160109054906101000a900460ff16908060020160009054906101000a90046fffffffffffffffffffffffffffffffff16905084565b6001816000016000828254019250508190555050565b600081600001549050919050565b600081612710600160009054906101000a90046fffffffffffffffffffffffffffffffff16846130be9190613b30565b6130c89190613aff565b6130d29190613a63565b9050919050565b6000813590506130e881613d39565b92915050565b6000813590506130fd81613d50565b92915050565b60008135905061311281613d67565b92915050565b60006020828403121561312a57600080fd5b6000613138848285016130d9565b91505092915050565b60006020828403121561315357600080fd5b6000613161848285016130ee565b91505092915050565b60006020828403121561317c57600080fd5b600061318a84828501613103565b91505092915050565b600080604083850312156131a657600080fd5b60006131b485828601613103565b92505060206131c5858286016130ee565b9150509250929050565b600080604083850312156131e257600080fd5b60006131f085828601613103565b925050602061320185828601613103565b9150509250929050565b61321481613bb7565b82525050565b61322381613bc9565b82525050565b61323281613c3d565b82525050565b6000613245602183613a52565b91507f4c6f616e20616c72656164792065786973747320666f7220626f72726f77657260008301527f2e000000000000000000000000000000000000000000000000000000000000006020830152604082019050919050565b60006132ab603283613a52565b91507f536f6d657468696e672077656e742077726f6e672c20616d6f756e742072657060008301527f61696420697320756e65787065637465642e00000000000000000000000000006020830152604082019050919050565b6000613311601483613a52565b91507f4661696c656420746f2073656e642045746865720000000000000000000000006000830152602082019050919050565b6000613351602983613a52565b91507f4465706f73697420616d6f756e74206d7573742062652067726561746572207460008301527f68616e207a65726f2e00000000000000000000000000000000000000000000006020830152604082019050919050565b60006133b7602b83613a52565b91507f52657061796d656e7420616d6f756e74206d757374206265206772656174657260008301527f207468616e207a65726f2e0000000000000000000000000000000000000000006020830152604082019050919050565b600061341d603583613a52565b91507f416d6f756e742073656e7420646f6573206e6f7420657175616c206465636c6160008301527f7265642072657061796d656e7420616d6f756e742e00000000000000000000006020830152604082019050919050565b6000613483602483613a52565b91507f546865206c6f616e2068617320616c7265616479206265656e2064697362757260008301527f7365642e000000000000000000000000000000000000000000000000000000006020830152604082019050919050565b60006134e9602183613a52565b91507f546865206c6f616e20686173206e6f7420796574206265656e2066756e64656460008301527f2e000000000000000000000000000000000000000000000000000000000000006020830152604082019050919050565b600061354f600083613a47565b9150600082019050919050565b6000613569602683613a52565b91507f4c6f616e20616d6f756e74206d7573742062652067726561746572207468616e60008301527f207a65726f2e00000000000000000000000000000000000000000000000000006020830152604082019050919050565b60006135cf602c83613a52565b91507f4f6e6c792074686520626f72726f776572206d6179207265636569766520646960008301527f7362757273656d656e74732e00000000000000000000000000000000000000006020830152604082019050919050565b6000613635603383613a52565b91507f416d6f756e742073656e7420646f6573206e6f7420657175616c206465636c6160008301527f726564206465706f73697420616d6f756e742e000000000000000000000000006020830152604082019050919050565b600061369b603583613a52565b91507f536f6d657468696e672077656e742077726f6e672c20616d6f756e742064657060008301527f6f736974656420697320756e65787065637465642e00000000000000000000006020830152604082019050919050565b6000613701600f83613a52565b91507f4c6f616e206e6f7420666f756e642e00000000000000000000000000000000006000830152602082019050919050565b61373d81613be8565b82525050565b61374c81613c33565b82525050565b600061375d82613542565b9150819050919050565b600060208201905061377c600083018461320b565b92915050565b6000608082019050613797600083018761320b565b6137a46020830186613734565b6137b1604083018561321a565b6137be6060830184613734565b95945050505050565b600060208201905081810360008301526137e081613238565b9050919050565b600060208201905081810360008301526138008161329e565b9050919050565b6000602082019050818103600083015261382081613304565b9050919050565b6000602082019050818103600083015261384081613344565b9050919050565b60006020820190508181036000830152613860816133aa565b9050919050565b6000602082019050818103600083015261388081613410565b9050919050565b600060208201905081810360008301526138a081613476565b9050919050565b600060208201905081810360008301526138c0816134dc565b9050919050565b600060208201905081810360008301526138e08161355c565b9050919050565b60006020820190508181036000830152613900816135c2565b9050919050565b6000602082019050818103600083015261392081613628565b9050919050565b600060208201905081810360008301526139408161368e565b9050919050565b60006020820190508181036000830152613960816136f4565b9050919050565b600060208201905061397c6000830184613743565b92915050565b60006040820190506139976000830185613743565b6139a4602083018461320b565b9392505050565b6000610140820190506139c1600083018d613743565b6139ce602083018c613743565b6139db604083018b613734565b6139e8606083018a613734565b6139f56080830189613734565b613a0260a0830188613734565b613a0f60c0830187613734565b613a1c60e083018661320b565b613a2a610100830185613734565b613a38610120830184613229565b9b9a5050505050505050505050565b600081905092915050565b600082825260208201905092915050565b6000613a6e82613be8565b9150613a7983613be8565b9250826fffffffffffffffffffffffffffffffff03821115613a9e57613a9d613c98565b5b828201905092915050565b6000613ab482613c33565b9150613abf83613c33565b9250827fffffffffffffffffffffffffffffffffffffffffffffffffffffffffffffffff03821115613af457613af3613c98565b5b828201905092915050565b6000613b0a82613be8565b9150613b1583613be8565b925082613b2557613b24613cc7565b5b828204905092915050565b6000613b3b82613be8565b9150613b4683613be8565b9250816fffffffffffffffffffffffffffffffff0483118215151615613b6f57613b6e613c98565b5b828202905092915050565b6000613b8582613c24565b9150613b9083613c24565b92508162ffffff0483118215151615613bac57613bab613c98565b5b828202905092915050565b6000613bc282613c04565b9050919050565b60008115159050919050565b6000819050613be382613d25565b919050565b60006fffffffffffffffffffffffffffffffff82169050919050565b600073ffffffffffffffffffffffffffffffffffffffff82169050919050565b600062ffffff82169050919050565b6000819050919050565b6000613c4882613bd5565b9050919050565b6000613c5a82613c33565b91507fffffffffffffffffffffffffffffffffffffffffffffffffffffffffffffffff821415613c8d57613c8c613c98565b5b600182019050919050565b7f4e487b7100000000000000000000000000000000000000000000000000000000600052601160045260246000fd5b7f4e487b7100000000000000000000000000000000000000000000000000000000600052601260045260246000fd5b7f4e487b7100000000000000000000000000000000000000000000000000000000600052602160045260246000fd5b60068110613d3657613d35613cf6565b5b50565b613d4281613bb7565b8114613d4d57600080fd5b50565b613d5981613be8565b8114613d6457600080fd5b50565b613d7081613c33565b8114613d7b57600080fd5b5056fea264697066735822122019c9271361cfaabd8cafea852f220d6575a0f4f20b8a0e44b46e6a60b02e466664736f6c63430008000033",
  "linkReferences": {},
  "deployedLinkReferences": {}
}