{
  "_format": "hh-sol-artifact-1",
  "contractName": "SocialLending",
  "sourceName": "contracts/SocialLending.sol",
  "abi": [
    {
      "inputs": [],
      "stateMutability": "nonpayable",
      "type": "constructor"
    },
    {
      "anonymous": false,
      "inputs": [
        {
          "indexed": false,
          "internalType": "uint256",
          "name": "loanID",
          "type": "uint256"
        },
        {
          "indexed": false,
          "internalType": "address",
          "name": "lenderAddress",
          "type": "address"
        }
      ],
      "name": "LenderDeposit",
      "type": "event"
    },
    {
      "anonymous": false,
      "inputs": [
        {
          "components": [
            {
              "internalType": "address",
              "name": "lenderAddress",
              "type": "address"
            },
            {
              "internalType": "uint128",
              "name": "depositAmount",
              "type": "uint128"
            },
            {
              "internalType": "bool",
              "name": "isRepaid",
              "type": "bool"
            },
            {
              "internalType": "uint128",
              "name": "amountToRepay",
              "type": "uint128"
            }
          ],
          "indexed": false,
          "internalType": "struct SocialLending.Lender",
          "name": "lenderDetails",
          "type": "tuple"
        }
      ],
      "name": "LenderDetails",
      "type": "event"
    },
    {
      "anonymous": false,
      "inputs": [
        {
          "indexed": false,
          "internalType": "uint256",
          "name": "loanID",
          "type": "uint256"
        },
        {
          "indexed": false,
          "internalType": "uint256",
          "name": "tenor",
          "type": "uint256"
        },
        {
          "indexed": false,
          "internalType": "uint128",
          "name": "loanAmount",
          "type": "uint128"
        },
        {
          "indexed": false,
          "internalType": "uint128",
          "name": "amountDeposited",
          "type": "uint128"
        },
        {
          "indexed": false,
          "internalType": "uint128",
          "name": "amountRepaid",
          "type": "uint128"
        },
        {
          "indexed": false,
          "internalType": "uint128",
          "name": "interestRate",
          "type": "uint128"
        },
        {
          "indexed": false,
          "internalType": "address",
          "name": "borrowerAddress",
          "type": "address"
        },
        {
          "indexed": false,
          "internalType": "uint128",
          "name": "loanAmountWithInterest",
          "type": "uint128"
        },
        {
          "indexed": false,
          "internalType": "enum SocialLending.LoanStatus",
          "name": "loanStatus",
          "type": "uint8"
        }
      ],
      "name": "LoanDetails",
      "type": "event"
    },
    {
      "anonymous": false,
      "inputs": [
        {
          "indexed": false,
          "internalType": "uint256",
          "name": "loanID",
          "type": "uint256"
        }
      ],
      "name": "LoanNeedsRepayment",
      "type": "event"
    },
    {
      "anonymous": false,
      "inputs": [
        {
          "indexed": false,
          "internalType": "uint256",
          "name": "loanID",
          "type": "uint256"
        }
      ],
      "name": "LoanRepaid",
      "type": "event"
    },
    {
      "anonymous": false,
      "inputs": [
        {
          "indexed": false,
          "internalType": "uint256",
          "name": "loanID",
          "type": "uint256"
        }
      ],
      "name": "LoanRequested",
      "type": "event"
    },
    {
      "inputs": [
        {
          "internalType": "uint128",
          "name": "_loanAmount",
          "type": "uint128"
        }
      ],
      "name": "createLoan",
      "outputs": [
        {
          "internalType": "uint256",
          "name": "loanID",
          "type": "uint256"
        }
      ],
      "stateMutability": "nonpayable",
      "type": "function"
    },
    {
      "inputs": [
        {
          "internalType": "uint256",
          "name": "_loanID",
          "type": "uint256"
        },
        {
          "internalType": "uint128",
          "name": "_depositAmount",
          "type": "uint128"
        }
      ],
      "name": "depositToLoan",
      "outputs": [],
      "stateMutability": "payable",
      "type": "function"
    },
    {
      "inputs": [
        {
          "internalType": "address",
          "name": "_borrowerAddress",
          "type": "address"
        }
      ],
      "name": "getBorrowersLoanID",
      "outputs": [
        {
          "internalType": "uint256",
          "name": "",
          "type": "uint256"
        }
      ],
      "stateMutability": "view",
      "type": "function"
    },
    {
      "inputs": [
        {
          "internalType": "uint256",
          "name": "_loanID",
          "type": "uint256"
        }
      ],
      "name": "getLenderDetails",
      "outputs": [],
      "stateMutability": "nonpayable",
      "type": "function"
    },
    {
      "inputs": [
        {
          "internalType": "uint256",
          "name": "_loanID",
          "type": "uint256"
        }
      ],
      "name": "getLendersFromLoanID",
      "outputs": [
        {
          "components": [
            {
              "internalType": "address",
              "name": "lenderAddress",
              "type": "address"
            },
            {
              "internalType": "uint128",
              "name": "depositAmount",
              "type": "uint128"
            },
            {
              "internalType": "bool",
              "name": "isRepaid",
              "type": "bool"
            },
            {
              "internalType": "uint128",
              "name": "amountToRepay",
              "type": "uint128"
            }
          ],
          "internalType": "struct SocialLending.Lender[]",
          "name": "",
          "type": "tuple[]"
        }
      ],
      "stateMutability": "view",
      "type": "function"
    },
    {
      "inputs": [
        {
          "internalType": "uint256",
          "name": "_loanID",
          "type": "uint256"
        }
      ],
      "name": "getLoanDetailsFromLoanID",
      "outputs": [],
      "stateMutability": "nonpayable",
      "type": "function"
    },
    {
      "inputs": [
        {
          "internalType": "address",
          "name": "_borrowerAddress",
          "type": "address"
        }
      ],
      "name": "getPreviousLoanCount",
      "outputs": [
        {
          "internalType": "uint256",
          "name": "",
          "type": "uint256"
        }
      ],
      "stateMutability": "view",
      "type": "function"
    },
    {
      "inputs": [],
      "name": "loanIDCounter",
      "outputs": [
        {
          "internalType": "uint256",
          "name": "_value",
          "type": "uint256"
        }
      ],
      "stateMutability": "view",
      "type": "function"
    },
    {
      "inputs": [],
      "name": "owner",
      "outputs": [
        {
          "internalType": "address",
          "name": "",
          "type": "address"
        }
      ],
      "stateMutability": "view",
      "type": "function"
    },
    {
      "inputs": [
        {
          "internalType": "uint256",
          "name": "_loanID",
          "type": "uint256"
        }
      ],
      "name": "payoutDepositsWithInterest",
      "outputs": [],
      "stateMutability": "payable",
      "type": "function"
    },
    {
      "inputs": [
        {
          "internalType": "uint256",
          "name": "_loanID",
          "type": "uint256"
        },
        {
          "internalType": "uint128",
          "name": "_repaymentAmount",
          "type": "uint128"
        }
      ],
      "name": "repayLoan",
      "outputs": [],
      "stateMutability": "payable",
      "type": "function"
    }
  ],
  "bytecode": "0x60806040526102bc600160006101000a8154816fffffffffffffffffffffffffffffffff02191690836fffffffffffffffffffffffffffffffff160217905550605a600160106101000a81548160ff021916908360ff16021790555034801561006757600080fd5b50336000806101000a81548173ffffffffffffffffffffffffffffffffffffffff021916908373ffffffffffffffffffffffffffffffffffffffff160217905550613602806100b76000396000f3fe60806040526004361061009c5760003560e01c80633d267e82116100645780633d267e821461019057806351348454146101b95780635edc3319146101e45780638da5cb5b14610221578063e79506321461024c578063ea1e55c8146102755761009c565b80630126fb10146100a15780630254b24e146100bd578063106352a0146100d95780632fa6c0f61461011657806339a6bffc14610153575b600080fd5b6100bb60048036038101906100b69190612a5f565b610291565b005b6100d760048036038101906100d29190612a5f565b610e00565b005b3480156100e557600080fd5b5061010060048036038101906100fb91906129e4565b611882565b60405161010d919061318b565b60405180910390f35b34801561012257600080fd5b5061013d60048036038101906101389190612a0d565b6118cb565b60405161014a919061318b565b60405180910390f35b34801561015f57600080fd5b5061017a600480360381019061017591906129e4565b611d70565b604051610187919061318b565b60405180910390f35b34801561019c57600080fd5b506101b760048036038101906101b29190612a36565b611dbc565b005b3480156101c557600080fd5b506101ce611f85565b6040516101db919061318b565b60405180910390f35b3480156101f057600080fd5b5061020b60048036038101906102069190612a36565b611f91565b6040516102189190613009565b60405180910390f35b34801561022d57600080fd5b50610236612108565b6040516102439190612fee565b60405180910390f35b34801561025857600080fd5b50610273600480360381019061026e9190612a36565b61212c565b005b61028f600480360381019061028a9190612a36565b61212f565b005b806fffffffffffffffffffffffffffffffff1634146102e5576040517f08c379a00000000000000000000000000000000000000000000000000000000081526004016102dc906130eb565b60405180910390fd5b6000816fffffffffffffffffffffffffffffffff161161033a576040517f08c379a0000000000000000000000000000000000000000000000000000000008152600401610331906130cb565b60405180910390fd5b6000600360008481526020019081526020016000206040518061012001604052908160008201548152602001600182015481526020016002820160009054906101000a90046fffffffffffffffffffffffffffffffff166fffffffffffffffffffffffffffffffff166fffffffffffffffffffffffffffffffff1681526020016002820160109054906101000a90046fffffffffffffffffffffffffffffffff166fffffffffffffffffffffffffffffffff166fffffffffffffffffffffffffffffffff1681526020016003820160009054906101000a90046fffffffffffffffffffffffffffffffff166fffffffffffffffffffffffffffffffff166fffffffffffffffffffffffffffffffff1681526020016003820160109054906101000a90046fffffffffffffffffffffffffffffffff166fffffffffffffffffffffffffffffffff166fffffffffffffffffffffffffffffffff1681526020016004820160009054906101000a900473ffffffffffffffffffffffffffffffffffffffff1673ffffffffffffffffffffffffffffffffffffffff1673ffffffffffffffffffffffffffffffffffffffff1681526020016005820160009054906101000a90046fffffffffffffffffffffffffffffffff166fffffffffffffffffffffffffffffffff166fffffffffffffffffffffffffffffffff1681526020016005820160109054906101000a900460ff166004811115610582577f4e487b7100000000000000000000000000000000000000000000000000000000600052602160045260246000fd5b60048111156105ba577f4e487b7100000000000000000000000000000000000000000000000000000000600052602160045260246000fd5b8152505090506000816000015111610607576040517f08c379a00000000000000000000000000000000000000000000000000000000081526004016105fe9061316b565b60405180910390fd5b818160800181815161061991906132b1565b9150906fffffffffffffffffffffffffffffffff1690816fffffffffffffffffffffffffffffffff168152505080608001516fffffffffffffffffffffffffffffffff168160e001516fffffffffffffffffffffffffffffffff16111561098b57604051806101200160405280826000015181526020018260200151815260200182604001516fffffffffffffffffffffffffffffffff16815260200182606001516fffffffffffffffffffffffffffffffff16815260200182608001516fffffffffffffffffffffffffffffffff1681526020018260a001516fffffffffffffffffffffffffffffffff1681526020018260c0015173ffffffffffffffffffffffffffffffffffffffff1681526020018260e001516fffffffffffffffffffffffffffffffff16815260200160026004811115610780577f4e487b7100000000000000000000000000000000000000000000000000000000600052602160045260246000fd5b81525060036000858152602001908152602001600020600082015181600001556020820151816001015560408201518160020160006101000a8154816fffffffffffffffffffffffffffffffff02191690836fffffffffffffffffffffffffffffffff16021790555060608201518160020160106101000a8154816fffffffffffffffffffffffffffffffff02191690836fffffffffffffffffffffffffffffffff16021790555060808201518160030160006101000a8154816fffffffffffffffffffffffffffffffff02191690836fffffffffffffffffffffffffffffffff16021790555060a08201518160030160106101000a8154816fffffffffffffffffffffffffffffffff02191690836fffffffffffffffffffffffffffffffff16021790555060c08201518160040160006101000a81548173ffffffffffffffffffffffffffffffffffffffff021916908373ffffffffffffffffffffffffffffffffffffffff16021790555060e08201518160050160006101000a8154816fffffffffffffffffffffffffffffffff02191690836fffffffffffffffffffffffffffffffff1602179055506101008201518160050160106101000a81548160ff0219169083600481111561097e577f4e487b7100000000000000000000000000000000000000000000000000000000600052602160045260246000fd5b0217905550905050610dfb565b80608001516fffffffffffffffffffffffffffffffff168160e001516fffffffffffffffffffffffffffffffff1610610dbf57604051806101200160405280826000015181526020018260200151815260200182604001516fffffffffffffffffffffffffffffffff16815260200182606001516fffffffffffffffffffffffffffffffff16815260200182608001516fffffffffffffffffffffffffffffffff1681526020018260a001516fffffffffffffffffffffffffffffffff1681526020018260c0015173ffffffffffffffffffffffffffffffffffffffff1681526020018260e001516fffffffffffffffffffffffffffffffff16815260200160036004811115610ac4577f4e487b7100000000000000000000000000000000000000000000000000000000600052602160045260246000fd5b81525060036000858152602001908152602001600020600082015181600001556020820151816001015560408201518160020160006101000a8154816fffffffffffffffffffffffffffffffff02191690836fffffffffffffffffffffffffffffffff16021790555060608201518160020160106101000a8154816fffffffffffffffffffffffffffffffff02191690836fffffffffffffffffffffffffffffffff16021790555060808201518160030160006101000a8154816fffffffffffffffffffffffffffffffff02191690836fffffffffffffffffffffffffffffffff16021790555060a08201518160030160106101000a8154816fffffffffffffffffffffffffffffffff02191690836fffffffffffffffffffffffffffffffff16021790555060c08201518160040160006101000a81548173ffffffffffffffffffffffffffffffffffffffff021916908373ffffffffffffffffffffffffffffffffffffffff16021790555060e08201518160050160006101000a8154816fffffffffffffffffffffffffffffffff02191690836fffffffffffffffffffffffffffffffff1602179055506101008201518160050160106101000a81548160ff02191690836004811115610cc2577f4e487b7100000000000000000000000000000000000000000000000000000000600052602160045260246000fd5b0217905550905050600560008260c0015173ffffffffffffffffffffffffffffffffffffffff1673ffffffffffffffffffffffffffffffffffffffff16815260200190815260200160002081600001519080600181540180825580915050600190039060005260206000200160009091909190915055600260008260c0015173ffffffffffffffffffffffffffffffffffffffff1673ffffffffffffffffffffffffffffffffffffffff168152602001908152602001600020600090557f9a7851747cd7ffb3fe0a32caf3da48b31f27cebe131267051640f8b72fc471868160000151604051610db2919061318b565b60405180910390a1610dfa565b6040517f08c379a0000000000000000000000000000000000000000000000000000000008152600401610df19061306b565b60405180910390fd5b5b505050565b806fffffffffffffffffffffffffffffffff163414610e54576040517f08c379a0000000000000000000000000000000000000000000000000000000008152600401610e4b9061312b565b60405180910390fd5b6000816fffffffffffffffffffffffffffffffff1611610ea9576040517f08c379a0000000000000000000000000000000000000000000000000000000008152600401610ea0906130ab565b60405180910390fd5b6000600360008481526020019081526020016000206040518061012001604052908160008201548152602001600182015481526020016002820160009054906101000a90046fffffffffffffffffffffffffffffffff166fffffffffffffffffffffffffffffffff166fffffffffffffffffffffffffffffffff1681526020016002820160109054906101000a90046fffffffffffffffffffffffffffffffff166fffffffffffffffffffffffffffffffff166fffffffffffffffffffffffffffffffff1681526020016003820160009054906101000a90046fffffffffffffffffffffffffffffffff166fffffffffffffffffffffffffffffffff166fffffffffffffffffffffffffffffffff1681526020016003820160109054906101000a90046fffffffffffffffffffffffffffffffff166fffffffffffffffffffffffffffffffff166fffffffffffffffffffffffffffffffff1681526020016004820160009054906101000a900473ffffffffffffffffffffffffffffffffffffffff1673ffffffffffffffffffffffffffffffffffffffff1673ffffffffffffffffffffffffffffffffffffffff1681526020016005820160009054906101000a90046fffffffffffffffffffffffffffffffff166fffffffffffffffffffffffffffffffff166fffffffffffffffffffffffffffffffff1681526020016005820160109054906101000a900460ff1660048111156110f1577f4e487b7100000000000000000000000000000000000000000000000000000000600052602160045260246000fd5b6004811115611129577f4e487b7100000000000000000000000000000000000000000000000000000000600052602160045260246000fd5b8152505090506000816000015111611176576040517f08c379a000000000000000000000000000000000000000000000000000000000815260040161116d9061316b565b60405180910390fd5b600060048111156111b0577f4e487b7100000000000000000000000000000000000000000000000000000000600052602160045260246000fd5b81610100015160048111156111ee577f4e487b7100000000000000000000000000000000000000000000000000000000600052602160045260246000fd5b148061126f57506001600481111561122f577f4e487b7100000000000000000000000000000000000000000000000000000000600052602160045260246000fd5b816101000151600481111561126d577f4e487b7100000000000000000000000000000000000000000000000000000000600052602160045260246000fd5b145b6112ae576040517f08c379a00000000000000000000000000000000000000000000000000000000081526004016112a59061302b565b60405180910390fd5b81816060018181516112c091906132b1565b9150906fffffffffffffffffffffffffffffffff1690816fffffffffffffffffffffffffffffffff1681525050600460008260000151815260200190815260200160002060405180608001604052803373ffffffffffffffffffffffffffffffffffffffff168152602001846fffffffffffffffffffffffffffffffff168152602001600015158152602001611355856124f5565b6fffffffffffffffffffffffffffffffff16815250908060018154018082558091505060019003906000526020600020906003020160009091909190915060008201518160000160006101000a81548173ffffffffffffffffffffffffffffffffffffffff021916908373ffffffffffffffffffffffffffffffffffffffff16021790555060208201518160010160006101000a8154816fffffffffffffffffffffffffffffffff02191690836fffffffffffffffffffffffffffffffff16021790555060408201518160010160106101000a81548160ff02191690831515021790555060608201518160020160006101000a8154816fffffffffffffffffffffffffffffffff02191690836fffffffffffffffffffffffffffffffff160217905550505080606001516fffffffffffffffffffffffffffffffff1681604001516fffffffffffffffffffffffffffffffff1611156117c357604051806101200160405280826000015181526020018260200151815260200182604001516fffffffffffffffffffffffffffffffff16815260200182606001516fffffffffffffffffffffffffffffffff16815260200182608001516fffffffffffffffffffffffffffffffff1681526020018260a001516fffffffffffffffffffffffffffffffff1681526020018260c0015173ffffffffffffffffffffffffffffffffffffffff1681526020018260e001516fffffffffffffffffffffffffffffffff168152602001600160048111156115b4577f4e487b7100000000000000000000000000000000000000000000000000000000600052602160045260246000fd5b8152506003600083600001518152602001908152602001600020600082015181600001556020820151816001015560408201518160020160006101000a8154816fffffffffffffffffffffffffffffffff02191690836fffffffffffffffffffffffffffffffff16021790555060608201518160020160106101000a8154816fffffffffffffffffffffffffffffffff02191690836fffffffffffffffffffffffffffffffff16021790555060808201518160030160006101000a8154816fffffffffffffffffffffffffffffffff02191690836fffffffffffffffffffffffffffffffff16021790555060a08201518160030160106101000a8154816fffffffffffffffffffffffffffffffff02191690836fffffffffffffffffffffffffffffffff16021790555060c08201518160040160006101000a81548173ffffffffffffffffffffffffffffffffffffffff021916908373ffffffffffffffffffffffffffffffffffffffff16021790555060e08201518160050160006101000a8154816fffffffffffffffffffffffffffffffff02191690836fffffffffffffffffffffffffffffffff1602179055506101008201518160050160106101000a81548160ff021916908360048111156117b6577f4e487b7100000000000000000000000000000000000000000000000000000000600052602160045260246000fd5b0217905550905050611840565b80604001516fffffffffffffffffffffffffffffffff1681606001516fffffffffffffffffffffffffffffffff1610611804576117ff81612540565b61183f565b6040517f08c379a00000000000000000000000000000000000000000000000000000000081526004016118369061314b565b60405180910390fd5b5b7f2b9861ebbeabab8ef193be0c040da5974e1f55400eec042a33563c742ef70ea08160000151336040516118759291906131a6565b60405180910390a1505050565b6000600260008373ffffffffffffffffffffffffffffffffffffffff1673ffffffffffffffffffffffffffffffffffffffff168152602001908152602001600020549050919050565b600080826fffffffffffffffffffffffffffffffff1611611921576040517f08c379a00000000000000000000000000000000000000000000000000000000081526004016119189061310b565b60405180910390fd5b6000600260003373ffffffffffffffffffffffffffffffffffffffff1673ffffffffffffffffffffffffffffffffffffffff168152602001908152602001600020549050600081146119a8576040517f08c379a000000000000000000000000000000000000000000000000000000000815260040161199f9061304b565b60405180910390fd5b6119b26006612981565b60006119be6006612997565b9050600060405180610120016040528083815260200160008152602001866fffffffffffffffffffffffffffffffff16815260200160006fffffffffffffffffffffffffffffffff16815260200160006fffffffffffffffffffffffffffffffff168152602001600160009054906101000a90046fffffffffffffffffffffffffffffffff166fffffffffffffffffffffffffffffffff1681526020013373ffffffffffffffffffffffffffffffffffffffff168152602001611a80876124f5565b6fffffffffffffffffffffffffffffffff16815260200160006004811115611ad1577f4e487b7100000000000000000000000000000000000000000000000000000000600052602160045260246000fd5b8152509050806003600083600001518152602001908152602001600020600082015181600001556020820151816001015560408201518160020160006101000a8154816fffffffffffffffffffffffffffffffff02191690836fffffffffffffffffffffffffffffffff16021790555060608201518160020160106101000a8154816fffffffffffffffffffffffffffffffff02191690836fffffffffffffffffffffffffffffffff16021790555060808201518160030160006101000a8154816fffffffffffffffffffffffffffffffff02191690836fffffffffffffffffffffffffffffffff16021790555060a08201518160030160106101000a8154816fffffffffffffffffffffffffffffffff02191690836fffffffffffffffffffffffffffffffff16021790555060c08201518160040160006101000a81548173ffffffffffffffffffffffffffffffffffffffff021916908373ffffffffffffffffffffffffffffffffffffffff16021790555060e08201518160050160006101000a8154816fffffffffffffffffffffffffffffffff02191690836fffffffffffffffffffffffffffffffff1602179055506101008201518160050160106101000a81548160ff02191690836004811115611cd6577f4e487b7100000000000000000000000000000000000000000000000000000000600052602160045260246000fd5b02179055509050508060000151600260003373ffffffffffffffffffffffffffffffffffffffff1673ffffffffffffffffffffffffffffffffffffffff168152602001908152602001600020819055507f3aaf3cfb4a0b578d6f38e521e750d0d70b9da5f05aa80dc67d0f251c954725af8160000151604051611d59919061318b565b60405180910390a180600001519350505050919050565b6000600560008373ffffffffffffffffffffffffffffffffffffffff1673ffffffffffffffffffffffffffffffffffffffff168152602001908152602001600020805490509050919050565b7ff01d371537a29441ca88925bc2ebc55be08cd21e1501372f19b7f7e83ac68e6e600360008381526020019081526020016000206000015460036000848152602001908152602001600020600101546003600085815260200190815260200160002060020160009054906101000a90046fffffffffffffffffffffffffffffffff166003600086815260200190815260200160002060020160109054906101000a90046fffffffffffffffffffffffffffffffff166003600087815260200190815260200160002060030160009054906101000a90046fffffffffffffffffffffffffffffffff166003600088815260200190815260200160002060030160109054906101000a90046fffffffffffffffffffffffffffffffff166003600089815260200190815260200160002060040160009054906101000a900473ffffffffffffffffffffffffffffffffffffffff16600360008a815260200190815260200160002060050160009054906101000a90046fffffffffffffffffffffffffffffffff16600360008b815260200190815260200160002060050160109054906101000a900460ff16604051611f7a999897969594939291906131cf565b60405180910390a150565b60068060000154905081565b606060046000838152602001908152602001600020805480602002602001604051908101604052809291908181526020016000905b828210156120fd57838290600052602060002090600302016040518060800160405290816000820160009054906101000a900473ffffffffffffffffffffffffffffffffffffffff1673ffffffffffffffffffffffffffffffffffffffff1673ffffffffffffffffffffffffffffffffffffffff1681526020016001820160009054906101000a90046fffffffffffffffffffffffffffffffff166fffffffffffffffffffffffffffffffff166fffffffffffffffffffffffffffffffff1681526020016001820160109054906101000a900460ff161515151581526020016002820160009054906101000a90046fffffffffffffffffffffffffffffffff166fffffffffffffffffffffffffffffffff166fffffffffffffffffffffffffffffffff168152505081526020019060010190611fc6565b505050509050919050565b60008054906101000a900473ffffffffffffffffffffffffffffffffffffffff1681565b50565b60005b60046000838152602001908152602001600020805490508110156124f157600060046000848152602001908152602001600020828154811061219d577f4e487b7100000000000000000000000000000000000000000000000000000000600052603260045260246000fd5b90600052602060002090600302016040518060800160405290816000820160009054906101000a900473ffffffffffffffffffffffffffffffffffffffff1673ffffffffffffffffffffffffffffffffffffffff1673ffffffffffffffffffffffffffffffffffffffff1681526020016001820160009054906101000a90046fffffffffffffffffffffffffffffffff166fffffffffffffffffffffffffffffffff166fffffffffffffffffffffffffffffffff1681526020016001820160109054906101000a900460ff161515151581526020016002820160009054906101000a90046fffffffffffffffffffffffffffffffff166fffffffffffffffffffffffffffffffff166fffffffffffffffffffffffffffffffff1681525050905080604001516124dd5760003373ffffffffffffffffffffffffffffffffffffffff1682606001516fffffffffffffffffffffffffffffffff1660405161230290612fd9565b60006040518083038185875af1925050503d806000811461233f576040519150601f19603f3d011682016040523d82523d6000602084013e612344565b606091505b5050905080612388576040517f08c379a000000000000000000000000000000000000000000000000000000000815260040161237f9061308b565b60405180910390fd5b6001826040019015159081151581525050816004600086815260200190815260200160002084815481106123e5577f4e487b7100000000000000000000000000000000000000000000000000000000600052603260045260246000fd5b906000526020600020906003020160008201518160000160006101000a81548173ffffffffffffffffffffffffffffffffffffffff021916908373ffffffffffffffffffffffffffffffffffffffff16021790555060208201518160010160006101000a8154816fffffffffffffffffffffffffffffffff02191690836fffffffffffffffffffffffffffffffff16021790555060408201518160010160106101000a81548160ff02191690831515021790555060608201518160020160006101000a8154816fffffffffffffffffffffffffffffffff02191690836fffffffffffffffffffffffffffffffff160217905550905050505b5080806124e99061349d565b915050612132565b5050565b600081612710600160009054906101000a90046fffffffffffffffffffffffffffffffff1684612525919061337e565b61252f919061334d565b61253991906132b1565b9050919050565b60008160c0015173ffffffffffffffffffffffffffffffffffffffff1682604001516fffffffffffffffffffffffffffffffff1660405161258090612fd9565b60006040518083038185875af1925050503d80600081146125bd576040519150601f19603f3d011682016040523d82523d6000602084013e6125c2565b606091505b5050905080612606576040517f08c379a00000000000000000000000000000000000000000000000000000000081526004016125fd9061308b565b60405180910390fd5b6040518061012001604052808360000151815260200162015180600160109054906101000a900460ff1660ff1661263d91906133c8565b62ffffff164261264d91906132f7565b815260200183604001516fffffffffffffffffffffffffffffffff16815260200183606001516fffffffffffffffffffffffffffffffff16815260200183608001516fffffffffffffffffffffffffffffffff1681526020018360a001516fffffffffffffffffffffffffffffffff1681526020018360c0015173ffffffffffffffffffffffffffffffffffffffff1681526020018360e001516fffffffffffffffffffffffffffffffff16815260200160026004811115612738577f4e487b7100000000000000000000000000000000000000000000000000000000600052602160045260246000fd5b8152506003600084600001518152602001908152602001600020600082015181600001556020820151816001015560408201518160020160006101000a8154816fffffffffffffffffffffffffffffffff02191690836fffffffffffffffffffffffffffffffff16021790555060608201518160020160106101000a8154816fffffffffffffffffffffffffffffffff02191690836fffffffffffffffffffffffffffffffff16021790555060808201518160030160006101000a8154816fffffffffffffffffffffffffffffffff02191690836fffffffffffffffffffffffffffffffff16021790555060a08201518160030160106101000a8154816fffffffffffffffffffffffffffffffff02191690836fffffffffffffffffffffffffffffffff16021790555060c08201518160040160006101000a81548173ffffffffffffffffffffffffffffffffffffffff021916908373ffffffffffffffffffffffffffffffffffffffff16021790555060e08201518160050160006101000a8154816fffffffffffffffffffffffffffffffff02191690836fffffffffffffffffffffffffffffffff1602179055506101008201518160050160106101000a81548160ff0219169083600481111561293a577f4e487b7100000000000000000000000000000000000000000000000000000000600052602160045260246000fd5b02179055509050507f69fc7e7edd4865b1a05c051b8bf5b0d588983f0969141c15a5dcea05d5324b1b8260000151604051612975919061318b565b60405180910390a15050565b6001816000016000828254019250508190555050565b600081600001549050919050565b6000813590506129b481613587565b92915050565b6000813590506129c98161359e565b92915050565b6000813590506129de816135b5565b92915050565b6000602082840312156129f657600080fd5b6000612a04848285016129a5565b91505092915050565b600060208284031215612a1f57600080fd5b6000612a2d848285016129ba565b91505092915050565b600060208284031215612a4857600080fd5b6000612a56848285016129cf565b91505092915050565b60008060408385031215612a7257600080fd5b6000612a80858286016129cf565b9250506020612a91858286016129ba565b9150509250929050565b6000612aa78383612f57565b60808301905092915050565b612abc81613405565b82525050565b612acb81613405565b82525050565b6000612adc8261326c565b612ae68185613284565b9350612af18361325c565b8060005b83811015612b22578151612b098882612a9b565b9750612b1483613277565b925050600181019050612af5565b5085935050505092915050565b612b3881613417565b82525050565b612b478161348b565b82525050565b6000612b5a601d836132a0565b91507f4c6f616e2068617320616c7265616479206265656e2066756e6465642e0000006000830152602082019050919050565b6000612b9a6021836132a0565b91507f4c6f616e20616c72656164792065786973747320666f7220626f72726f77657260008301527f2e000000000000000000000000000000000000000000000000000000000000006020830152604082019050919050565b6000612c006032836132a0565b91507f536f6d657468696e672077656e742077726f6e672c20616d6f756e742072657060008301527f61696420697320756e65787065637465642e00000000000000000000000000006020830152604082019050919050565b6000612c666014836132a0565b91507f4661696c656420746f2073656e642045746865720000000000000000000000006000830152602082019050919050565b6000612ca66029836132a0565b91507f4465706f73697420616d6f756e74206d7573742062652067726561746572207460008301527f68616e207a65726f2e00000000000000000000000000000000000000000000006020830152604082019050919050565b6000612d0c602b836132a0565b91507f52657061796d656e7420616d6f756e74206d757374206265206772656174657260008301527f207468616e207a65726f2e0000000000000000000000000000000000000000006020830152604082019050919050565b6000612d726035836132a0565b91507f416d6f756e742073656e7420646f6573206e6f7420657175616c206465636c6160008301527f7265642072657061796d656e7420616d6f756e742e00000000000000000000006020830152604082019050919050565b6000612dd8600083613295565b9150600082019050919050565b6000612df26026836132a0565b91507f4c6f616e20616d6f756e74206d7573742062652067726561746572207468616e60008301527f207a65726f2e00000000000000000000000000000000000000000000000000006020830152604082019050919050565b6000612e586033836132a0565b91507f416d6f756e742073656e7420646f6573206e6f7420657175616c206465636c6160008301527f726564206465706f73697420616d6f756e742e000000000000000000000000006020830152604082019050919050565b6000612ebe6035836132a0565b91507f536f6d657468696e672077656e742077726f6e672c20616d6f756e742064657060008301527f6f736974656420697320756e65787065637465642e00000000000000000000006020830152604082019050919050565b6000612f24600f836132a0565b91507f4c6f616e206e6f7420666f756e642e00000000000000000000000000000000006000830152602082019050919050565b608082016000820151612f6d6000850182612ab3565b506020820151612f806020850182612fac565b506040820151612f936040850182612b2f565b506060820151612fa66060850182612fac565b50505050565b612fb581613436565b82525050565b612fc481613436565b82525050565b612fd381613481565b82525050565b6000612fe482612dcb565b9150819050919050565b60006020820190506130036000830184612ac2565b92915050565b600060208201905081810360008301526130238184612ad1565b905092915050565b6000602082019050818103600083015261304481612b4d565b9050919050565b6000602082019050818103600083015261306481612b8d565b9050919050565b6000602082019050818103600083015261308481612bf3565b9050919050565b600060208201905081810360008301526130a481612c59565b9050919050565b600060208201905081810360008301526130c481612c99565b9050919050565b600060208201905081810360008301526130e481612cff565b9050919050565b6000602082019050818103600083015261310481612d65565b9050919050565b6000602082019050818103600083015261312481612de5565b9050919050565b6000602082019050818103600083015261314481612e4b565b9050919050565b6000602082019050818103600083015261316481612eb1565b9050919050565b6000602082019050818103600083015261318481612f17565b9050919050565b60006020820190506131a06000830184612fca565b92915050565b60006040820190506131bb6000830185612fca565b6131c86020830184612ac2565b9392505050565b6000610120820190506131e5600083018c612fca565b6131f2602083018b612fca565b6131ff604083018a612fbb565b61320c6060830189612fbb565b6132196080830188612fbb565b61322660a0830187612fbb565b61323360c0830186612ac2565b61324060e0830185612fbb565b61324e610100830184612b3e565b9a9950505050505050505050565b6000819050602082019050919050565b600081519050919050565b6000602082019050919050565b600082825260208201905092915050565b600081905092915050565b600082825260208201905092915050565b60006132bc82613436565b91506132c783613436565b9250826fffffffffffffffffffffffffffffffff038211156132ec576132eb6134e6565b5b828201905092915050565b600061330282613481565b915061330d83613481565b9250827fffffffffffffffffffffffffffffffffffffffffffffffffffffffffffffffff03821115613342576133416134e6565b5b828201905092915050565b600061335882613436565b915061336383613436565b92508261337357613372613515565b5b828204905092915050565b600061338982613436565b915061339483613436565b9250816fffffffffffffffffffffffffffffffff04831182151516156133bd576133bc6134e6565b5b828202905092915050565b60006133d382613472565b91506133de83613472565b92508162ffffff04831182151516156133fa576133f96134e6565b5b828202905092915050565b600061341082613452565b9050919050565b60008115159050919050565b600081905061343182613573565b919050565b60006fffffffffffffffffffffffffffffffff82169050919050565b600073ffffffffffffffffffffffffffffffffffffffff82169050919050565b600062ffffff82169050919050565b6000819050919050565b600061349682613423565b9050919050565b60006134a882613481565b91507fffffffffffffffffffffffffffffffffffffffffffffffffffffffffffffffff8214156134db576134da6134e6565b5b600182019050919050565b7f4e487b7100000000000000000000000000000000000000000000000000000000600052601160045260246000fd5b7f4e487b7100000000000000000000000000000000000000000000000000000000600052601260045260246000fd5b7f4e487b7100000000000000000000000000000000000000000000000000000000600052602160045260246000fd5b6005811061358457613583613544565b5b50565b61359081613405565b811461359b57600080fd5b50565b6135a781613436565b81146135b257600080fd5b50565b6135be81613481565b81146135c957600080fd5b5056fea2646970667358221220ee69b145591d736e56043b1ca6570ec592b798578409f7319454cd5664758da264736f6c63430008000033",
  "linkReferences": {},
  "deployedLinkReferences": {}
}