{
  "_format": "hh-sol-artifact-1",
  "contractName": "SocialLending",
  "sourceName": "contracts/SocialLending.sol",
  "abi": [
    {
      "inputs": [],
      "stateMutability": "nonpayable",
      "type": "constructor"
    },
    {
      "anonymous": false,
      "inputs": [
        {
          "indexed": false,
          "internalType": "uint256",
          "name": "loanID",
          "type": "uint256"
        },
        {
          "indexed": false,
          "internalType": "address",
          "name": "lenderAddress",
          "type": "address"
        }
      ],
      "name": "LenderDeposit",
      "type": "event"
    },
    {
      "anonymous": false,
      "inputs": [
        {
          "components": [
            {
              "internalType": "address",
              "name": "lenderAddress",
              "type": "address"
            },
            {
              "internalType": "uint128",
              "name": "depositAmount",
              "type": "uint128"
            },
            {
              "internalType": "bool",
              "name": "isRepaid",
              "type": "bool"
            },
            {
              "internalType": "uint128",
              "name": "amountToRepay",
              "type": "uint128"
            }
          ],
          "indexed": false,
          "internalType": "struct SocialLending.Lender",
          "name": "lenderDetails",
          "type": "tuple"
        }
      ],
      "name": "LenderDetails",
      "type": "event"
    },
    {
      "anonymous": false,
      "inputs": [
        {
          "indexed": false,
          "internalType": "address",
          "name": "lenderAddress",
          "type": "address"
        },
        {
          "indexed": false,
          "internalType": "uint128",
          "name": "depositAmount",
          "type": "uint128"
        },
        {
          "indexed": false,
          "internalType": "bool",
          "name": "isRepaid",
          "type": "bool"
        },
        {
          "indexed": false,
          "internalType": "uint128",
          "name": "amountToRepay",
          "type": "uint128"
        }
      ],
      "name": "LenderDetails",
      "type": "event"
    },
    {
      "anonymous": false,
      "inputs": [
        {
          "indexed": false,
          "internalType": "uint256",
          "name": "loanID",
          "type": "uint256"
        }
      ],
      "name": "LendersRepaid",
      "type": "event"
    },
    {
      "anonymous": false,
      "inputs": [
        {
          "indexed": false,
          "internalType": "uint256",
          "name": "loanID",
          "type": "uint256"
        },
        {
          "indexed": false,
          "internalType": "uint256",
          "name": "tenor",
          "type": "uint256"
        },
        {
          "indexed": false,
          "internalType": "uint128",
          "name": "loanAmount",
          "type": "uint128"
        },
        {
          "indexed": false,
          "internalType": "uint128",
          "name": "amountDeposited",
          "type": "uint128"
        },
        {
          "indexed": false,
          "internalType": "uint128",
          "name": "amountRepaid",
          "type": "uint128"
        },
        {
          "indexed": false,
          "internalType": "uint16",
          "name": "interestRate",
          "type": "uint16"
        },
        {
          "indexed": false,
          "internalType": "address",
          "name": "borrowerAddress",
          "type": "address"
        },
        {
          "indexed": false,
          "internalType": "uint128",
          "name": "loanAmountWithInterest",
          "type": "uint128"
        },
        {
          "indexed": false,
          "internalType": "enum SocialLending.LoanStatus",
          "name": "loanStatus",
          "type": "uint8"
        }
      ],
      "name": "LoanDetails",
      "type": "event"
    },
    {
      "anonymous": false,
      "inputs": [
        {
          "indexed": false,
          "internalType": "uint256",
          "name": "loanID",
          "type": "uint256"
        }
      ],
      "name": "LoanNeedsRepayment",
      "type": "event"
    },
    {
      "anonymous": false,
      "inputs": [
        {
          "indexed": false,
          "internalType": "uint256",
          "name": "loanID",
          "type": "uint256"
        }
      ],
      "name": "LoanRepaid",
      "type": "event"
    },
    {
      "anonymous": false,
      "inputs": [
        {
          "indexed": false,
          "internalType": "uint256",
          "name": "loanID",
          "type": "uint256"
        }
      ],
      "name": "LoanRequested",
      "type": "event"
    },
    {
      "inputs": [
        {
          "internalType": "uint128",
          "name": "_loanAmount",
          "type": "uint128"
        }
      ],
      "name": "createLoan",
      "outputs": [
        {
          "internalType": "uint256",
          "name": "loanID",
          "type": "uint256"
        }
      ],
      "stateMutability": "nonpayable",
      "type": "function"
    },
    {
      "inputs": [
        {
          "internalType": "uint256",
          "name": "_loanID",
          "type": "uint256"
        },
        {
          "internalType": "uint128",
          "name": "_depositAmount",
          "type": "uint128"
        }
      ],
      "name": "depositToLoan",
      "outputs": [],
      "stateMutability": "payable",
      "type": "function"
    },
    {
      "inputs": [
        {
          "internalType": "address",
          "name": "_borrowerAddress",
          "type": "address"
        }
      ],
      "name": "getBorrowersLoanID",
      "outputs": [
        {
          "internalType": "uint256",
          "name": "",
          "type": "uint256"
        }
      ],
      "stateMutability": "view",
      "type": "function"
    },
    {
      "inputs": [
        {
          "internalType": "uint256",
          "name": "_loanID",
          "type": "uint256"
        }
      ],
      "name": "getLenderDetails",
      "outputs": [],
      "stateMutability": "nonpayable",
      "type": "function"
    },
    {
      "inputs": [
        {
          "internalType": "uint256",
          "name": "_loanID",
          "type": "uint256"
        }
      ],
      "name": "getLendersFromLoanID",
      "outputs": [
        {
          "components": [
            {
              "internalType": "address",
              "name": "lenderAddress",
              "type": "address"
            },
            {
              "internalType": "uint128",
              "name": "depositAmount",
              "type": "uint128"
            },
            {
              "internalType": "bool",
              "name": "isRepaid",
              "type": "bool"
            },
            {
              "internalType": "uint128",
              "name": "amountToRepay",
              "type": "uint128"
            }
          ],
          "internalType": "struct SocialLending.Lender[]",
          "name": "",
          "type": "tuple[]"
        }
      ],
      "stateMutability": "view",
      "type": "function"
    },
    {
      "inputs": [
        {
          "internalType": "uint256",
          "name": "_loanID",
          "type": "uint256"
        }
      ],
      "name": "getLoanDetailsFromLoanID",
      "outputs": [],
      "stateMutability": "nonpayable",
      "type": "function"
    },
    {
      "inputs": [
        {
          "internalType": "address",
          "name": "_borrowerAddress",
          "type": "address"
        }
      ],
      "name": "getPreviousLoanCount",
      "outputs": [
        {
          "internalType": "uint256",
          "name": "",
          "type": "uint256"
        }
      ],
      "stateMutability": "view",
      "type": "function"
    },
    {
      "inputs": [],
      "name": "loanIDCounter",
      "outputs": [
        {
          "internalType": "uint256",
          "name": "_value",
          "type": "uint256"
        }
      ],
      "stateMutability": "view",
      "type": "function"
    },
    {
      "inputs": [],
      "name": "owner",
      "outputs": [
        {
          "internalType": "address",
          "name": "",
          "type": "address"
        }
      ],
      "stateMutability": "view",
      "type": "function"
    },
    {
      "inputs": [
        {
          "internalType": "uint256",
          "name": "_loanID",
          "type": "uint256"
        }
      ],
      "name": "payoutDepositsWithInterest",
      "outputs": [],
      "stateMutability": "payable",
      "type": "function"
    },
    {
      "inputs": [
        {
          "internalType": "uint256",
          "name": "_loanID",
          "type": "uint256"
        },
        {
          "internalType": "uint128",
          "name": "_repaymentAmount",
          "type": "uint128"
        }
      ],
      "name": "repayLoan",
      "outputs": [],
      "stateMutability": "payable",
      "type": "function"
    }
  ],
  "bytecode": "0x60806040526102bc600060146101000a81548161ffff021916908361ffff160217905550605a600060166101000a81548160ff021916908360ff16021790555034801561004b57600080fd5b50336000806101000a81548173ffffffffffffffffffffffffffffffffffffffff021916908373ffffffffffffffffffffffffffffffffffffffff1602179055506135be8061009b6000396000f3fe60806040526004361061009c5760003560e01c80633d267e82116100645780633d267e821461019057806351348454146101b95780635edc3319146101e45780638da5cb5b14610221578063e79506321461024c578063ea1e55c8146102755761009c565b80630126fb10146100a15780630254b24e146100bd578063106352a0146100d95780632fa6c0f61461011657806339a6bffc14610153575b600080fd5b6100bb60048036038101906100b69190612ada565b610291565b005b6100d760048036038101906100d29190612ada565b610d82565b005b3480156100e557600080fd5b5061010060048036038101906100fb9190612a5f565b61165e565b60405161010d9190613139565b60405180910390f35b34801561012257600080fd5b5061013d60048036038101906101389190612a88565b6116a7565b60405161014a9190613139565b60405180910390f35b34801561015f57600080fd5b5061017a60048036038101906101759190612a5f565b611afe565b6040516101879190613139565b60405180910390f35b34801561019c57600080fd5b506101b760048036038101906101b29190612ab1565b611b4a565b005b3480156101c557600080fd5b506101ce611d05565b6040516101db9190613139565b60405180910390f35b3480156101f057600080fd5b5061020b60048036038101906102069190612ab1565b611d11565b6040516102189190612fb7565b60405180910390f35b34801561022d57600080fd5b50610236611e88565b6040516102439190612f57565b60405180910390f35b34801561025857600080fd5b50610273600480360381019061026e9190612ab1565b611eac565b005b61028f600480360381019061028a9190612ab1565b6121a7565b005b806fffffffffffffffffffffffffffffffff1634146102e5576040517f08c379a00000000000000000000000000000000000000000000000000000000081526004016102dc90613099565b60405180910390fd5b6000816fffffffffffffffffffffffffffffffff161161033a576040517f08c379a0000000000000000000000000000000000000000000000000000000008152600401610331906130d9565b60405180910390fd5b6000600260008481526020019081526020016000206040518061012001604052908160008201548152602001600182015481526020016002820160009054906101000a90046fffffffffffffffffffffffffffffffff166fffffffffffffffffffffffffffffffff166fffffffffffffffffffffffffffffffff1681526020016002820160109054906101000a90046fffffffffffffffffffffffffffffffff166fffffffffffffffffffffffffffffffff166fffffffffffffffffffffffffffffffff1681526020016003820160009054906101000a90046fffffffffffffffffffffffffffffffff166fffffffffffffffffffffffffffffffff166fffffffffffffffffffffffffffffffff1681526020016003820160109054906101000a900461ffff1661ffff1661ffff1681526020016004820160009054906101000a900473ffffffffffffffffffffffffffffffffffffffff1673ffffffffffffffffffffffffffffffffffffffff1673ffffffffffffffffffffffffffffffffffffffff1681526020016005820160009054906101000a90046fffffffffffffffffffffffffffffffff166fffffffffffffffffffffffffffffffff166fffffffffffffffffffffffffffffffff1681526020016005820160109054906101000a900460ff166004811115610558577f4e487b7100000000000000000000000000000000000000000000000000000000600052602160045260246000fd5b6004811115610590577f4e487b7100000000000000000000000000000000000000000000000000000000600052602160045260246000fd5b81525050905060008160000151116105dd576040517f08c379a00000000000000000000000000000000000000000000000000000000081526004016105d490613059565b60405180910390fd5b81816080018181516105ef919061325f565b9150906fffffffffffffffffffffffffffffffff1690816fffffffffffffffffffffffffffffffff168152505080608001516fffffffffffffffffffffffffffffffff168160e001516fffffffffffffffffffffffffffffffff16111561093757604051806101200160405280826000015181526020018260200151815260200182604001516fffffffffffffffffffffffffffffffff16815260200182606001516fffffffffffffffffffffffffffffffff16815260200182608001516fffffffffffffffffffffffffffffffff1681526020018260a0015161ffff1681526020018260c0015173ffffffffffffffffffffffffffffffffffffffff1681526020018260e001516fffffffffffffffffffffffffffffffff16815260200160026004811115610748577f4e487b7100000000000000000000000000000000000000000000000000000000600052602160045260246000fd5b81525060026000858152602001908152602001600020600082015181600001556020820151816001015560408201518160020160006101000a8154816fffffffffffffffffffffffffffffffff02191690836fffffffffffffffffffffffffffffffff16021790555060608201518160020160106101000a8154816fffffffffffffffffffffffffffffffff02191690836fffffffffffffffffffffffffffffffff16021790555060808201518160030160006101000a8154816fffffffffffffffffffffffffffffffff02191690836fffffffffffffffffffffffffffffffff16021790555060a08201518160030160106101000a81548161ffff021916908361ffff16021790555060c08201518160040160006101000a81548173ffffffffffffffffffffffffffffffffffffffff021916908373ffffffffffffffffffffffffffffffffffffffff16021790555060e08201518160050160006101000a8154816fffffffffffffffffffffffffffffffff02191690836fffffffffffffffffffffffffffffffff1602179055506101008201518160050160106101000a81548160ff0219169083600481111561092a577f4e487b7100000000000000000000000000000000000000000000000000000000600052602160045260246000fd5b0217905550905050610d7d565b80608001516fffffffffffffffffffffffffffffffff168160e001516fffffffffffffffffffffffffffffffff1610610d4157604051806101200160405280826000015181526020018260200151815260200182604001516fffffffffffffffffffffffffffffffff16815260200182606001516fffffffffffffffffffffffffffffffff16815260200182608001516fffffffffffffffffffffffffffffffff1681526020018260a0015161ffff1681526020018260c0015173ffffffffffffffffffffffffffffffffffffffff1681526020018260e001516fffffffffffffffffffffffffffffffff16815260200160036004811115610a62577f4e487b7100000000000000000000000000000000000000000000000000000000600052602160045260246000fd5b81525060026000858152602001908152602001600020600082015181600001556020820151816001015560408201518160020160006101000a8154816fffffffffffffffffffffffffffffffff02191690836fffffffffffffffffffffffffffffffff16021790555060608201518160020160106101000a8154816fffffffffffffffffffffffffffffffff02191690836fffffffffffffffffffffffffffffffff16021790555060808201518160030160006101000a8154816fffffffffffffffffffffffffffffffff02191690836fffffffffffffffffffffffffffffffff16021790555060a08201518160030160106101000a81548161ffff021916908361ffff16021790555060c08201518160040160006101000a81548173ffffffffffffffffffffffffffffffffffffffff021916908373ffffffffffffffffffffffffffffffffffffffff16021790555060e08201518160050160006101000a8154816fffffffffffffffffffffffffffffffff02191690836fffffffffffffffffffffffffffffffff1602179055506101008201518160050160106101000a81548160ff02191690836004811115610c44577f4e487b7100000000000000000000000000000000000000000000000000000000600052602160045260246000fd5b0217905550905050600460008260c0015173ffffffffffffffffffffffffffffffffffffffff1673ffffffffffffffffffffffffffffffffffffffff16815260200190815260200160002081600001519080600181540180825580915050600190039060005260206000200160009091909190915055600160008260c0015173ffffffffffffffffffffffffffffffffffffffff1673ffffffffffffffffffffffffffffffffffffffff168152602001908152602001600020600090557f9a7851747cd7ffb3fe0a32caf3da48b31f27cebe131267051640f8b72fc471868160000151604051610d349190613139565b60405180910390a1610d7c565b6040517f08c379a0000000000000000000000000000000000000000000000000000000008152600401610d7390612fd9565b60405180910390fd5b5b505050565b806fffffffffffffffffffffffffffffffff163414610dd6576040517f08c379a0000000000000000000000000000000000000000000000000000000008152600401610dcd90613099565b60405180910390fd5b6000816fffffffffffffffffffffffffffffffff1611610e2b576040517f08c379a0000000000000000000000000000000000000000000000000000000008152600401610e22906130f9565b60405180910390fd5b60006002600084815260200190815260200160002090506000816000015411610e89576040517f08c379a0000000000000000000000000000000000000000000000000000000008152600401610e8090613039565b60405180910390fd5b60006004811115610ec3577f4e487b7100000000000000000000000000000000000000000000000000000000600052602160045260246000fd5b8160050160109054906101000a900460ff166004811115610f0d577f4e487b7100000000000000000000000000000000000000000000000000000000600052602160045260246000fd5b1480610f9a575060016004811115610f4e577f4e487b7100000000000000000000000000000000000000000000000000000000600052602160045260246000fd5b8160050160109054906101000a900460ff166004811115610f98577f4e487b7100000000000000000000000000000000000000000000000000000000600052602160045260246000fd5b145b610fd9576040517f08c379a0000000000000000000000000000000000000000000000000000000008152600401610fd090612ff9565b60405180910390fd5b6000828260020160109054906101000a90046fffffffffffffffffffffffffffffffff16611007919061325f565b9050600360008360000154815260200190815260200160002060405180608001604052803373ffffffffffffffffffffffffffffffffffffffff168152602001856fffffffffffffffffffffffffffffffff168152602001600015158152602001611071866125a4565b6fffffffffffffffffffffffffffffffff16815250908060018154018082558091505060019003906000526020600020906003020160009091909190915060008201518160000160006101000a81548173ffffffffffffffffffffffffffffffffffffffff021916908373ffffffffffffffffffffffffffffffffffffffff16021790555060208201518160010160006101000a8154816fffffffffffffffffffffffffffffffff02191690836fffffffffffffffffffffffffffffffff16021790555060408201518160010160106101000a81548160ff02191690831515021790555060608201518160020160006101000a8154816fffffffffffffffffffffffffffffffff02191690836fffffffffffffffffffffffffffffffff1602179055505050806fffffffffffffffffffffffffffffffff168260020160009054906101000a90046fffffffffffffffffffffffffffffffff166fffffffffffffffffffffffffffffffff1611156112b257808260020160106101000a8154816fffffffffffffffffffffffffffffffff02191690836fffffffffffffffffffffffffffffffff16021790555060018260050160106101000a81548160ff0219169083600481111561126b577f4e487b7100000000000000000000000000000000000000000000000000000000600052602160045260246000fd5b02179055507f2b9861ebbeabab8ef193be0c040da5974e1f55400eec042a33563c742ef70ea08260000154336040516112a5929190613154565b60405180910390a1611658565b8160020160009054906101000a90046fffffffffffffffffffffffffffffffff166fffffffffffffffffffffffffffffffff16816fffffffffffffffffffffffffffffffff16141561161c57808260020160106101000a8154816fffffffffffffffffffffffffffffffff02191690836fffffffffffffffffffffffffffffffff16021790555060028260050160106101000a81548160ff02191690836004811115611387577f4e487b7100000000000000000000000000000000000000000000000000000000600052602160045260246000fd5b02179055507f2b9861ebbeabab8ef193be0c040da5974e1f55400eec042a33563c742ef70ea08260000154336040516113c1929190613154565b60405180910390a1611617826040518061012001604052908160008201548152602001600182015481526020016002820160009054906101000a90046fffffffffffffffffffffffffffffffff166fffffffffffffffffffffffffffffffff166fffffffffffffffffffffffffffffffff1681526020016002820160109054906101000a90046fffffffffffffffffffffffffffffffff166fffffffffffffffffffffffffffffffff166fffffffffffffffffffffffffffffffff1681526020016003820160009054906101000a90046fffffffffffffffffffffffffffffffff166fffffffffffffffffffffffffffffffff166fffffffffffffffffffffffffffffffff1681526020016003820160109054906101000a900461ffff1661ffff1661ffff1681526020016004820160009054906101000a900473ffffffffffffffffffffffffffffffffffffffff1673ffffffffffffffffffffffffffffffffffffffff1673ffffffffffffffffffffffffffffffffffffffff1681526020016005820160009054906101000a90046fffffffffffffffffffffffffffffffff166fffffffffffffffffffffffffffffffff166fffffffffffffffffffffffffffffffff1681526020016005820160109054906101000a900460ff1660048111156115d6577f4e487b7100000000000000000000000000000000000000000000000000000000600052602160045260246000fd5b600481111561160e577f4e487b7100000000000000000000000000000000000000000000000000000000600052602160045260246000fd5b815250506125e5565b611657565b6040517f08c379a000000000000000000000000000000000000000000000000000000000815260040161164e90613119565b60405180910390fd5b5b50505050565b6000600160008373ffffffffffffffffffffffffffffffffffffffff1673ffffffffffffffffffffffffffffffffffffffff168152602001908152602001600020549050919050565b600080826fffffffffffffffffffffffffffffffff16116116fd576040517f08c379a00000000000000000000000000000000000000000000000000000000081526004016116f4906130b9565b60405180910390fd5b6000600160003373ffffffffffffffffffffffffffffffffffffffff1673ffffffffffffffffffffffffffffffffffffffff16815260200190815260200160002054905060008114611784576040517f08c379a000000000000000000000000000000000000000000000000000000000815260040161177b90613079565b60405180910390fd5b61178e60056129fc565b600061179a6005612a12565b905060405180610120016040528082815260200160008152602001856fffffffffffffffffffffffffffffffff16815260200160006fffffffffffffffffffffffffffffffff16815260200160006fffffffffffffffffffffffffffffffff168152602001600060149054906101000a900461ffff1661ffff1681526020013373ffffffffffffffffffffffffffffffffffffffff16815260200161183e866125a4565b6fffffffffffffffffffffffffffffffff1681526020016000600481111561188f577f4e487b7100000000000000000000000000000000000000000000000000000000600052602160045260246000fd5b81525060026000838152602001908152602001600020600082015181600001556020820151816001015560408201518160020160006101000a8154816fffffffffffffffffffffffffffffffff02191690836fffffffffffffffffffffffffffffffff16021790555060608201518160020160106101000a8154816fffffffffffffffffffffffffffffffff02191690836fffffffffffffffffffffffffffffffff16021790555060808201518160030160006101000a8154816fffffffffffffffffffffffffffffffff02191690836fffffffffffffffffffffffffffffffff16021790555060a08201518160030160106101000a81548161ffff021916908361ffff16021790555060c08201518160040160006101000a81548173ffffffffffffffffffffffffffffffffffffffff021916908373ffffffffffffffffffffffffffffffffffffffff16021790555060e08201518160050160006101000a8154816fffffffffffffffffffffffffffffffff02191690836fffffffffffffffffffffffffffffffff1602179055506101008201518160050160106101000a81548160ff02191690836004811115611a71577f4e487b7100000000000000000000000000000000000000000000000000000000600052602160045260246000fd5b021790555090505080600160003373ffffffffffffffffffffffffffffffffffffffff1673ffffffffffffffffffffffffffffffffffffffff168152602001908152602001600020819055507f3aaf3cfb4a0b578d6f38e521e750d0d70b9da5f05aa80dc67d0f251c954725af81604051611aec9190613139565b60405180910390a18092505050919050565b6000600460008373ffffffffffffffffffffffffffffffffffffffff1673ffffffffffffffffffffffffffffffffffffffff168152602001908152602001600020805490509050919050565b7f564f4189d36794bd7a9c43b98c0417cb838f5ea3f374a5accd4c9d25ea6c8beb600260008381526020019081526020016000206000015460026000848152602001908152602001600020600101546002600085815260200190815260200160002060020160009054906101000a90046fffffffffffffffffffffffffffffffff166002600086815260200190815260200160002060020160109054906101000a90046fffffffffffffffffffffffffffffffff166002600087815260200190815260200160002060030160009054906101000a90046fffffffffffffffffffffffffffffffff166002600088815260200190815260200160002060030160109054906101000a900461ffff166002600089815260200190815260200160002060040160009054906101000a900473ffffffffffffffffffffffffffffffffffffffff16600260008a815260200190815260200160002060050160009054906101000a90046fffffffffffffffffffffffffffffffff16600260008b815260200190815260200160002060050160109054906101000a900460ff16604051611cfa9998979695949392919061317d565b60405180910390a150565b60058060000154905081565b606060036000838152602001908152602001600020805480602002602001604051908101604052809291908181526020016000905b82821015611e7d57838290600052602060002090600302016040518060800160405290816000820160009054906101000a900473ffffffffffffffffffffffffffffffffffffffff1673ffffffffffffffffffffffffffffffffffffffff1673ffffffffffffffffffffffffffffffffffffffff1681526020016001820160009054906101000a90046fffffffffffffffffffffffffffffffff166fffffffffffffffffffffffffffffffff166fffffffffffffffffffffffffffffffff1681526020016001820160109054906101000a900460ff161515151581526020016002820160009054906101000a90046fffffffffffffffffffffffffffffffff166fffffffffffffffffffffffffffffffff166fffffffffffffffffffffffffffffffff168152505081526020019060010190611d46565b505050509050919050565b60008054906101000a900473ffffffffffffffffffffffffffffffffffffffff1681565b60005b60036000838152602001908152602001600020805490508110156121a3573373ffffffffffffffffffffffffffffffffffffffff16600360008481526020019081526020016000208281548110611f2f577f4e487b7100000000000000000000000000000000000000000000000000000000600052603260045260246000fd5b906000526020600020906003020160000160009054906101000a900473ffffffffffffffffffffffffffffffffffffffff1673ffffffffffffffffffffffffffffffffffffffff161415612190577fdc3841c3def4bb7e983495c9afb6f5bbb42ca17b4db21470b6f25412fa808952600360008481526020019081526020016000208281548110611fe9577f4e487b7100000000000000000000000000000000000000000000000000000000600052603260045260246000fd5b906000526020600020906003020160000160009054906101000a900473ffffffffffffffffffffffffffffffffffffffff16600360008581526020019081526020016000208381548110612066577f4e487b7100000000000000000000000000000000000000000000000000000000600052603260045260246000fd5b906000526020600020906003020160010160009054906101000a90046fffffffffffffffffffffffffffffffff166003600086815260200190815260200160002084815481106120df577f4e487b7100000000000000000000000000000000000000000000000000000000600052603260045260246000fd5b906000526020600020906003020160010160109054906101000a900460ff16600360008781526020019081526020016000208581548110612149577f4e487b7100000000000000000000000000000000000000000000000000000000600052603260045260246000fd5b906000526020600020906003020160020160009054906101000a90046fffffffffffffffffffffffffffffffff166040516121879493929190612f72565b60405180910390a15b808061219b90613459565b915050611eaf565b5050565b60005b6003600083815260200190815260200160002080549050811015612569576000600360008481526020019081526020016000208281548110612215577f4e487b7100000000000000000000000000000000000000000000000000000000600052603260045260246000fd5b90600052602060002090600302016040518060800160405290816000820160009054906101000a900473ffffffffffffffffffffffffffffffffffffffff1673ffffffffffffffffffffffffffffffffffffffff1673ffffffffffffffffffffffffffffffffffffffff1681526020016001820160009054906101000a90046fffffffffffffffffffffffffffffffff166fffffffffffffffffffffffffffffffff166fffffffffffffffffffffffffffffffff1681526020016001820160109054906101000a900460ff161515151581526020016002820160009054906101000a90046fffffffffffffffffffffffffffffffff166fffffffffffffffffffffffffffffffff166fffffffffffffffffffffffffffffffff1681525050905080604001516125555760018160400190151590811515815250508060036000858152602001908152602001600020838154811061239b577f4e487b7100000000000000000000000000000000000000000000000000000000600052603260045260246000fd5b906000526020600020906003020160008201518160000160006101000a81548173ffffffffffffffffffffffffffffffffffffffff021916908373ffffffffffffffffffffffffffffffffffffffff16021790555060208201518160010160006101000a8154816fffffffffffffffffffffffffffffffff02191690836fffffffffffffffffffffffffffffffff16021790555060408201518160010160106101000a81548160ff02191690831515021790555060608201518160020160006101000a8154816fffffffffffffffffffffffffffffffff02191690836fffffffffffffffffffffffffffffffff16021790555090505060003373ffffffffffffffffffffffffffffffffffffffff1682606001516fffffffffffffffffffffffffffffffff166040516124cd90612f42565b60006040518083038185875af1925050503d806000811461250a576040519150601f19603f3d011682016040523d82523d6000602084013e61250f565b606091505b5050905080612553576040517f08c379a000000000000000000000000000000000000000000000000000000000815260040161254a90613019565b60405180910390fd5b505b50808061256190613459565b9150506121aa565b507fe4abe3d75771d8a3ed871fd8b547be26e46d4fc3a3c4316b553b20fbcececbb3816040516125999190613139565b60405180910390a150565b600081612710600060149054906101000a900461ffff1661ffff16846125ca919061332c565b6125d491906132fb565b6125de919061325f565b9050919050565b6040518061012001604052808260000151815260200162015180600060169054906101000a900460ff1660ff1661261c9190613376565b62ffffff164261262c91906132a5565b815260200182604001516fffffffffffffffffffffffffffffffff16815260200182606001516fffffffffffffffffffffffffffffffff16815260200182608001516fffffffffffffffffffffffffffffffff1681526020018260a0015161ffff1681526020018260c0015173ffffffffffffffffffffffffffffffffffffffff1681526020018260e001516fffffffffffffffffffffffffffffffff16815260200160026004811115612709577f4e487b7100000000000000000000000000000000000000000000000000000000600052602160045260246000fd5b8152506002600083600001518152602001908152602001600020600082015181600001556020820151816001015560408201518160020160006101000a8154816fffffffffffffffffffffffffffffffff02191690836fffffffffffffffffffffffffffffffff16021790555060608201518160020160106101000a8154816fffffffffffffffffffffffffffffffff02191690836fffffffffffffffffffffffffffffffff16021790555060808201518160030160006101000a8154816fffffffffffffffffffffffffffffffff02191690836fffffffffffffffffffffffffffffffff16021790555060a08201518160030160106101000a81548161ffff021916908361ffff16021790555060c08201518160040160006101000a81548173ffffffffffffffffffffffffffffffffffffffff021916908373ffffffffffffffffffffffffffffffffffffffff16021790555060e08201518160050160006101000a8154816fffffffffffffffffffffffffffffffff02191690836fffffffffffffffffffffffffffffffff1602179055506101008201518160050160106101000a81548160ff021916908360048111156128ef577f4e487b7100000000000000000000000000000000000000000000000000000000600052602160045260246000fd5b02179055509050507f69fc7e7edd4865b1a05c051b8bf5b0d588983f0969141c15a5dcea05d5324b1b816000015160405161292a9190613139565b60405180910390a160008160c0015173ffffffffffffffffffffffffffffffffffffffff1682604001516fffffffffffffffffffffffffffffffff1660405161297290612f42565b60006040518083038185875af1925050503d80600081146129af576040519150601f19603f3d011682016040523d82523d6000602084013e6129b4565b606091505b50509050806129f8576040517f08c379a00000000000000000000000000000000000000000000000000000000081526004016129ef90613019565b60405180910390fd5b5050565b6001816000016000828254019250508190555050565b600081600001549050919050565b600081359050612a2f81613543565b92915050565b600081359050612a448161355a565b92915050565b600081359050612a5981613571565b92915050565b600060208284031215612a7157600080fd5b6000612a7f84828501612a20565b91505092915050565b600060208284031215612a9a57600080fd5b6000612aa884828501612a35565b91505092915050565b600060208284031215612ac357600080fd5b6000612ad184828501612a4a565b91505092915050565b60008060408385031215612aed57600080fd5b6000612afb85828601612a4a565b9250506020612b0c85828601612a35565b9150509250929050565b6000612b228383612eb1565b60808301905092915050565b612b37816133b3565b82525050565b612b46816133b3565b82525050565b6000612b578261321a565b612b618185613232565b9350612b6c8361320a565b8060005b83811015612b9d578151612b848882612b16565b9750612b8f83613225565b925050600181019050612b70565b5085935050505092915050565b612bb3816133c5565b82525050565b612bc2816133c5565b82525050565b612bd181613447565b82525050565b6000612be460158361324e565b91507f556e6578706374656420416d6f756e74205061696400000000000000000000006000830152602082019050919050565b6000612c2460138361324e565b91507f4c6f616e20416c72656164792046756e646564000000000000000000000000006000830152602082019050919050565b6000612c6460148361324e565b91507f4661696c656420546f2053656e642045746865720000000000000000000000006000830152602082019050919050565b6000612ca4600e8361324e565b91507f4c6f616e206e6f7420666f756e640000000000000000000000000000000000006000830152602082019050919050565b6000612ce4600e8361324e565b91507f4c6f616e204e6f7420466f756e640000000000000000000000000000000000006000830152602082019050919050565b6000612d24600b8361324e565b91507f4c6f616e204578697374730000000000000000000000000000000000000000006000830152602082019050919050565b6000612d64601a8361324e565b91507f446966666572656e742052657061796d656e7420416d6f756e740000000000006000830152602082019050919050565b6000612da4600e8361324e565b91507f4e6f204c6f616e20416d6f756e740000000000000000000000000000000000006000830152602082019050919050565b6000612de460138361324e565b91507f4e6f2052657061796d656e7420416d6f756e74000000000000000000000000006000830152602082019050919050565b6000612e24600083613243565b9150600082019050919050565b6000612e3e60168361324e565b91507f496e76616c6964204465706f73697420416d6f756e74000000000000000000006000830152602082019050919050565b6000612e7e60198361324e565b91507f556e6578706563746564204465706f73697420416d6f756e74000000000000006000830152602082019050919050565b608082016000820151612ec76000850182612b2e565b506020820151612eda6020850182612f06565b506040820151612eed6040850182612baa565b506060820151612f006060850182612f06565b50505050565b612f0f816133e4565b82525050565b612f1e816133e4565b82525050565b612f2d81613400565b82525050565b612f3c8161343d565b82525050565b6000612f4d82612e17565b9150819050919050565b6000602082019050612f6c6000830184612b3d565b92915050565b6000608082019050612f876000830187612b3d565b612f946020830186612f15565b612fa16040830185612bb9565b612fae6060830184612f15565b95945050505050565b60006020820190508181036000830152612fd18184612b4c565b905092915050565b60006020820190508181036000830152612ff281612bd7565b9050919050565b6000602082019050818103600083015261301281612c17565b9050919050565b6000602082019050818103600083015261303281612c57565b9050919050565b6000602082019050818103600083015261305281612c97565b9050919050565b6000602082019050818103600083015261307281612cd7565b9050919050565b6000602082019050818103600083015261309281612d17565b9050919050565b600060208201905081810360008301526130b281612d57565b9050919050565b600060208201905081810360008301526130d281612d97565b9050919050565b600060208201905081810360008301526130f281612dd7565b9050919050565b6000602082019050818103600083015261311281612e31565b9050919050565b6000602082019050818103600083015261313281612e71565b9050919050565b600060208201905061314e6000830184612f33565b92915050565b60006040820190506131696000830185612f33565b6131766020830184612b3d565b9392505050565b600061012082019050613193600083018c612f33565b6131a0602083018b612f33565b6131ad604083018a612f15565b6131ba6060830189612f15565b6131c76080830188612f15565b6131d460a0830187612f24565b6131e160c0830186612b3d565b6131ee60e0830185612f15565b6131fc610100830184612bc8565b9a9950505050505050505050565b6000819050602082019050919050565b600081519050919050565b6000602082019050919050565b600082825260208201905092915050565b600081905092915050565b600082825260208201905092915050565b600061326a826133e4565b9150613275836133e4565b9250826fffffffffffffffffffffffffffffffff0382111561329a576132996134a2565b5b828201905092915050565b60006132b08261343d565b91506132bb8361343d565b9250827fffffffffffffffffffffffffffffffffffffffffffffffffffffffffffffffff038211156132f0576132ef6134a2565b5b828201905092915050565b6000613306826133e4565b9150613311836133e4565b925082613321576133206134d1565b5b828204905092915050565b6000613337826133e4565b9150613342836133e4565b9250816fffffffffffffffffffffffffffffffff048311821515161561336b5761336a6134a2565b5b828202905092915050565b60006133818261342e565b915061338c8361342e565b92508162ffffff04831182151516156133a8576133a76134a2565b5b828202905092915050565b60006133be8261340e565b9050919050565b60008115159050919050565b60008190506133df8261352f565b919050565b60006fffffffffffffffffffffffffffffffff82169050919050565b600061ffff82169050919050565b600073ffffffffffffffffffffffffffffffffffffffff82169050919050565b600062ffffff82169050919050565b6000819050919050565b6000613452826133d1565b9050919050565b60006134648261343d565b91507fffffffffffffffffffffffffffffffffffffffffffffffffffffffffffffffff821415613497576134966134a2565b5b600182019050919050565b7f4e487b7100000000000000000000000000000000000000000000000000000000600052601160045260246000fd5b7f4e487b7100000000000000000000000000000000000000000000000000000000600052601260045260246000fd5b7f4e487b7100000000000000000000000000000000000000000000000000000000600052602160045260246000fd5b600581106135405761353f613500565b5b50565b61354c816133b3565b811461355757600080fd5b50565b613563816133e4565b811461356e57600080fd5b50565b61357a8161343d565b811461358557600080fd5b5056fea264697066735822122063cf93108faed68e761cfc219bc3e75efc56cd6dd563878a37f556612d65989164736f6c63430008000033",
  "linkReferences": {},
  "deployedLinkReferences": {}
}