{
  "_format": "hh-sol-artifact-1",
  "contractName": "SocialLending",
  "sourceName": "contracts/SocialLending.sol",
  "abi": [
    {
      "inputs": [],
      "stateMutability": "nonpayable",
      "type": "constructor"
    },
    {
      "anonymous": false,
      "inputs": [
        {
          "indexed": false,
          "internalType": "uint256",
          "name": "loanID",
          "type": "uint256"
        },
        {
          "indexed": false,
          "internalType": "address",
          "name": "lenderAddress",
          "type": "address"
        }
      ],
      "name": "LenderDeposit",
      "type": "event"
    },
    {
      "anonymous": false,
      "inputs": [
        {
          "indexed": false,
          "internalType": "uint256",
          "name": "loanID",
          "type": "uint256"
        }
      ],
      "name": "LoanNeedsRepayment",
      "type": "event"
    },
    {
      "anonymous": false,
      "inputs": [
        {
          "indexed": false,
          "internalType": "uint256",
          "name": "loanID",
          "type": "uint256"
        }
      ],
      "name": "LoanRepaid",
      "type": "event"
    },
    {
      "anonymous": false,
      "inputs": [
        {
          "indexed": false,
          "internalType": "uint256",
          "name": "loanID",
          "type": "uint256"
        }
      ],
      "name": "LoanRequested",
      "type": "event"
    },
    {
      "inputs": [
        {
          "internalType": "uint128",
          "name": "_loanAmount",
          "type": "uint128"
        }
      ],
      "name": "createLoan",
      "outputs": [
        {
          "internalType": "uint256",
          "name": "loanID",
          "type": "uint256"
        }
      ],
      "stateMutability": "nonpayable",
      "type": "function"
    },
    {
      "inputs": [],
      "name": "createUniqueLoanLink",
      "outputs": [],
      "stateMutability": "nonpayable",
      "type": "function"
    },
    {
      "inputs": [
        {
          "internalType": "uint256",
          "name": "_loanID",
          "type": "uint256"
        },
        {
          "internalType": "uint128",
          "name": "_depositAmount",
          "type": "uint128"
        }
      ],
      "name": "depositToLoan",
      "outputs": [],
      "stateMutability": "payable",
      "type": "function"
    },
    {
      "inputs": [
        {
          "internalType": "address",
          "name": "_borrowerAddress",
          "type": "address"
        }
      ],
      "name": "getBorrowersLoanID",
      "outputs": [
        {
          "internalType": "uint256",
          "name": "",
          "type": "uint256"
        }
      ],
      "stateMutability": "view",
      "type": "function"
    },
    {
      "inputs": [
        {
          "internalType": "uint256",
          "name": "_loanID",
          "type": "uint256"
        }
      ],
      "name": "getLendersFromLoanID",
      "outputs": [
        {
          "components": [
            {
              "internalType": "address",
              "name": "lenderAddress",
              "type": "address"
            },
            {
              "internalType": "uint128",
              "name": "depositAmount",
              "type": "uint128"
            },
            {
              "internalType": "bool",
              "name": "isRepaid",
              "type": "bool"
            },
            {
              "internalType": "uint128",
              "name": "amountToRepay",
              "type": "uint128"
            }
          ],
          "internalType": "struct SocialLending.Lender[]",
          "name": "",
          "type": "tuple[]"
        }
      ],
      "stateMutability": "view",
      "type": "function"
    },
    {
      "inputs": [
        {
          "internalType": "uint256",
          "name": "_loanID",
          "type": "uint256"
        }
      ],
      "name": "getLoanDetailsFromLoanID",
      "outputs": [
        {
          "components": [
            {
              "internalType": "uint256",
              "name": "loanID",
              "type": "uint256"
            },
            {
              "internalType": "uint256",
              "name": "tenor",
              "type": "uint256"
            },
            {
              "internalType": "uint128",
              "name": "loanAmount",
              "type": "uint128"
            },
            {
              "internalType": "uint128",
              "name": "amountDeposited",
              "type": "uint128"
            },
            {
              "internalType": "uint128",
              "name": "amountRepaid",
              "type": "uint128"
            },
            {
              "internalType": "uint128",
              "name": "interestRate",
              "type": "uint128"
            },
            {
              "internalType": "address",
              "name": "borrowerAddress",
              "type": "address"
            },
            {
              "internalType": "uint128",
              "name": "loanAmountWithInterest",
              "type": "uint128"
            },
            {
              "internalType": "enum SocialLending.LoanStatus",
              "name": "loanStatus",
              "type": "uint8"
            }
          ],
          "internalType": "struct SocialLending.LoanDetail",
          "name": "",
          "type": "tuple"
        }
      ],
      "stateMutability": "view",
      "type": "function"
    },
    {
      "inputs": [
        {
          "internalType": "address",
          "name": "_borrowerAddress",
          "type": "address"
        }
      ],
      "name": "getPreviousLoanCount",
      "outputs": [
        {
          "internalType": "uint256",
          "name": "",
          "type": "uint256"
        }
      ],
      "stateMutability": "view",
      "type": "function"
    },
    {
      "inputs": [],
      "name": "loanIDCounter",
      "outputs": [
        {
          "internalType": "uint256",
          "name": "_value",
          "type": "uint256"
        }
      ],
      "stateMutability": "view",
      "type": "function"
    },
    {
      "inputs": [],
      "name": "owner",
      "outputs": [
        {
          "internalType": "address",
          "name": "",
          "type": "address"
        }
      ],
      "stateMutability": "view",
      "type": "function"
    },
    {
      "inputs": [
        {
          "internalType": "uint256",
          "name": "_loanID",
          "type": "uint256"
        }
      ],
      "name": "payoutDepositsWithInterest",
      "outputs": [],
      "stateMutability": "payable",
      "type": "function"
    },
    {
      "inputs": [
        {
          "internalType": "uint256",
          "name": "_loanID",
          "type": "uint256"
        },
        {
          "internalType": "uint128",
          "name": "_repaymentAmount",
          "type": "uint128"
        }
      ],
      "name": "repayLoan",
      "outputs": [],
      "stateMutability": "payable",
      "type": "function"
    },
    {
      "inputs": [],
      "name": "requestLoan",
      "outputs": [],
      "stateMutability": "nonpayable",
      "type": "function"
    }
  ],
  "bytecode": "0x60806040526102bc600160006101000a8154816fffffffffffffffffffffffffffffffff02191690836fffffffffffffffffffffffffffffffff160217905550605a600160106101000a81548160ff021916908360ff16021790555034801561006757600080fd5b50336000806101000a81548173ffffffffffffffffffffffffffffffffffffffff021916908373ffffffffffffffffffffffffffffffffffffffff160217905550613ad5806100b76000396000f3fe6080604052600436106100c25760003560e01c80633d267e821161007f5780636fb4eb3d116100595780636fb4eb3d146102725780638da5cb5b14610289578063bcdfe0d5146102b4578063ea1e55c8146102df576100c2565b80633d267e82146101cd578063513484541461020a5780635edc331914610235576100c2565b80630126fb10146100c75780630254b24e146100e3578063106352a0146100ff578063257965f51461013c5780632fa6c0f61461015357806339a6bffc14610190575b600080fd5b6100e160048036038101906100dc9190612e12565b6102fb565b005b6100fd60048036038101906100f89190612e12565b610e6a565b005b34801561010b57600080fd5b5061012660048036038101906101219190612d97565b6118ec565b604051610133919061369c565b60405180910390f35b34801561014857600080fd5b50610151611935565b005b34801561015f57600080fd5b5061017a60048036038101906101759190612dc0565b611937565b604051610187919061369c565b60405180910390f35b34801561019c57600080fd5b506101b760048036038101906101b29190612d97565b611e66565b6040516101c4919061369c565b60405180910390f35b3480156101d957600080fd5b506101f460048036038101906101ef9190612de9565b611eb2565b6040516102019190613680565b60405180910390f35b34801561021657600080fd5b5061021f612143565b60405161022c919061369c565b60405180910390f35b34801561024157600080fd5b5061025c60048036038101906102579190612de9565b61214f565b60405161026991906134ac565b60405180910390f35b34801561027e57600080fd5b506102876122c6565b005b34801561029557600080fd5b5061029e6122c8565b6040516102ab9190613491565b60405180910390f35b3480156102c057600080fd5b506102c96122ec565b6040516102d691906134ce565b60405180910390f35b6102f960048036038101906102f49190612de9565b612329565b005b806fffffffffffffffffffffffffffffffff16341461034f576040517f08c379a0000000000000000000000000000000000000000000000000000000008152600401610346906135e0565b60405180910390fd5b6000816fffffffffffffffffffffffffffffffff16116103a4576040517f08c379a000000000000000000000000000000000000000000000000000000000815260040161039b906135c0565b60405180910390fd5b6000600360008481526020019081526020016000206040518061012001604052908160008201548152602001600182015481526020016002820160009054906101000a90046fffffffffffffffffffffffffffffffff166fffffffffffffffffffffffffffffffff166fffffffffffffffffffffffffffffffff1681526020016002820160109054906101000a90046fffffffffffffffffffffffffffffffff166fffffffffffffffffffffffffffffffff166fffffffffffffffffffffffffffffffff1681526020016003820160009054906101000a90046fffffffffffffffffffffffffffffffff166fffffffffffffffffffffffffffffffff166fffffffffffffffffffffffffffffffff1681526020016003820160109054906101000a90046fffffffffffffffffffffffffffffffff166fffffffffffffffffffffffffffffffff166fffffffffffffffffffffffffffffffff1681526020016004820160009054906101000a900473ffffffffffffffffffffffffffffffffffffffff1673ffffffffffffffffffffffffffffffffffffffff1673ffffffffffffffffffffffffffffffffffffffff1681526020016005820160009054906101000a90046fffffffffffffffffffffffffffffffff166fffffffffffffffffffffffffffffffff166fffffffffffffffffffffffffffffffff1681526020016005820160109054906101000a900460ff1660048111156105ec577f4e487b7100000000000000000000000000000000000000000000000000000000600052602160045260246000fd5b6004811115610624577f4e487b7100000000000000000000000000000000000000000000000000000000600052602160045260246000fd5b8152505090506000816000015111610671576040517f08c379a000000000000000000000000000000000000000000000000000000000815260040161066890613660565b60405180910390fd5b81816080018181516106839190613740565b9150906fffffffffffffffffffffffffffffffff1690816fffffffffffffffffffffffffffffffff168152505080608001516fffffffffffffffffffffffffffffffff168160e001516fffffffffffffffffffffffffffffffff1611156109f557604051806101200160405280826000015181526020018260200151815260200182604001516fffffffffffffffffffffffffffffffff16815260200182606001516fffffffffffffffffffffffffffffffff16815260200182608001516fffffffffffffffffffffffffffffffff1681526020018260a001516fffffffffffffffffffffffffffffffff1681526020018260c0015173ffffffffffffffffffffffffffffffffffffffff1681526020018260e001516fffffffffffffffffffffffffffffffff168152602001600260048111156107ea577f4e487b7100000000000000000000000000000000000000000000000000000000600052602160045260246000fd5b81525060036000858152602001908152602001600020600082015181600001556020820151816001015560408201518160020160006101000a8154816fffffffffffffffffffffffffffffffff02191690836fffffffffffffffffffffffffffffffff16021790555060608201518160020160106101000a8154816fffffffffffffffffffffffffffffffff02191690836fffffffffffffffffffffffffffffffff16021790555060808201518160030160006101000a8154816fffffffffffffffffffffffffffffffff02191690836fffffffffffffffffffffffffffffffff16021790555060a08201518160030160106101000a8154816fffffffffffffffffffffffffffffffff02191690836fffffffffffffffffffffffffffffffff16021790555060c08201518160040160006101000a81548173ffffffffffffffffffffffffffffffffffffffff021916908373ffffffffffffffffffffffffffffffffffffffff16021790555060e08201518160050160006101000a8154816fffffffffffffffffffffffffffffffff02191690836fffffffffffffffffffffffffffffffff1602179055506101008201518160050160106101000a81548160ff021916908360048111156109e8577f4e487b7100000000000000000000000000000000000000000000000000000000600052602160045260246000fd5b0217905550905050610e65565b80608001516fffffffffffffffffffffffffffffffff168160e001516fffffffffffffffffffffffffffffffff1610610e2957604051806101200160405280826000015181526020018260200151815260200182604001516fffffffffffffffffffffffffffffffff16815260200182606001516fffffffffffffffffffffffffffffffff16815260200182608001516fffffffffffffffffffffffffffffffff1681526020018260a001516fffffffffffffffffffffffffffffffff1681526020018260c0015173ffffffffffffffffffffffffffffffffffffffff1681526020018260e001516fffffffffffffffffffffffffffffffff16815260200160036004811115610b2e577f4e487b7100000000000000000000000000000000000000000000000000000000600052602160045260246000fd5b81525060036000858152602001908152602001600020600082015181600001556020820151816001015560408201518160020160006101000a8154816fffffffffffffffffffffffffffffffff02191690836fffffffffffffffffffffffffffffffff16021790555060608201518160020160106101000a8154816fffffffffffffffffffffffffffffffff02191690836fffffffffffffffffffffffffffffffff16021790555060808201518160030160006101000a8154816fffffffffffffffffffffffffffffffff02191690836fffffffffffffffffffffffffffffffff16021790555060a08201518160030160106101000a8154816fffffffffffffffffffffffffffffffff02191690836fffffffffffffffffffffffffffffffff16021790555060c08201518160040160006101000a81548173ffffffffffffffffffffffffffffffffffffffff021916908373ffffffffffffffffffffffffffffffffffffffff16021790555060e08201518160050160006101000a8154816fffffffffffffffffffffffffffffffff02191690836fffffffffffffffffffffffffffffffff1602179055506101008201518160050160106101000a81548160ff02191690836004811115610d2c577f4e487b7100000000000000000000000000000000000000000000000000000000600052602160045260246000fd5b0217905550905050600560008260c0015173ffffffffffffffffffffffffffffffffffffffff1673ffffffffffffffffffffffffffffffffffffffff16815260200190815260200160002081600001519080600181540180825580915050600190039060005260206000200160009091909190915055600260008260c0015173ffffffffffffffffffffffffffffffffffffffff1673ffffffffffffffffffffffffffffffffffffffff168152602001908152602001600020600090557f9a7851747cd7ffb3fe0a32caf3da48b31f27cebe131267051640f8b72fc471868160000151604051610e1c919061369c565b60405180910390a1610e64565b6040517f08c379a0000000000000000000000000000000000000000000000000000000008152600401610e5b90613560565b60405180910390fd5b5b505050565b806fffffffffffffffffffffffffffffffff163414610ebe576040517f08c379a0000000000000000000000000000000000000000000000000000000008152600401610eb590613620565b60405180910390fd5b6000816fffffffffffffffffffffffffffffffff1611610f13576040517f08c379a0000000000000000000000000000000000000000000000000000000008152600401610f0a906135a0565b60405180910390fd5b6000600360008481526020019081526020016000206040518061012001604052908160008201548152602001600182015481526020016002820160009054906101000a90046fffffffffffffffffffffffffffffffff166fffffffffffffffffffffffffffffffff166fffffffffffffffffffffffffffffffff1681526020016002820160109054906101000a90046fffffffffffffffffffffffffffffffff166fffffffffffffffffffffffffffffffff166fffffffffffffffffffffffffffffffff1681526020016003820160009054906101000a90046fffffffffffffffffffffffffffffffff166fffffffffffffffffffffffffffffffff166fffffffffffffffffffffffffffffffff1681526020016003820160109054906101000a90046fffffffffffffffffffffffffffffffff166fffffffffffffffffffffffffffffffff166fffffffffffffffffffffffffffffffff1681526020016004820160009054906101000a900473ffffffffffffffffffffffffffffffffffffffff1673ffffffffffffffffffffffffffffffffffffffff1673ffffffffffffffffffffffffffffffffffffffff1681526020016005820160009054906101000a90046fffffffffffffffffffffffffffffffff166fffffffffffffffffffffffffffffffff166fffffffffffffffffffffffffffffffff1681526020016005820160109054906101000a900460ff16600481111561115b577f4e487b7100000000000000000000000000000000000000000000000000000000600052602160045260246000fd5b6004811115611193577f4e487b7100000000000000000000000000000000000000000000000000000000600052602160045260246000fd5b81525050905060008160000151116111e0576040517f08c379a00000000000000000000000000000000000000000000000000000000081526004016111d790613660565b60405180910390fd5b6000600481111561121a577f4e487b7100000000000000000000000000000000000000000000000000000000600052602160045260246000fd5b8161010001516004811115611258577f4e487b7100000000000000000000000000000000000000000000000000000000600052602160045260246000fd5b14806112d9575060016004811115611299577f4e487b7100000000000000000000000000000000000000000000000000000000600052602160045260246000fd5b81610100015160048111156112d7577f4e487b7100000000000000000000000000000000000000000000000000000000600052602160045260246000fd5b145b611318576040517f08c379a000000000000000000000000000000000000000000000000000000000815260040161130f90613520565b60405180910390fd5b818160600181815161132a9190613740565b9150906fffffffffffffffffffffffffffffffff1690816fffffffffffffffffffffffffffffffff1681525050600460008260000151815260200190815260200160002060405180608001604052803373ffffffffffffffffffffffffffffffffffffffff168152602001846fffffffffffffffffffffffffffffffff1681526020016000151581526020016113bf856126ef565b6fffffffffffffffffffffffffffffffff16815250908060018154018082558091505060019003906000526020600020906003020160009091909190915060008201518160000160006101000a81548173ffffffffffffffffffffffffffffffffffffffff021916908373ffffffffffffffffffffffffffffffffffffffff16021790555060208201518160010160006101000a8154816fffffffffffffffffffffffffffffffff02191690836fffffffffffffffffffffffffffffffff16021790555060408201518160010160106101000a81548160ff02191690831515021790555060608201518160020160006101000a8154816fffffffffffffffffffffffffffffffff02191690836fffffffffffffffffffffffffffffffff160217905550505080606001516fffffffffffffffffffffffffffffffff1681604001516fffffffffffffffffffffffffffffffff16111561182d57604051806101200160405280826000015181526020018260200151815260200182604001516fffffffffffffffffffffffffffffffff16815260200182606001516fffffffffffffffffffffffffffffffff16815260200182608001516fffffffffffffffffffffffffffffffff1681526020018260a001516fffffffffffffffffffffffffffffffff1681526020018260c0015173ffffffffffffffffffffffffffffffffffffffff1681526020018260e001516fffffffffffffffffffffffffffffffff1681526020016001600481111561161e577f4e487b7100000000000000000000000000000000000000000000000000000000600052602160045260246000fd5b8152506003600083600001518152602001908152602001600020600082015181600001556020820151816001015560408201518160020160006101000a8154816fffffffffffffffffffffffffffffffff02191690836fffffffffffffffffffffffffffffffff16021790555060608201518160020160106101000a8154816fffffffffffffffffffffffffffffffff02191690836fffffffffffffffffffffffffffffffff16021790555060808201518160030160006101000a8154816fffffffffffffffffffffffffffffffff02191690836fffffffffffffffffffffffffffffffff16021790555060a08201518160030160106101000a8154816fffffffffffffffffffffffffffffffff02191690836fffffffffffffffffffffffffffffffff16021790555060c08201518160040160006101000a81548173ffffffffffffffffffffffffffffffffffffffff021916908373ffffffffffffffffffffffffffffffffffffffff16021790555060e08201518160050160006101000a8154816fffffffffffffffffffffffffffffffff02191690836fffffffffffffffffffffffffffffffff1602179055506101008201518160050160106101000a81548160ff02191690836004811115611820577f4e487b7100000000000000000000000000000000000000000000000000000000600052602160045260246000fd5b02179055509050506118aa565b80604001516fffffffffffffffffffffffffffffffff1681606001516fffffffffffffffffffffffffffffffff161061186e576118698161273a565b6118a9565b6040517f08c379a00000000000000000000000000000000000000000000000000000000081526004016118a090613640565b60405180910390fd5b5b7f2b9861ebbeabab8ef193be0c040da5974e1f55400eec042a33563c742ef70ea08160000151336040516118df9291906136b7565b60405180910390a1505050565b6000600260008373ffffffffffffffffffffffffffffffffffffffff1673ffffffffffffffffffffffffffffffffffffffff168152602001908152602001600020549050919050565b565b600061198a6040518060400160405280600d81526020017f6c6f616e20616d6f756e743a2000000000000000000000000000000000000000815250836fffffffffffffffffffffffffffffffff16612b7b565b6000826fffffffffffffffffffffffffffffffff16116119df576040517f08c379a00000000000000000000000000000000000000000000000000000000081526004016119d690613600565b60405180910390fd5b6000600260003373ffffffffffffffffffffffffffffffffffffffff1673ffffffffffffffffffffffffffffffffffffffff16815260200190815260200160002054905060008114611a66576040517f08c379a0000000000000000000000000000000000000000000000000000000008152600401611a5d90613540565b60405180910390fd5b611a706006612c17565b6000611a7c6006612c2d565b9050600060405180610120016040528083815260200160008152602001866fffffffffffffffffffffffffffffffff16815260200160006fffffffffffffffffffffffffffffffff16815260200160006fffffffffffffffffffffffffffffffff168152602001600160009054906101000a90046fffffffffffffffffffffffffffffffff166fffffffffffffffffffffffffffffffff1681526020013373ffffffffffffffffffffffffffffffffffffffff168152602001611b3e876126ef565b6fffffffffffffffffffffffffffffffff16815260200160006004811115611b8f577f4e487b7100000000000000000000000000000000000000000000000000000000600052602160045260246000fd5b8152509050806003600083600001518152602001908152602001600020600082015181600001556020820151816001015560408201518160020160006101000a8154816fffffffffffffffffffffffffffffffff02191690836fffffffffffffffffffffffffffffffff16021790555060608201518160020160106101000a8154816fffffffffffffffffffffffffffffffff02191690836fffffffffffffffffffffffffffffffff16021790555060808201518160030160006101000a8154816fffffffffffffffffffffffffffffffff02191690836fffffffffffffffffffffffffffffffff16021790555060a08201518160030160106101000a8154816fffffffffffffffffffffffffffffffff02191690836fffffffffffffffffffffffffffffffff16021790555060c08201518160040160006101000a81548173ffffffffffffffffffffffffffffffffffffffff021916908373ffffffffffffffffffffffffffffffffffffffff16021790555060e08201518160050160006101000a8154816fffffffffffffffffffffffffffffffff02191690836fffffffffffffffffffffffffffffffff1602179055506101008201518160050160106101000a81548160ff02191690836004811115611d94577f4e487b7100000000000000000000000000000000000000000000000000000000600052602160045260246000fd5b02179055509050508060000151600260003373ffffffffffffffffffffffffffffffffffffffff1673ffffffffffffffffffffffffffffffffffffffff168152602001908152602001600020819055507f3aaf3cfb4a0b578d6f38e521e750d0d70b9da5f05aa80dc67d0f251c954725af8160000151604051611e17919061369c565b60405180910390a1611e5e6040518060400160405280600981526020017f6c6f616e2069643a20000000000000000000000000000000000000000000000081525085612b7b565b505050919050565b6000600560008373ffffffffffffffffffffffffffffffffffffffff1673ffffffffffffffffffffffffffffffffffffffff168152602001908152602001600020805490509050919050565b611eba612c64565b600360008381526020019081526020016000206040518061012001604052908160008201548152602001600182015481526020016002820160009054906101000a90046fffffffffffffffffffffffffffffffff166fffffffffffffffffffffffffffffffff166fffffffffffffffffffffffffffffffff1681526020016002820160109054906101000a90046fffffffffffffffffffffffffffffffff166fffffffffffffffffffffffffffffffff166fffffffffffffffffffffffffffffffff1681526020016003820160009054906101000a90046fffffffffffffffffffffffffffffffff166fffffffffffffffffffffffffffffffff166fffffffffffffffffffffffffffffffff1681526020016003820160109054906101000a90046fffffffffffffffffffffffffffffffff166fffffffffffffffffffffffffffffffff166fffffffffffffffffffffffffffffffff1681526020016004820160009054906101000a900473ffffffffffffffffffffffffffffffffffffffff1673ffffffffffffffffffffffffffffffffffffffff1673ffffffffffffffffffffffffffffffffffffffff1681526020016005820160009054906101000a90046fffffffffffffffffffffffffffffffff166fffffffffffffffffffffffffffffffff166fffffffffffffffffffffffffffffffff1681526020016005820160109054906101000a900460ff166004811115612100577f4e487b7100000000000000000000000000000000000000000000000000000000600052602160045260246000fd5b6004811115612138577f4e487b7100000000000000000000000000000000000000000000000000000000600052602160045260246000fd5b815250509050919050565b60068060000154905081565b606060046000838152602001908152602001600020805480602002602001604051908101604052809291908181526020016000905b828210156122bb57838290600052602060002090600302016040518060800160405290816000820160009054906101000a900473ffffffffffffffffffffffffffffffffffffffff1673ffffffffffffffffffffffffffffffffffffffff1673ffffffffffffffffffffffffffffffffffffffff1681526020016001820160009054906101000a90046fffffffffffffffffffffffffffffffff166fffffffffffffffffffffffffffffffff166fffffffffffffffffffffffffffffffff1681526020016001820160109054906101000a900460ff161515151581526020016002820160009054906101000a90046fffffffffffffffffffffffffffffffff166fffffffffffffffffffffffffffffffff166fffffffffffffffffffffffffffffffff168152505081526020019060010190612184565b505050509050919050565b565b60008054906101000a900473ffffffffffffffffffffffffffffffffffffffff1681565b60606040518060400160405280600681526020017f48656c6c6f210000000000000000000000000000000000000000000000000000815250905090565b60005b60046000838152602001908152602001600020805490508110156126eb576000600460008481526020019081526020016000208281548110612397577f4e487b7100000000000000000000000000000000000000000000000000000000600052603260045260246000fd5b90600052602060002090600302016040518060800160405290816000820160009054906101000a900473ffffffffffffffffffffffffffffffffffffffff1673ffffffffffffffffffffffffffffffffffffffff1673ffffffffffffffffffffffffffffffffffffffff1681526020016001820160009054906101000a90046fffffffffffffffffffffffffffffffff166fffffffffffffffffffffffffffffffff166fffffffffffffffffffffffffffffffff1681526020016001820160109054906101000a900460ff161515151581526020016002820160009054906101000a90046fffffffffffffffffffffffffffffffff166fffffffffffffffffffffffffffffffff166fffffffffffffffffffffffffffffffff1681525050905080604001516126d75760003373ffffffffffffffffffffffffffffffffffffffff1682606001516fffffffffffffffffffffffffffffffff166040516124fc9061347c565b60006040518083038185875af1925050503d8060008114612539576040519150601f19603f3d011682016040523d82523d6000602084013e61253e565b606091505b5050905080612582576040517f08c379a000000000000000000000000000000000000000000000000000000000815260040161257990613580565b60405180910390fd5b6001826040019015159081151581525050816004600086815260200190815260200160002084815481106125df577f4e487b7100000000000000000000000000000000000000000000000000000000600052603260045260246000fd5b906000526020600020906003020160008201518160000160006101000a81548173ffffffffffffffffffffffffffffffffffffffff021916908373ffffffffffffffffffffffffffffffffffffffff16021790555060208201518160010160006101000a8154816fffffffffffffffffffffffffffffffff02191690836fffffffffffffffffffffffffffffffff16021790555060408201518160010160106101000a81548160ff02191690831515021790555060608201518160020160006101000a8154816fffffffffffffffffffffffffffffffff02191690836fffffffffffffffffffffffffffffffff160217905550905050505b5080806126e39061395f565b91505061232c565b5050565b600081612710600160009054906101000a90046fffffffffffffffffffffffffffffffff168461271f919061380d565b61272991906137dc565b6127339190613740565b9050919050565b60008160c0015173ffffffffffffffffffffffffffffffffffffffff1682604001516fffffffffffffffffffffffffffffffff1660405161277a9061347c565b60006040518083038185875af1925050503d80600081146127b7576040519150601f19603f3d011682016040523d82523d6000602084013e6127bc565b606091505b5050905080612800576040517f08c379a00000000000000000000000000000000000000000000000000000000081526004016127f790613580565b60405180910390fd5b6040518061012001604052808360000151815260200162015180600160109054906101000a900460ff1660ff166128379190613857565b62ffffff16426128479190613786565b815260200183604001516fffffffffffffffffffffffffffffffff16815260200183606001516fffffffffffffffffffffffffffffffff16815260200183608001516fffffffffffffffffffffffffffffffff1681526020018360a001516fffffffffffffffffffffffffffffffff1681526020018360c0015173ffffffffffffffffffffffffffffffffffffffff1681526020018360e001516fffffffffffffffffffffffffffffffff16815260200160026004811115612932577f4e487b7100000000000000000000000000000000000000000000000000000000600052602160045260246000fd5b8152506003600084600001518152602001908152602001600020600082015181600001556020820151816001015560408201518160020160006101000a8154816fffffffffffffffffffffffffffffffff02191690836fffffffffffffffffffffffffffffffff16021790555060608201518160020160106101000a8154816fffffffffffffffffffffffffffffffff02191690836fffffffffffffffffffffffffffffffff16021790555060808201518160030160006101000a8154816fffffffffffffffffffffffffffffffff02191690836fffffffffffffffffffffffffffffffff16021790555060a08201518160030160106101000a8154816fffffffffffffffffffffffffffffffff02191690836fffffffffffffffffffffffffffffffff16021790555060c08201518160040160006101000a81548173ffffffffffffffffffffffffffffffffffffffff021916908373ffffffffffffffffffffffffffffffffffffffff16021790555060e08201518160050160006101000a8154816fffffffffffffffffffffffffffffffff02191690836fffffffffffffffffffffffffffffffff1602179055506101008201518160050160106101000a81548160ff02191690836004811115612b34577f4e487b7100000000000000000000000000000000000000000000000000000000600052602160045260246000fd5b02179055509050507f69fc7e7edd4865b1a05c051b8bf5b0d588983f0969141c15a5dcea05d5324b1b8260000151604051612b6f919061369c565b60405180910390a15050565b612c138282604051602401612b919291906134f0565b6040516020818303038152906040527f9710a9d0000000000000000000000000000000000000000000000000000000007bffffffffffffffffffffffffffffffffffffffffffffffffffffffff19166020820180517bffffffffffffffffffffffffffffffffffffffffffffffffffffffff8381831617835250505050612c3b565b5050565b6001816000016000828254019250508190555050565b600081600001549050919050565b60008151905060006a636f6e736f6c652e6c6f679050602083016000808483855afa5050505050565b604051806101200160405280600081526020016000815260200160006fffffffffffffffffffffffffffffffff16815260200160006fffffffffffffffffffffffffffffffff16815260200160006fffffffffffffffffffffffffffffffff16815260200160006fffffffffffffffffffffffffffffffff168152602001600073ffffffffffffffffffffffffffffffffffffffff16815260200160006fffffffffffffffffffffffffffffffff16815260200160006004811115612d52577f4e487b7100000000000000000000000000000000000000000000000000000000600052602160045260246000fd5b81525090565b600081359050612d6781613a5a565b92915050565b600081359050612d7c81613a71565b92915050565b600081359050612d9181613a88565b92915050565b600060208284031215612da957600080fd5b6000612db784828501612d58565b91505092915050565b600060208284031215612dd257600080fd5b6000612de084828501612d6d565b91505092915050565b600060208284031215612dfb57600080fd5b6000612e0984828501612d82565b91505092915050565b60008060408385031215612e2557600080fd5b6000612e3385828601612d82565b9250506020612e4485828601612d6d565b9150509250929050565b6000612e5a8383613343565b60808301905092915050565b612e6f81613894565b82525050565b612e7e81613894565b82525050565b6000612e8f826136f0565b612e998185613713565b9350612ea4836136e0565b8060005b83811015612ed5578151612ebc8882612e4e565b9750612ec783613706565b925050600181019050612ea8565b5085935050505092915050565b612eeb816138a6565b82525050565b612efa8161391a565b82525050565b6000612f0b826136fb565b612f15818561372f565b9350612f2581856020860161392c565b612f2e81613a35565b840191505092915050565b6000612f46601d8361372f565b91507f4c6f616e2068617320616c7265616479206265656e2066756e6465642e0000006000830152602082019050919050565b6000612f8660218361372f565b91507f4c6f616e20616c72656164792065786973747320666f7220626f72726f77657260008301527f2e000000000000000000000000000000000000000000000000000000000000006020830152604082019050919050565b6000612fec60328361372f565b91507f536f6d657468696e672077656e742077726f6e672c20616d6f756e742072657060008301527f61696420697320756e65787065637465642e00000000000000000000000000006020830152604082019050919050565b600061305260148361372f565b91507f4661696c656420746f2073656e642045746865720000000000000000000000006000830152602082019050919050565b600061309260298361372f565b91507f4465706f73697420616d6f756e74206d7573742062652067726561746572207460008301527f68616e207a65726f2e00000000000000000000000000000000000000000000006020830152604082019050919050565b60006130f8602b8361372f565b91507f52657061796d656e7420616d6f756e74206d757374206265206772656174657260008301527f207468616e207a65726f2e0000000000000000000000000000000000000000006020830152604082019050919050565b600061315e60358361372f565b91507f416d6f756e742073656e7420646f6573206e6f7420657175616c206465636c6160008301527f7265642072657061796d656e7420616d6f756e742e00000000000000000000006020830152604082019050919050565b60006131c4600083613724565b9150600082019050919050565b60006131de60268361372f565b91507f4c6f616e20616d6f756e74206d7573742062652067726561746572207468616e60008301527f207a65726f2e00000000000000000000000000000000000000000000000000006020830152604082019050919050565b600061324460338361372f565b91507f416d6f756e742073656e7420646f6573206e6f7420657175616c206465636c6160008301527f726564206465706f73697420616d6f756e742e000000000000000000000000006020830152604082019050919050565b60006132aa60358361372f565b91507f536f6d657468696e672077656e742077726f6e672c20616d6f756e742064657060008301527f6f736974656420697320756e65787065637465642e00000000000000000000006020830152604082019050919050565b6000613310600f8361372f565b91507f4c6f616e206e6f7420666f756e642e00000000000000000000000000000000006000830152602082019050919050565b6080820160008201516133596000850182612e66565b50602082015161336c602085018261344f565b50604082015161337f6040850182612ee2565b506060820151613392606085018261344f565b50505050565b610120820160008201516133af600085018261345e565b5060208201516133c2602085018261345e565b5060408201516133d5604085018261344f565b5060608201516133e8606085018261344f565b5060808201516133fb608085018261344f565b5060a082015161340e60a085018261344f565b5060c082015161342160c0850182612e66565b5060e082015161343460e085018261344f565b50610100820151613449610100850182612ef1565b50505050565b613458816138c5565b82525050565b61346781613910565b82525050565b61347681613910565b82525050565b6000613487826131b7565b9150819050919050565b60006020820190506134a66000830184612e75565b92915050565b600060208201905081810360008301526134c68184612e84565b905092915050565b600060208201905081810360008301526134e88184612f00565b905092915050565b6000604082019050818103600083015261350a8185612f00565b9050613519602083018461346d565b9392505050565b6000602082019050818103600083015261353981612f39565b9050919050565b6000602082019050818103600083015261355981612f79565b9050919050565b6000602082019050818103600083015261357981612fdf565b9050919050565b6000602082019050818103600083015261359981613045565b9050919050565b600060208201905081810360008301526135b981613085565b9050919050565b600060208201905081810360008301526135d9816130eb565b9050919050565b600060208201905081810360008301526135f981613151565b9050919050565b60006020820190508181036000830152613619816131d1565b9050919050565b6000602082019050818103600083015261363981613237565b9050919050565b600060208201905081810360008301526136598161329d565b9050919050565b6000602082019050818103600083015261367981613303565b9050919050565b6000610120820190506136966000830184613398565b92915050565b60006020820190506136b1600083018461346d565b92915050565b60006040820190506136cc600083018561346d565b6136d96020830184612e75565b9392505050565b6000819050602082019050919050565b600081519050919050565b600081519050919050565b6000602082019050919050565b600082825260208201905092915050565b600081905092915050565b600082825260208201905092915050565b600061374b826138c5565b9150613756836138c5565b9250826fffffffffffffffffffffffffffffffff0382111561377b5761377a6139a8565b5b828201905092915050565b600061379182613910565b915061379c83613910565b9250827fffffffffffffffffffffffffffffffffffffffffffffffffffffffffffffffff038211156137d1576137d06139a8565b5b828201905092915050565b60006137e7826138c5565b91506137f2836138c5565b925082613802576138016139d7565b5b828204905092915050565b6000613818826138c5565b9150613823836138c5565b9250816fffffffffffffffffffffffffffffffff048311821515161561384c5761384b6139a8565b5b828202905092915050565b600061386282613901565b915061386d83613901565b92508162ffffff0483118215151615613889576138886139a8565b5b828202905092915050565b600061389f826138e1565b9050919050565b60008115159050919050565b60008190506138c082613a46565b919050565b60006fffffffffffffffffffffffffffffffff82169050919050565b600073ffffffffffffffffffffffffffffffffffffffff82169050919050565b600062ffffff82169050919050565b6000819050919050565b6000613925826138b2565b9050919050565b60005b8381101561394a57808201518184015260208101905061392f565b83811115613959576000848401525b50505050565b600061396a82613910565b91507fffffffffffffffffffffffffffffffffffffffffffffffffffffffffffffffff82141561399d5761399c6139a8565b5b600182019050919050565b7f4e487b7100000000000000000000000000000000000000000000000000000000600052601160045260246000fd5b7f4e487b7100000000000000000000000000000000000000000000000000000000600052601260045260246000fd5b7f4e487b7100000000000000000000000000000000000000000000000000000000600052602160045260246000fd5b6000601f19601f8301169050919050565b60058110613a5757613a56613a06565b5b50565b613a6381613894565b8114613a6e57600080fd5b50565b613a7a816138c5565b8114613a8557600080fd5b50565b613a9181613910565b8114613a9c57600080fd5b5056fea26469706673582212203de70188ea3c6c7cddc7315634ff5374039f57565e6909f98469c868f663472364736f6c63430008000033",
  "linkReferences": {},
  "deployedLinkReferences": {}
}