{
  "_format": "hh-sol-artifact-1",
  "contractName": "SocialLending",
  "sourceName": "contracts/SocialLending.sol",
  "abi": [
    {
      "inputs": [],
      "stateMutability": "nonpayable",
      "type": "constructor"
    },
    {
      "anonymous": false,
      "inputs": [
        {
          "indexed": false,
          "internalType": "uint256",
          "name": "loanID",
          "type": "uint256"
        },
        {
          "indexed": false,
          "internalType": "address",
          "name": "lenderAddress",
          "type": "address"
        }
      ],
      "name": "LenderDeposit",
      "type": "event"
    },
    {
      "anonymous": false,
      "inputs": [
        {
          "indexed": false,
          "internalType": "uint256",
          "name": "loanID",
          "type": "uint256"
        }
      ],
      "name": "LoanNeedsRepayment",
      "type": "event"
    },
    {
      "anonymous": false,
      "inputs": [
        {
          "indexed": false,
          "internalType": "uint256",
          "name": "loanID",
          "type": "uint256"
        }
      ],
      "name": "LoanRepaid",
      "type": "event"
    },
    {
      "anonymous": false,
      "inputs": [
        {
          "indexed": false,
          "internalType": "uint256",
          "name": "loanID",
          "type": "uint256"
        }
      ],
      "name": "LoanRequested",
      "type": "event"
    },
    {
      "inputs": [
        {
          "internalType": "uint128",
          "name": "_loanAmount",
          "type": "uint128"
        }
      ],
      "name": "createLoan",
      "outputs": [
        {
          "internalType": "uint256",
          "name": "loanID",
          "type": "uint256"
        }
      ],
      "stateMutability": "nonpayable",
      "type": "function"
    },
    {
      "inputs": [],
      "name": "createUniqueLoanLink",
      "outputs": [],
      "stateMutability": "nonpayable",
      "type": "function"
    },
    {
      "inputs": [
        {
          "internalType": "uint256",
          "name": "_loanID",
          "type": "uint256"
        },
        {
          "internalType": "uint128",
          "name": "_depositAmount",
          "type": "uint128"
        }
      ],
      "name": "depositToLoan",
      "outputs": [],
      "stateMutability": "payable",
      "type": "function"
    },
    {
      "inputs": [
        {
          "internalType": "address",
          "name": "_borrowerAddress",
          "type": "address"
        }
      ],
      "name": "getBorrowersLoanID",
      "outputs": [
        {
          "internalType": "uint256",
          "name": "",
          "type": "uint256"
        }
      ],
      "stateMutability": "view",
      "type": "function"
    },
    {
      "inputs": [
        {
          "internalType": "uint256",
          "name": "_loanID",
          "type": "uint256"
        }
      ],
      "name": "getLendersFromLoanID",
      "outputs": [
        {
          "components": [
            {
              "internalType": "address",
              "name": "lenderAddress",
              "type": "address"
            },
            {
              "internalType": "uint128",
              "name": "depositAmount",
              "type": "uint128"
            },
            {
              "internalType": "bool",
              "name": "isRepaid",
              "type": "bool"
            },
            {
              "internalType": "uint128",
              "name": "amountToRepay",
              "type": "uint128"
            }
          ],
          "internalType": "struct SocialLending.Lender[]",
          "name": "",
          "type": "tuple[]"
        }
      ],
      "stateMutability": "view",
      "type": "function"
    },
    {
      "inputs": [
        {
          "internalType": "uint256",
          "name": "_loanID",
          "type": "uint256"
        }
      ],
      "name": "getLoanDetailsFromLoanID",
      "outputs": [
        {
          "components": [
            {
              "internalType": "uint256",
              "name": "loanID",
              "type": "uint256"
            },
            {
              "internalType": "uint256",
              "name": "tenor",
              "type": "uint256"
            },
            {
              "internalType": "uint128",
              "name": "loanAmount",
              "type": "uint128"
            },
            {
              "internalType": "uint128",
              "name": "amountDeposited",
              "type": "uint128"
            },
            {
              "internalType": "uint128",
              "name": "amountRepaid",
              "type": "uint128"
            },
            {
              "internalType": "uint128",
              "name": "interestRate",
              "type": "uint128"
            },
            {
              "internalType": "address",
              "name": "borrowerAddress",
              "type": "address"
            },
            {
              "internalType": "uint128",
              "name": "loanAmountWithInterest",
              "type": "uint128"
            },
            {
              "internalType": "enum SocialLending.LoanStatus",
              "name": "loanStatus",
              "type": "uint8"
            }
          ],
          "internalType": "struct SocialLending.LoanDetail",
          "name": "",
          "type": "tuple"
        }
      ],
      "stateMutability": "view",
      "type": "function"
    },
    {
      "inputs": [
        {
          "internalType": "address",
          "name": "_borrowerAddress",
          "type": "address"
        }
      ],
      "name": "getPreviousLoanCount",
      "outputs": [
        {
          "internalType": "uint256",
          "name": "",
          "type": "uint256"
        }
      ],
      "stateMutability": "view",
      "type": "function"
    },
    {
      "inputs": [],
      "name": "loanIDCounter",
      "outputs": [
        {
          "internalType": "uint256",
          "name": "_value",
          "type": "uint256"
        }
      ],
      "stateMutability": "view",
      "type": "function"
    },
    {
      "inputs": [],
      "name": "owner",
      "outputs": [
        {
          "internalType": "address",
          "name": "",
          "type": "address"
        }
      ],
      "stateMutability": "view",
      "type": "function"
    },
    {
      "inputs": [
        {
          "internalType": "uint256",
          "name": "_loanID",
          "type": "uint256"
        }
      ],
      "name": "payoutDepositsWithInterest",
      "outputs": [],
      "stateMutability": "payable",
      "type": "function"
    },
    {
      "inputs": [
        {
          "internalType": "uint256",
          "name": "_loanID",
          "type": "uint256"
        },
        {
          "internalType": "uint128",
          "name": "_repaymentAmount",
          "type": "uint128"
        }
      ],
      "name": "repayLoan",
      "outputs": [],
      "stateMutability": "payable",
      "type": "function"
    },
    {
      "inputs": [],
      "name": "requestLoan",
      "outputs": [],
      "stateMutability": "nonpayable",
      "type": "function"
    }
  ],
  "bytecode": "0x60806040526102bc600160006101000a8154816fffffffffffffffffffffffffffffffff02191690836fffffffffffffffffffffffffffffffff160217905550605a600160106101000a81548160ff021916908360ff1602179055503480156200006857600080fd5b50620000b56040518060400160405280601981526020017f484820636f6e736f6c653a20434f4e5354525543544f523a200000000000000081525033620000fb60201b620026ab1760201c565b336000806101000a81548173ffffffffffffffffffffffffffffffffffffffff021916908373ffffffffffffffffffffffffffffffffffffffff160217905550620002e7565b6200019d8282604051602401620001149291906200021c565b6040516020818303038152906040527f319af333000000000000000000000000000000000000000000000000000000007bffffffffffffffffffffffffffffffffffffffffffffffffffffffff19166020820180517bffffffffffffffffffffffffffffffffffffffffffffffffffffffff8381831617835250505050620001a160201b60201c565b5050565b60008151905060006a636f6e736f6c652e6c6f679050602083016000808483855afa5050505050565b620001d5816200026c565b82525050565b6000620001e88262000250565b620001f481856200025b565b935062000206818560208601620002a0565b6200021181620002d6565b840191505092915050565b60006040820190508181036000830152620002388185620001db565b9050620002496020830184620001ca565b9392505050565b600081519050919050565b600082825260208201905092915050565b6000620002798262000280565b9050919050565b600073ffffffffffffffffffffffffffffffffffffffff82169050919050565b60005b83811015620002c0578082015181840152602081019050620002a3565b83811115620002d0576000848401525b50505050565b6000601f19601f8301169050919050565b613b3b80620002f76000396000f3fe6080604052600436106100a75760003560e01c80633d267e82116100645780633d267e82146101b257806351348454146101ef5780635edc33191461021a5780636fb4eb3d146102575780638da5cb5b1461026e578063ea1e55c814610299576100a7565b80630126fb10146100ac5780630254b24e146100c8578063106352a0146100e4578063257965f5146101215780632fa6c0f61461013857806339a6bffc14610175575b600080fd5b6100c660048036038101906100c19190612e6a565b6102b5565b005b6100e260048036038101906100dd9190612e6a565b610e24565b005b3480156100f057600080fd5b5061010b60048036038101906101069190612def565b6118a6565b6040516101189190613702565b60405180910390f35b34801561012d57600080fd5b506101366118ef565b005b34801561014457600080fd5b5061015f600480360381019061015a9190612e18565b6118f1565b60405161016c9190613702565b60405180910390f35b34801561018157600080fd5b5061019c60048036038101906101979190612def565b611e5f565b6040516101a99190613702565b60405180910390f35b3480156101be57600080fd5b506101d960048036038101906101d49190612e41565b611eab565b6040516101e691906136e6565b60405180910390f35b3480156101fb57600080fd5b5061020461213c565b6040516102119190613702565b60405180910390f35b34801561022657600080fd5b50610241600480360381019061023c9190612e41565b612148565b60405161024e9190613504565b60405180910390f35b34801561026357600080fd5b5061026c6122bf565b005b34801561027a57600080fd5b506102836122c1565b60405161029091906134e9565b60405180910390f35b6102b360048036038101906102ae9190612e41565b6122e5565b005b806fffffffffffffffffffffffffffffffff163414610309576040517f08c379a000000000000000000000000000000000000000000000000000000000815260040161030090613646565b60405180910390fd5b6000816fffffffffffffffffffffffffffffffff161161035e576040517f08c379a000000000000000000000000000000000000000000000000000000000815260040161035590613626565b60405180910390fd5b6000600360008481526020019081526020016000206040518061012001604052908160008201548152602001600182015481526020016002820160009054906101000a90046fffffffffffffffffffffffffffffffff166fffffffffffffffffffffffffffffffff166fffffffffffffffffffffffffffffffff1681526020016002820160109054906101000a90046fffffffffffffffffffffffffffffffff166fffffffffffffffffffffffffffffffff166fffffffffffffffffffffffffffffffff1681526020016003820160009054906101000a90046fffffffffffffffffffffffffffffffff166fffffffffffffffffffffffffffffffff166fffffffffffffffffffffffffffffffff1681526020016003820160109054906101000a90046fffffffffffffffffffffffffffffffff166fffffffffffffffffffffffffffffffff166fffffffffffffffffffffffffffffffff1681526020016004820160009054906101000a900473ffffffffffffffffffffffffffffffffffffffff1673ffffffffffffffffffffffffffffffffffffffff1673ffffffffffffffffffffffffffffffffffffffff1681526020016005820160009054906101000a90046fffffffffffffffffffffffffffffffff166fffffffffffffffffffffffffffffffff166fffffffffffffffffffffffffffffffff1681526020016005820160109054906101000a900460ff1660048111156105a6577f4e487b7100000000000000000000000000000000000000000000000000000000600052602160045260246000fd5b60048111156105de577f4e487b7100000000000000000000000000000000000000000000000000000000600052602160045260246000fd5b815250509050600081600001511161062b576040517f08c379a0000000000000000000000000000000000000000000000000000000008152600401610622906136c6565b60405180910390fd5b818160800181815161063d91906137a6565b9150906fffffffffffffffffffffffffffffffff1690816fffffffffffffffffffffffffffffffff168152505080608001516fffffffffffffffffffffffffffffffff168160e001516fffffffffffffffffffffffffffffffff1611156109af57604051806101200160405280826000015181526020018260200151815260200182604001516fffffffffffffffffffffffffffffffff16815260200182606001516fffffffffffffffffffffffffffffffff16815260200182608001516fffffffffffffffffffffffffffffffff1681526020018260a001516fffffffffffffffffffffffffffffffff1681526020018260c0015173ffffffffffffffffffffffffffffffffffffffff1681526020018260e001516fffffffffffffffffffffffffffffffff168152602001600260048111156107a4577f4e487b7100000000000000000000000000000000000000000000000000000000600052602160045260246000fd5b81525060036000858152602001908152602001600020600082015181600001556020820151816001015560408201518160020160006101000a8154816fffffffffffffffffffffffffffffffff02191690836fffffffffffffffffffffffffffffffff16021790555060608201518160020160106101000a8154816fffffffffffffffffffffffffffffffff02191690836fffffffffffffffffffffffffffffffff16021790555060808201518160030160006101000a8154816fffffffffffffffffffffffffffffffff02191690836fffffffffffffffffffffffffffffffff16021790555060a08201518160030160106101000a8154816fffffffffffffffffffffffffffffffff02191690836fffffffffffffffffffffffffffffffff16021790555060c08201518160040160006101000a81548173ffffffffffffffffffffffffffffffffffffffff021916908373ffffffffffffffffffffffffffffffffffffffff16021790555060e08201518160050160006101000a8154816fffffffffffffffffffffffffffffffff02191690836fffffffffffffffffffffffffffffffff1602179055506101008201518160050160106101000a81548160ff021916908360048111156109a2577f4e487b7100000000000000000000000000000000000000000000000000000000600052602160045260246000fd5b0217905550905050610e1f565b80608001516fffffffffffffffffffffffffffffffff168160e001516fffffffffffffffffffffffffffffffff1610610de357604051806101200160405280826000015181526020018260200151815260200182604001516fffffffffffffffffffffffffffffffff16815260200182606001516fffffffffffffffffffffffffffffffff16815260200182608001516fffffffffffffffffffffffffffffffff1681526020018260a001516fffffffffffffffffffffffffffffffff1681526020018260c0015173ffffffffffffffffffffffffffffffffffffffff1681526020018260e001516fffffffffffffffffffffffffffffffff16815260200160036004811115610ae8577f4e487b7100000000000000000000000000000000000000000000000000000000600052602160045260246000fd5b81525060036000858152602001908152602001600020600082015181600001556020820151816001015560408201518160020160006101000a8154816fffffffffffffffffffffffffffffffff02191690836fffffffffffffffffffffffffffffffff16021790555060608201518160020160106101000a8154816fffffffffffffffffffffffffffffffff02191690836fffffffffffffffffffffffffffffffff16021790555060808201518160030160006101000a8154816fffffffffffffffffffffffffffffffff02191690836fffffffffffffffffffffffffffffffff16021790555060a08201518160030160106101000a8154816fffffffffffffffffffffffffffffffff02191690836fffffffffffffffffffffffffffffffff16021790555060c08201518160040160006101000a81548173ffffffffffffffffffffffffffffffffffffffff021916908373ffffffffffffffffffffffffffffffffffffffff16021790555060e08201518160050160006101000a8154816fffffffffffffffffffffffffffffffff02191690836fffffffffffffffffffffffffffffffff1602179055506101008201518160050160106101000a81548160ff02191690836004811115610ce6577f4e487b7100000000000000000000000000000000000000000000000000000000600052602160045260246000fd5b0217905550905050600560008260c0015173ffffffffffffffffffffffffffffffffffffffff1673ffffffffffffffffffffffffffffffffffffffff16815260200190815260200160002081600001519080600181540180825580915050600190039060005260206000200160009091909190915055600260008260c0015173ffffffffffffffffffffffffffffffffffffffff1673ffffffffffffffffffffffffffffffffffffffff168152602001908152602001600020600090557f9a7851747cd7ffb3fe0a32caf3da48b31f27cebe131267051640f8b72fc471868160000151604051610dd69190613702565b60405180910390a1610e1e565b6040517f08c379a0000000000000000000000000000000000000000000000000000000008152600401610e15906135c6565b60405180910390fd5b5b505050565b806fffffffffffffffffffffffffffffffff163414610e78576040517f08c379a0000000000000000000000000000000000000000000000000000000008152600401610e6f90613686565b60405180910390fd5b6000816fffffffffffffffffffffffffffffffff1611610ecd576040517f08c379a0000000000000000000000000000000000000000000000000000000008152600401610ec490613606565b60405180910390fd5b6000600360008481526020019081526020016000206040518061012001604052908160008201548152602001600182015481526020016002820160009054906101000a90046fffffffffffffffffffffffffffffffff166fffffffffffffffffffffffffffffffff166fffffffffffffffffffffffffffffffff1681526020016002820160109054906101000a90046fffffffffffffffffffffffffffffffff166fffffffffffffffffffffffffffffffff166fffffffffffffffffffffffffffffffff1681526020016003820160009054906101000a90046fffffffffffffffffffffffffffffffff166fffffffffffffffffffffffffffffffff166fffffffffffffffffffffffffffffffff1681526020016003820160109054906101000a90046fffffffffffffffffffffffffffffffff166fffffffffffffffffffffffffffffffff166fffffffffffffffffffffffffffffffff1681526020016004820160009054906101000a900473ffffffffffffffffffffffffffffffffffffffff1673ffffffffffffffffffffffffffffffffffffffff1673ffffffffffffffffffffffffffffffffffffffff1681526020016005820160009054906101000a90046fffffffffffffffffffffffffffffffff166fffffffffffffffffffffffffffffffff166fffffffffffffffffffffffffffffffff1681526020016005820160109054906101000a900460ff166004811115611115577f4e487b7100000000000000000000000000000000000000000000000000000000600052602160045260246000fd5b600481111561114d577f4e487b7100000000000000000000000000000000000000000000000000000000600052602160045260246000fd5b815250509050600081600001511161119a576040517f08c379a0000000000000000000000000000000000000000000000000000000008152600401611191906136c6565b60405180910390fd5b600060048111156111d4577f4e487b7100000000000000000000000000000000000000000000000000000000600052602160045260246000fd5b8161010001516004811115611212577f4e487b7100000000000000000000000000000000000000000000000000000000600052602160045260246000fd5b1480611293575060016004811115611253577f4e487b7100000000000000000000000000000000000000000000000000000000600052602160045260246000fd5b8161010001516004811115611291577f4e487b7100000000000000000000000000000000000000000000000000000000600052602160045260246000fd5b145b6112d2576040517f08c379a00000000000000000000000000000000000000000000000000000000081526004016112c990613586565b60405180910390fd5b81816060018181516112e491906137a6565b9150906fffffffffffffffffffffffffffffffff1690816fffffffffffffffffffffffffffffffff1681525050600460008260000151815260200190815260200160002060405180608001604052803373ffffffffffffffffffffffffffffffffffffffff168152602001846fffffffffffffffffffffffffffffffff16815260200160001515815260200161137985612747565b6fffffffffffffffffffffffffffffffff16815250908060018154018082558091505060019003906000526020600020906003020160009091909190915060008201518160000160006101000a81548173ffffffffffffffffffffffffffffffffffffffff021916908373ffffffffffffffffffffffffffffffffffffffff16021790555060208201518160010160006101000a8154816fffffffffffffffffffffffffffffffff02191690836fffffffffffffffffffffffffffffffff16021790555060408201518160010160106101000a81548160ff02191690831515021790555060608201518160020160006101000a8154816fffffffffffffffffffffffffffffffff02191690836fffffffffffffffffffffffffffffffff160217905550505080606001516fffffffffffffffffffffffffffffffff1681604001516fffffffffffffffffffffffffffffffff1611156117e757604051806101200160405280826000015181526020018260200151815260200182604001516fffffffffffffffffffffffffffffffff16815260200182606001516fffffffffffffffffffffffffffffffff16815260200182608001516fffffffffffffffffffffffffffffffff1681526020018260a001516fffffffffffffffffffffffffffffffff1681526020018260c0015173ffffffffffffffffffffffffffffffffffffffff1681526020018260e001516fffffffffffffffffffffffffffffffff168152602001600160048111156115d8577f4e487b7100000000000000000000000000000000000000000000000000000000600052602160045260246000fd5b8152506003600083600001518152602001908152602001600020600082015181600001556020820151816001015560408201518160020160006101000a8154816fffffffffffffffffffffffffffffffff02191690836fffffffffffffffffffffffffffffffff16021790555060608201518160020160106101000a8154816fffffffffffffffffffffffffffffffff02191690836fffffffffffffffffffffffffffffffff16021790555060808201518160030160006101000a8154816fffffffffffffffffffffffffffffffff02191690836fffffffffffffffffffffffffffffffff16021790555060a08201518160030160106101000a8154816fffffffffffffffffffffffffffffffff02191690836fffffffffffffffffffffffffffffffff16021790555060c08201518160040160006101000a81548173ffffffffffffffffffffffffffffffffffffffff021916908373ffffffffffffffffffffffffffffffffffffffff16021790555060e08201518160050160006101000a8154816fffffffffffffffffffffffffffffffff02191690836fffffffffffffffffffffffffffffffff1602179055506101008201518160050160106101000a81548160ff021916908360048111156117da577f4e487b7100000000000000000000000000000000000000000000000000000000600052602160045260246000fd5b0217905550905050611864565b80604001516fffffffffffffffffffffffffffffffff1681606001516fffffffffffffffffffffffffffffffff16106118285761182381612792565b611863565b6040517f08c379a000000000000000000000000000000000000000000000000000000000815260040161185a906136a6565b60405180910390fd5b5b7f2b9861ebbeabab8ef193be0c040da5974e1f55400eec042a33563c742ef70ea081600001513360405161189992919061371d565b60405180910390a1505050565b6000600260008373ffffffffffffffffffffffffffffffffffffffff1673ffffffffffffffffffffffffffffffffffffffff168152602001908152602001600020549050919050565b565b60006119446040518060400160405280601981526020017f484820636f6e736f6c653a205f6c6f616e416d6f756e743a2000000000000000815250836fffffffffffffffffffffffffffffffff16612bd3565b6000826fffffffffffffffffffffffffffffffff1611611999576040517f08c379a000000000000000000000000000000000000000000000000000000000815260040161199090613666565b60405180910390fd5b6000600260003373ffffffffffffffffffffffffffffffffffffffff1673ffffffffffffffffffffffffffffffffffffffff16815260200190815260200160002054905060008114611a20576040517f08c379a0000000000000000000000000000000000000000000000000000000008152600401611a17906135a6565b60405180910390fd5b611a2a6006612c6f565b6000611a366006612c85565b9050600060405180610120016040528083815260200160008152602001866fffffffffffffffffffffffffffffffff16815260200160006fffffffffffffffffffffffffffffffff16815260200160006fffffffffffffffffffffffffffffffff168152602001600160009054906101000a90046fffffffffffffffffffffffffffffffff166fffffffffffffffffffffffffffffffff1681526020013373ffffffffffffffffffffffffffffffffffffffff168152602001611af887612747565b6fffffffffffffffffffffffffffffffff16815260200160006004811115611b49577f4e487b7100000000000000000000000000000000000000000000000000000000600052602160045260246000fd5b8152509050806003600083600001518152602001908152602001600020600082015181600001556020820151816001015560408201518160020160006101000a8154816fffffffffffffffffffffffffffffffff02191690836fffffffffffffffffffffffffffffffff16021790555060608201518160020160106101000a8154816fffffffffffffffffffffffffffffffff02191690836fffffffffffffffffffffffffffffffff16021790555060808201518160030160006101000a8154816fffffffffffffffffffffffffffffffff02191690836fffffffffffffffffffffffffffffffff16021790555060a08201518160030160106101000a8154816fffffffffffffffffffffffffffffffff02191690836fffffffffffffffffffffffffffffffff16021790555060c08201518160040160006101000a81548173ffffffffffffffffffffffffffffffffffffffff021916908373ffffffffffffffffffffffffffffffffffffffff16021790555060e08201518160050160006101000a8154816fffffffffffffffffffffffffffffffff02191690836fffffffffffffffffffffffffffffffff1602179055506101008201518160050160106101000a81548160ff02191690836004811115611d4e577f4e487b7100000000000000000000000000000000000000000000000000000000600052602160045260246000fd5b02179055509050508060000151600260003373ffffffffffffffffffffffffffffffffffffffff1673ffffffffffffffffffffffffffffffffffffffff16815260200190815260200160002081905550611ddd6040518060400160405280601281526020017f484820636f6e736f6c653a206c6f616e4944000000000000000000000000000081525085612bd3565b7f3aaf3cfb4a0b578d6f38e521e750d0d70b9da5f05aa80dc67d0f251c954725af8160000151604051611e109190613702565b60405180910390a1611e576040518060400160405280600981526020017f6c6f616e2069643a20000000000000000000000000000000000000000000000081525085612bd3565b505050919050565b6000600560008373ffffffffffffffffffffffffffffffffffffffff1673ffffffffffffffffffffffffffffffffffffffff168152602001908152602001600020805490509050919050565b611eb3612cbc565b600360008381526020019081526020016000206040518061012001604052908160008201548152602001600182015481526020016002820160009054906101000a90046fffffffffffffffffffffffffffffffff166fffffffffffffffffffffffffffffffff166fffffffffffffffffffffffffffffffff1681526020016002820160109054906101000a90046fffffffffffffffffffffffffffffffff166fffffffffffffffffffffffffffffffff166fffffffffffffffffffffffffffffffff1681526020016003820160009054906101000a90046fffffffffffffffffffffffffffffffff166fffffffffffffffffffffffffffffffff166fffffffffffffffffffffffffffffffff1681526020016003820160109054906101000a90046fffffffffffffffffffffffffffffffff166fffffffffffffffffffffffffffffffff166fffffffffffffffffffffffffffffffff1681526020016004820160009054906101000a900473ffffffffffffffffffffffffffffffffffffffff1673ffffffffffffffffffffffffffffffffffffffff1673ffffffffffffffffffffffffffffffffffffffff1681526020016005820160009054906101000a90046fffffffffffffffffffffffffffffffff166fffffffffffffffffffffffffffffffff166fffffffffffffffffffffffffffffffff1681526020016005820160109054906101000a900460ff1660048111156120f9577f4e487b7100000000000000000000000000000000000000000000000000000000600052602160045260246000fd5b6004811115612131577f4e487b7100000000000000000000000000000000000000000000000000000000600052602160045260246000fd5b815250509050919050565b60068060000154905081565b606060046000838152602001908152602001600020805480602002602001604051908101604052809291908181526020016000905b828210156122b457838290600052602060002090600302016040518060800160405290816000820160009054906101000a900473ffffffffffffffffffffffffffffffffffffffff1673ffffffffffffffffffffffffffffffffffffffff1673ffffffffffffffffffffffffffffffffffffffff1681526020016001820160009054906101000a90046fffffffffffffffffffffffffffffffff166fffffffffffffffffffffffffffffffff166fffffffffffffffffffffffffffffffff1681526020016001820160109054906101000a900460ff161515151581526020016002820160009054906101000a90046fffffffffffffffffffffffffffffffff166fffffffffffffffffffffffffffffffff166fffffffffffffffffffffffffffffffff16815250508152602001906001019061217d565b505050509050919050565b565b60008054906101000a900473ffffffffffffffffffffffffffffffffffffffff1681565b60005b60046000838152602001908152602001600020805490508110156126a7576000600460008481526020019081526020016000208281548110612353577f4e487b7100000000000000000000000000000000000000000000000000000000600052603260045260246000fd5b90600052602060002090600302016040518060800160405290816000820160009054906101000a900473ffffffffffffffffffffffffffffffffffffffff1673ffffffffffffffffffffffffffffffffffffffff1673ffffffffffffffffffffffffffffffffffffffff1681526020016001820160009054906101000a90046fffffffffffffffffffffffffffffffff166fffffffffffffffffffffffffffffffff166fffffffffffffffffffffffffffffffff1681526020016001820160109054906101000a900460ff161515151581526020016002820160009054906101000a90046fffffffffffffffffffffffffffffffff166fffffffffffffffffffffffffffffffff166fffffffffffffffffffffffffffffffff1681525050905080604001516126935760003373ffffffffffffffffffffffffffffffffffffffff1682606001516fffffffffffffffffffffffffffffffff166040516124b8906134d4565b60006040518083038185875af1925050503d80600081146124f5576040519150601f19603f3d011682016040523d82523d6000602084013e6124fa565b606091505b505090508061253e576040517f08c379a0000000000000000000000000000000000000000000000000000000008152600401612535906135e6565b60405180910390fd5b60018260400190151590811515815250508160046000868152602001908152602001600020848154811061259b577f4e487b7100000000000000000000000000000000000000000000000000000000600052603260045260246000fd5b906000526020600020906003020160008201518160000160006101000a81548173ffffffffffffffffffffffffffffffffffffffff021916908373ffffffffffffffffffffffffffffffffffffffff16021790555060208201518160010160006101000a8154816fffffffffffffffffffffffffffffffff02191690836fffffffffffffffffffffffffffffffff16021790555060408201518160010160106101000a81548160ff02191690831515021790555060608201518160020160006101000a8154816fffffffffffffffffffffffffffffffff02191690836fffffffffffffffffffffffffffffffff160217905550905050505b50808061269f906139c5565b9150506122e8565b5050565b61274382826040516024016126c1929190613526565b6040516020818303038152906040527f319af333000000000000000000000000000000000000000000000000000000007bffffffffffffffffffffffffffffffffffffffffffffffffffffffff19166020820180517bffffffffffffffffffffffffffffffffffffffffffffffffffffffff8381831617835250505050612c93565b5050565b600081612710600160009054906101000a90046fffffffffffffffffffffffffffffffff16846127779190613873565b6127819190613842565b61278b91906137a6565b9050919050565b60008160c0015173ffffffffffffffffffffffffffffffffffffffff1682604001516fffffffffffffffffffffffffffffffff166040516127d2906134d4565b60006040518083038185875af1925050503d806000811461280f576040519150601f19603f3d011682016040523d82523d6000602084013e612814565b606091505b5050905080612858576040517f08c379a000000000000000000000000000000000000000000000000000000000815260040161284f906135e6565b60405180910390fd5b6040518061012001604052808360000151815260200162015180600160109054906101000a900460ff1660ff1661288f91906138bd565b62ffffff164261289f91906137ec565b815260200183604001516fffffffffffffffffffffffffffffffff16815260200183606001516fffffffffffffffffffffffffffffffff16815260200183608001516fffffffffffffffffffffffffffffffff1681526020018360a001516fffffffffffffffffffffffffffffffff1681526020018360c0015173ffffffffffffffffffffffffffffffffffffffff1681526020018360e001516fffffffffffffffffffffffffffffffff1681526020016002600481111561298a577f4e487b7100000000000000000000000000000000000000000000000000000000600052602160045260246000fd5b8152506003600084600001518152602001908152602001600020600082015181600001556020820151816001015560408201518160020160006101000a8154816fffffffffffffffffffffffffffffffff02191690836fffffffffffffffffffffffffffffffff16021790555060608201518160020160106101000a8154816fffffffffffffffffffffffffffffffff02191690836fffffffffffffffffffffffffffffffff16021790555060808201518160030160006101000a8154816fffffffffffffffffffffffffffffffff02191690836fffffffffffffffffffffffffffffffff16021790555060a08201518160030160106101000a8154816fffffffffffffffffffffffffffffffff02191690836fffffffffffffffffffffffffffffffff16021790555060c08201518160040160006101000a81548173ffffffffffffffffffffffffffffffffffffffff021916908373ffffffffffffffffffffffffffffffffffffffff16021790555060e08201518160050160006101000a8154816fffffffffffffffffffffffffffffffff02191690836fffffffffffffffffffffffffffffffff1602179055506101008201518160050160106101000a81548160ff02191690836004811115612b8c577f4e487b7100000000000000000000000000000000000000000000000000000000600052602160045260246000fd5b02179055509050507f69fc7e7edd4865b1a05c051b8bf5b0d588983f0969141c15a5dcea05d5324b1b8260000151604051612bc79190613702565b60405180910390a15050565b612c6b8282604051602401612be9929190613556565b6040516020818303038152906040527f9710a9d0000000000000000000000000000000000000000000000000000000007bffffffffffffffffffffffffffffffffffffffffffffffffffffffff19166020820180517bffffffffffffffffffffffffffffffffffffffffffffffffffffffff8381831617835250505050612c93565b5050565b6001816000016000828254019250508190555050565b600081600001549050919050565b60008151905060006a636f6e736f6c652e6c6f679050602083016000808483855afa5050505050565b604051806101200160405280600081526020016000815260200160006fffffffffffffffffffffffffffffffff16815260200160006fffffffffffffffffffffffffffffffff16815260200160006fffffffffffffffffffffffffffffffff16815260200160006fffffffffffffffffffffffffffffffff168152602001600073ffffffffffffffffffffffffffffffffffffffff16815260200160006fffffffffffffffffffffffffffffffff16815260200160006004811115612daa577f4e487b7100000000000000000000000000000000000000000000000000000000600052602160045260246000fd5b81525090565b600081359050612dbf81613ac0565b92915050565b600081359050612dd481613ad7565b92915050565b600081359050612de981613aee565b92915050565b600060208284031215612e0157600080fd5b6000612e0f84828501612db0565b91505092915050565b600060208284031215612e2a57600080fd5b6000612e3884828501612dc5565b91505092915050565b600060208284031215612e5357600080fd5b6000612e6184828501612dda565b91505092915050565b60008060408385031215612e7d57600080fd5b6000612e8b85828601612dda565b9250506020612e9c85828601612dc5565b9150509250929050565b6000612eb2838361339b565b60808301905092915050565b612ec7816138fa565b82525050565b612ed6816138fa565b82525050565b6000612ee782613756565b612ef18185613779565b9350612efc83613746565b8060005b83811015612f2d578151612f148882612ea6565b9750612f1f8361376c565b925050600181019050612f00565b5085935050505092915050565b612f438161390c565b82525050565b612f5281613980565b82525050565b6000612f6382613761565b612f6d8185613795565b9350612f7d818560208601613992565b612f8681613a9b565b840191505092915050565b6000612f9e601d83613795565b91507f4c6f616e2068617320616c7265616479206265656e2066756e6465642e0000006000830152602082019050919050565b6000612fde602183613795565b91507f4c6f616e20616c72656164792065786973747320666f7220626f72726f77657260008301527f2e000000000000000000000000000000000000000000000000000000000000006020830152604082019050919050565b6000613044603283613795565b91507f536f6d657468696e672077656e742077726f6e672c20616d6f756e742072657060008301527f61696420697320756e65787065637465642e00000000000000000000000000006020830152604082019050919050565b60006130aa601483613795565b91507f4661696c656420746f2073656e642045746865720000000000000000000000006000830152602082019050919050565b60006130ea602983613795565b91507f4465706f73697420616d6f756e74206d7573742062652067726561746572207460008301527f68616e207a65726f2e00000000000000000000000000000000000000000000006020830152604082019050919050565b6000613150602b83613795565b91507f52657061796d656e7420616d6f756e74206d757374206265206772656174657260008301527f207468616e207a65726f2e0000000000000000000000000000000000000000006020830152604082019050919050565b60006131b6603583613795565b91507f416d6f756e742073656e7420646f6573206e6f7420657175616c206465636c6160008301527f7265642072657061796d656e7420616d6f756e742e00000000000000000000006020830152604082019050919050565b600061321c60008361378a565b9150600082019050919050565b6000613236602683613795565b91507f4c6f616e20616d6f756e74206d7573742062652067726561746572207468616e60008301527f207a65726f2e00000000000000000000000000000000000000000000000000006020830152604082019050919050565b600061329c603383613795565b91507f416d6f756e742073656e7420646f6573206e6f7420657175616c206465636c6160008301527f726564206465706f73697420616d6f756e742e000000000000000000000000006020830152604082019050919050565b6000613302603583613795565b91507f536f6d657468696e672077656e742077726f6e672c20616d6f756e742064657060008301527f6f736974656420697320756e65787065637465642e00000000000000000000006020830152604082019050919050565b6000613368600f83613795565b91507f4c6f616e206e6f7420666f756e642e00000000000000000000000000000000006000830152602082019050919050565b6080820160008201516133b16000850182612ebe565b5060208201516133c460208501826134a7565b5060408201516133d76040850182612f3a565b5060608201516133ea60608501826134a7565b50505050565b6101208201600082015161340760008501826134b6565b50602082015161341a60208501826134b6565b50604082015161342d60408501826134a7565b50606082015161344060608501826134a7565b50608082015161345360808501826134a7565b5060a082015161346660a08501826134a7565b5060c082015161347960c0850182612ebe565b5060e082015161348c60e08501826134a7565b506101008201516134a1610100850182612f49565b50505050565b6134b08161392b565b82525050565b6134bf81613976565b82525050565b6134ce81613976565b82525050565b60006134df8261320f565b9150819050919050565b60006020820190506134fe6000830184612ecd565b92915050565b6000602082019050818103600083015261351e8184612edc565b905092915050565b600060408201905081810360008301526135408185612f58565b905061354f6020830184612ecd565b9392505050565b600060408201905081810360008301526135708185612f58565b905061357f60208301846134c5565b9392505050565b6000602082019050818103600083015261359f81612f91565b9050919050565b600060208201905081810360008301526135bf81612fd1565b9050919050565b600060208201905081810360008301526135df81613037565b9050919050565b600060208201905081810360008301526135ff8161309d565b9050919050565b6000602082019050818103600083015261361f816130dd565b9050919050565b6000602082019050818103600083015261363f81613143565b9050919050565b6000602082019050818103600083015261365f816131a9565b9050919050565b6000602082019050818103600083015261367f81613229565b9050919050565b6000602082019050818103600083015261369f8161328f565b9050919050565b600060208201905081810360008301526136bf816132f5565b9050919050565b600060208201905081810360008301526136df8161335b565b9050919050565b6000610120820190506136fc60008301846133f0565b92915050565b600060208201905061371760008301846134c5565b92915050565b600060408201905061373260008301856134c5565b61373f6020830184612ecd565b9392505050565b6000819050602082019050919050565b600081519050919050565b600081519050919050565b6000602082019050919050565b600082825260208201905092915050565b600081905092915050565b600082825260208201905092915050565b60006137b18261392b565b91506137bc8361392b565b9250826fffffffffffffffffffffffffffffffff038211156137e1576137e0613a0e565b5b828201905092915050565b60006137f782613976565b915061380283613976565b9250827fffffffffffffffffffffffffffffffffffffffffffffffffffffffffffffffff0382111561383757613836613a0e565b5b828201905092915050565b600061384d8261392b565b91506138588361392b565b92508261386857613867613a3d565b5b828204905092915050565b600061387e8261392b565b91506138898361392b565b9250816fffffffffffffffffffffffffffffffff04831182151516156138b2576138b1613a0e565b5b828202905092915050565b60006138c882613967565b91506138d383613967565b92508162ffffff04831182151516156138ef576138ee613a0e565b5b828202905092915050565b600061390582613947565b9050919050565b60008115159050919050565b600081905061392682613aac565b919050565b60006fffffffffffffffffffffffffffffffff82169050919050565b600073ffffffffffffffffffffffffffffffffffffffff82169050919050565b600062ffffff82169050919050565b6000819050919050565b600061398b82613918565b9050919050565b60005b838110156139b0578082015181840152602081019050613995565b838111156139bf576000848401525b50505050565b60006139d082613976565b91507fffffffffffffffffffffffffffffffffffffffffffffffffffffffffffffffff821415613a0357613a02613a0e565b5b600182019050919050565b7f4e487b7100000000000000000000000000000000000000000000000000000000600052601160045260246000fd5b7f4e487b7100000000000000000000000000000000000000000000000000000000600052601260045260246000fd5b7f4e487b7100000000000000000000000000000000000000000000000000000000600052602160045260246000fd5b6000601f19601f8301169050919050565b60058110613abd57613abc613a6c565b5b50565b613ac9816138fa565b8114613ad457600080fd5b50565b613ae08161392b565b8114613aeb57600080fd5b50565b613af781613976565b8114613b0257600080fd5b5056fea26469706673582212204aa4c1ebe8cada8ce95d2e516db876e151b967dc932602f96b6a14e2e8825b0f64736f6c63430008000033",
  "linkReferences": {},
  "deployedLinkReferences": {}
}