{
  "_format": "hh-sol-artifact-1",
  "contractName": "SocialLending",
  "sourceName": "contracts/SocialLending.sol",
  "abi": [
    {
      "inputs": [],
      "stateMutability": "nonpayable",
      "type": "constructor"
    },
    {
      "anonymous": false,
      "inputs": [
        {
          "indexed": false,
          "internalType": "uint256",
          "name": "loanID",
          "type": "uint256"
        },
        {
          "indexed": false,
          "internalType": "address",
          "name": "lenderAddress",
          "type": "address"
        }
      ],
      "name": "LenderDeposit",
      "type": "event"
    },
    {
      "anonymous": false,
      "inputs": [
        {
          "indexed": false,
          "internalType": "uint256",
          "name": "loanID",
          "type": "uint256"
        },
        {
          "indexed": false,
          "internalType": "uint256",
          "name": "tenor",
          "type": "uint256"
        },
        {
          "indexed": false,
          "internalType": "uint128",
          "name": "loanAmount",
          "type": "uint128"
        },
        {
          "indexed": false,
          "internalType": "uint128",
          "name": "amountDeposited",
          "type": "uint128"
        },
        {
          "indexed": false,
          "internalType": "uint128",
          "name": "amountRepaid",
          "type": "uint128"
        },
        {
          "indexed": false,
          "internalType": "uint128",
          "name": "interestRate",
          "type": "uint128"
        },
        {
          "indexed": false,
          "internalType": "address",
          "name": "borrowerAddress",
          "type": "address"
        },
        {
          "indexed": false,
          "internalType": "uint128",
          "name": "loanAmountWithInterest",
          "type": "uint128"
        },
        {
          "indexed": false,
          "internalType": "enum SocialLending.LoanStatus",
          "name": "loanStatus",
          "type": "uint8"
        }
      ],
      "name": "LoanDetails",
      "type": "event"
    },
    {
      "anonymous": false,
      "inputs": [
        {
          "indexed": false,
          "internalType": "uint256",
          "name": "loanID",
          "type": "uint256"
        }
      ],
      "name": "LoanNeedsRepayment",
      "type": "event"
    },
    {
      "anonymous": false,
      "inputs": [
        {
          "indexed": false,
          "internalType": "uint256",
          "name": "loanID",
          "type": "uint256"
        }
      ],
      "name": "LoanRepaid",
      "type": "event"
    },
    {
      "anonymous": false,
      "inputs": [
        {
          "indexed": false,
          "internalType": "uint256",
          "name": "loanID",
          "type": "uint256"
        }
      ],
      "name": "LoanRequested",
      "type": "event"
    },
    {
      "inputs": [
        {
          "internalType": "uint128",
          "name": "_loanAmount",
          "type": "uint128"
        }
      ],
      "name": "createLoan",
      "outputs": [
        {
          "internalType": "uint256",
          "name": "loanID",
          "type": "uint256"
        }
      ],
      "stateMutability": "nonpayable",
      "type": "function"
    },
    {
      "inputs": [
        {
          "internalType": "uint256",
          "name": "_loanID",
          "type": "uint256"
        },
        {
          "internalType": "uint128",
          "name": "_depositAmount",
          "type": "uint128"
        }
      ],
      "name": "depositToLoan",
      "outputs": [],
      "stateMutability": "payable",
      "type": "function"
    },
    {
      "inputs": [
        {
          "internalType": "address",
          "name": "_borrowerAddress",
          "type": "address"
        }
      ],
      "name": "getBorrowersLoanID",
      "outputs": [
        {
          "internalType": "uint256",
          "name": "",
          "type": "uint256"
        }
      ],
      "stateMutability": "view",
      "type": "function"
    },
    {
      "inputs": [
        {
          "internalType": "uint256",
          "name": "_loanID",
          "type": "uint256"
        }
      ],
      "name": "getLendersFromLoanID",
      "outputs": [
        {
          "components": [
            {
              "internalType": "address",
              "name": "lenderAddress",
              "type": "address"
            },
            {
              "internalType": "uint128",
              "name": "depositAmount",
              "type": "uint128"
            },
            {
              "internalType": "bool",
              "name": "isRepaid",
              "type": "bool"
            },
            {
              "internalType": "uint128",
              "name": "amountToRepay",
              "type": "uint128"
            }
          ],
          "internalType": "struct SocialLending.Lender[]",
          "name": "",
          "type": "tuple[]"
        }
      ],
      "stateMutability": "view",
      "type": "function"
    },
    {
      "inputs": [
        {
          "internalType": "uint256",
          "name": "_loanID",
          "type": "uint256"
        }
      ],
      "name": "getLoanDetailsFromLoanID",
      "outputs": [],
      "stateMutability": "nonpayable",
      "type": "function"
    },
    {
      "inputs": [
        {
          "internalType": "address",
          "name": "_borrowerAddress",
          "type": "address"
        }
      ],
      "name": "getPreviousLoanCount",
      "outputs": [
        {
          "internalType": "uint256",
          "name": "",
          "type": "uint256"
        }
      ],
      "stateMutability": "view",
      "type": "function"
    },
    {
      "inputs": [],
      "name": "loanIDCounter",
      "outputs": [
        {
          "internalType": "uint256",
          "name": "_value",
          "type": "uint256"
        }
      ],
      "stateMutability": "view",
      "type": "function"
    },
    {
      "inputs": [],
      "name": "owner",
      "outputs": [
        {
          "internalType": "address",
          "name": "",
          "type": "address"
        }
      ],
      "stateMutability": "view",
      "type": "function"
    },
    {
      "inputs": [
        {
          "internalType": "uint256",
          "name": "_loanID",
          "type": "uint256"
        }
      ],
      "name": "payoutDepositsWithInterest",
      "outputs": [],
      "stateMutability": "payable",
      "type": "function"
    },
    {
      "inputs": [
        {
          "internalType": "uint256",
          "name": "_loanID",
          "type": "uint256"
        },
        {
          "internalType": "uint128",
          "name": "_repaymentAmount",
          "type": "uint128"
        }
      ],
      "name": "repayLoan",
      "outputs": [],
      "stateMutability": "payable",
      "type": "function"
    }
  ],
  "bytecode": "0x60806040526102bc600160006101000a8154816fffffffffffffffffffffffffffffffff02191690836fffffffffffffffffffffffffffffffff160217905550605a600160106101000a81548160ff021916908360ff16021790555034801561006757600080fd5b50336000806101000a81548173ffffffffffffffffffffffffffffffffffffffff021916908373ffffffffffffffffffffffffffffffffffffffff1602179055506135cb806100b76000396000f3fe6080604052600436106100915760003560e01c80633d267e82116100595780633d267e821461018557806351348454146101ae5780635edc3319146101d95780638da5cb5b14610216578063ea1e55c81461024157610091565b80630126fb10146100965780630254b24e146100b2578063106352a0146100ce5780632fa6c0f61461010b57806339a6bffc14610148575b600080fd5b6100b060048036038101906100ab9190612a28565b61025d565b005b6100cc60048036038101906100c79190612a28565b610dcc565b005b3480156100da57600080fd5b506100f560048036038101906100f091906129ad565b61184e565b6040516101029190613154565b60405180910390f35b34801561011757600080fd5b50610132600480360381019061012d91906129d6565b611897565b60405161013f9190613154565b60405180910390f35b34801561015457600080fd5b5061016f600480360381019061016a91906129ad565b611d3c565b60405161017c9190613154565b60405180910390f35b34801561019157600080fd5b506101ac60048036038101906101a791906129ff565b611d88565b005b3480156101ba57600080fd5b506101c3611f51565b6040516101d09190613154565b60405180910390f35b3480156101e557600080fd5b5061020060048036038101906101fb91906129ff565b611f5d565b60405161020d9190612fd2565b60405180910390f35b34801561022257600080fd5b5061022b6120d4565b6040516102389190612fb7565b60405180910390f35b61025b600480360381019061025691906129ff565b6120f8565b005b806fffffffffffffffffffffffffffffffff1634146102b1576040517f08c379a00000000000000000000000000000000000000000000000000000000081526004016102a8906130b4565b60405180910390fd5b6000816fffffffffffffffffffffffffffffffff1611610306576040517f08c379a00000000000000000000000000000000000000000000000000000000081526004016102fd90613094565b60405180910390fd5b6000600360008481526020019081526020016000206040518061012001604052908160008201548152602001600182015481526020016002820160009054906101000a90046fffffffffffffffffffffffffffffffff166fffffffffffffffffffffffffffffffff166fffffffffffffffffffffffffffffffff1681526020016002820160109054906101000a90046fffffffffffffffffffffffffffffffff166fffffffffffffffffffffffffffffffff166fffffffffffffffffffffffffffffffff1681526020016003820160009054906101000a90046fffffffffffffffffffffffffffffffff166fffffffffffffffffffffffffffffffff166fffffffffffffffffffffffffffffffff1681526020016003820160109054906101000a90046fffffffffffffffffffffffffffffffff166fffffffffffffffffffffffffffffffff166fffffffffffffffffffffffffffffffff1681526020016004820160009054906101000a900473ffffffffffffffffffffffffffffffffffffffff1673ffffffffffffffffffffffffffffffffffffffff1673ffffffffffffffffffffffffffffffffffffffff1681526020016005820160009054906101000a90046fffffffffffffffffffffffffffffffff166fffffffffffffffffffffffffffffffff166fffffffffffffffffffffffffffffffff1681526020016005820160109054906101000a900460ff16600481111561054e577f4e487b7100000000000000000000000000000000000000000000000000000000600052602160045260246000fd5b6004811115610586577f4e487b7100000000000000000000000000000000000000000000000000000000600052602160045260246000fd5b81525050905060008160000151116105d3576040517f08c379a00000000000000000000000000000000000000000000000000000000081526004016105ca90613134565b60405180910390fd5b81816080018181516105e5919061327a565b9150906fffffffffffffffffffffffffffffffff1690816fffffffffffffffffffffffffffffffff168152505080608001516fffffffffffffffffffffffffffffffff168160e001516fffffffffffffffffffffffffffffffff16111561095757604051806101200160405280826000015181526020018260200151815260200182604001516fffffffffffffffffffffffffffffffff16815260200182606001516fffffffffffffffffffffffffffffffff16815260200182608001516fffffffffffffffffffffffffffffffff1681526020018260a001516fffffffffffffffffffffffffffffffff1681526020018260c0015173ffffffffffffffffffffffffffffffffffffffff1681526020018260e001516fffffffffffffffffffffffffffffffff1681526020016002600481111561074c577f4e487b7100000000000000000000000000000000000000000000000000000000600052602160045260246000fd5b81525060036000858152602001908152602001600020600082015181600001556020820151816001015560408201518160020160006101000a8154816fffffffffffffffffffffffffffffffff02191690836fffffffffffffffffffffffffffffffff16021790555060608201518160020160106101000a8154816fffffffffffffffffffffffffffffffff02191690836fffffffffffffffffffffffffffffffff16021790555060808201518160030160006101000a8154816fffffffffffffffffffffffffffffffff02191690836fffffffffffffffffffffffffffffffff16021790555060a08201518160030160106101000a8154816fffffffffffffffffffffffffffffffff02191690836fffffffffffffffffffffffffffffffff16021790555060c08201518160040160006101000a81548173ffffffffffffffffffffffffffffffffffffffff021916908373ffffffffffffffffffffffffffffffffffffffff16021790555060e08201518160050160006101000a8154816fffffffffffffffffffffffffffffffff02191690836fffffffffffffffffffffffffffffffff1602179055506101008201518160050160106101000a81548160ff0219169083600481111561094a577f4e487b7100000000000000000000000000000000000000000000000000000000600052602160045260246000fd5b0217905550905050610dc7565b80608001516fffffffffffffffffffffffffffffffff168160e001516fffffffffffffffffffffffffffffffff1610610d8b57604051806101200160405280826000015181526020018260200151815260200182604001516fffffffffffffffffffffffffffffffff16815260200182606001516fffffffffffffffffffffffffffffffff16815260200182608001516fffffffffffffffffffffffffffffffff1681526020018260a001516fffffffffffffffffffffffffffffffff1681526020018260c0015173ffffffffffffffffffffffffffffffffffffffff1681526020018260e001516fffffffffffffffffffffffffffffffff16815260200160036004811115610a90577f4e487b7100000000000000000000000000000000000000000000000000000000600052602160045260246000fd5b81525060036000858152602001908152602001600020600082015181600001556020820151816001015560408201518160020160006101000a8154816fffffffffffffffffffffffffffffffff02191690836fffffffffffffffffffffffffffffffff16021790555060608201518160020160106101000a8154816fffffffffffffffffffffffffffffffff02191690836fffffffffffffffffffffffffffffffff16021790555060808201518160030160006101000a8154816fffffffffffffffffffffffffffffffff02191690836fffffffffffffffffffffffffffffffff16021790555060a08201518160030160106101000a8154816fffffffffffffffffffffffffffffffff02191690836fffffffffffffffffffffffffffffffff16021790555060c08201518160040160006101000a81548173ffffffffffffffffffffffffffffffffffffffff021916908373ffffffffffffffffffffffffffffffffffffffff16021790555060e08201518160050160006101000a8154816fffffffffffffffffffffffffffffffff02191690836fffffffffffffffffffffffffffffffff1602179055506101008201518160050160106101000a81548160ff02191690836004811115610c8e577f4e487b7100000000000000000000000000000000000000000000000000000000600052602160045260246000fd5b0217905550905050600560008260c0015173ffffffffffffffffffffffffffffffffffffffff1673ffffffffffffffffffffffffffffffffffffffff16815260200190815260200160002081600001519080600181540180825580915050600190039060005260206000200160009091909190915055600260008260c0015173ffffffffffffffffffffffffffffffffffffffff1673ffffffffffffffffffffffffffffffffffffffff168152602001908152602001600020600090557f9a7851747cd7ffb3fe0a32caf3da48b31f27cebe131267051640f8b72fc471868160000151604051610d7e9190613154565b60405180910390a1610dc6565b6040517f08c379a0000000000000000000000000000000000000000000000000000000008152600401610dbd90613034565b60405180910390fd5b5b505050565b806fffffffffffffffffffffffffffffffff163414610e20576040517f08c379a0000000000000000000000000000000000000000000000000000000008152600401610e17906130f4565b60405180910390fd5b6000816fffffffffffffffffffffffffffffffff1611610e75576040517f08c379a0000000000000000000000000000000000000000000000000000000008152600401610e6c90613074565b60405180910390fd5b6000600360008481526020019081526020016000206040518061012001604052908160008201548152602001600182015481526020016002820160009054906101000a90046fffffffffffffffffffffffffffffffff166fffffffffffffffffffffffffffffffff166fffffffffffffffffffffffffffffffff1681526020016002820160109054906101000a90046fffffffffffffffffffffffffffffffff166fffffffffffffffffffffffffffffffff166fffffffffffffffffffffffffffffffff1681526020016003820160009054906101000a90046fffffffffffffffffffffffffffffffff166fffffffffffffffffffffffffffffffff166fffffffffffffffffffffffffffffffff1681526020016003820160109054906101000a90046fffffffffffffffffffffffffffffffff166fffffffffffffffffffffffffffffffff166fffffffffffffffffffffffffffffffff1681526020016004820160009054906101000a900473ffffffffffffffffffffffffffffffffffffffff1673ffffffffffffffffffffffffffffffffffffffff1673ffffffffffffffffffffffffffffffffffffffff1681526020016005820160009054906101000a90046fffffffffffffffffffffffffffffffff166fffffffffffffffffffffffffffffffff166fffffffffffffffffffffffffffffffff1681526020016005820160109054906101000a900460ff1660048111156110bd577f4e487b7100000000000000000000000000000000000000000000000000000000600052602160045260246000fd5b60048111156110f5577f4e487b7100000000000000000000000000000000000000000000000000000000600052602160045260246000fd5b8152505090506000816000015111611142576040517f08c379a000000000000000000000000000000000000000000000000000000000815260040161113990613134565b60405180910390fd5b6000600481111561117c577f4e487b7100000000000000000000000000000000000000000000000000000000600052602160045260246000fd5b81610100015160048111156111ba577f4e487b7100000000000000000000000000000000000000000000000000000000600052602160045260246000fd5b148061123b5750600160048111156111fb577f4e487b7100000000000000000000000000000000000000000000000000000000600052602160045260246000fd5b8161010001516004811115611239577f4e487b7100000000000000000000000000000000000000000000000000000000600052602160045260246000fd5b145b61127a576040517f08c379a000000000000000000000000000000000000000000000000000000000815260040161127190612ff4565b60405180910390fd5b818160600181815161128c919061327a565b9150906fffffffffffffffffffffffffffffffff1690816fffffffffffffffffffffffffffffffff1681525050600460008260000151815260200190815260200160002060405180608001604052803373ffffffffffffffffffffffffffffffffffffffff168152602001846fffffffffffffffffffffffffffffffff168152602001600015158152602001611321856124be565b6fffffffffffffffffffffffffffffffff16815250908060018154018082558091505060019003906000526020600020906003020160009091909190915060008201518160000160006101000a81548173ffffffffffffffffffffffffffffffffffffffff021916908373ffffffffffffffffffffffffffffffffffffffff16021790555060208201518160010160006101000a8154816fffffffffffffffffffffffffffffffff02191690836fffffffffffffffffffffffffffffffff16021790555060408201518160010160106101000a81548160ff02191690831515021790555060608201518160020160006101000a8154816fffffffffffffffffffffffffffffffff02191690836fffffffffffffffffffffffffffffffff160217905550505080606001516fffffffffffffffffffffffffffffffff1681604001516fffffffffffffffffffffffffffffffff16111561178f57604051806101200160405280826000015181526020018260200151815260200182604001516fffffffffffffffffffffffffffffffff16815260200182606001516fffffffffffffffffffffffffffffffff16815260200182608001516fffffffffffffffffffffffffffffffff1681526020018260a001516fffffffffffffffffffffffffffffffff1681526020018260c0015173ffffffffffffffffffffffffffffffffffffffff1681526020018260e001516fffffffffffffffffffffffffffffffff16815260200160016004811115611580577f4e487b7100000000000000000000000000000000000000000000000000000000600052602160045260246000fd5b8152506003600083600001518152602001908152602001600020600082015181600001556020820151816001015560408201518160020160006101000a8154816fffffffffffffffffffffffffffffffff02191690836fffffffffffffffffffffffffffffffff16021790555060608201518160020160106101000a8154816fffffffffffffffffffffffffffffffff02191690836fffffffffffffffffffffffffffffffff16021790555060808201518160030160006101000a8154816fffffffffffffffffffffffffffffffff02191690836fffffffffffffffffffffffffffffffff16021790555060a08201518160030160106101000a8154816fffffffffffffffffffffffffffffffff02191690836fffffffffffffffffffffffffffffffff16021790555060c08201518160040160006101000a81548173ffffffffffffffffffffffffffffffffffffffff021916908373ffffffffffffffffffffffffffffffffffffffff16021790555060e08201518160050160006101000a8154816fffffffffffffffffffffffffffffffff02191690836fffffffffffffffffffffffffffffffff1602179055506101008201518160050160106101000a81548160ff02191690836004811115611782577f4e487b7100000000000000000000000000000000000000000000000000000000600052602160045260246000fd5b021790555090505061180c565b80604001516fffffffffffffffffffffffffffffffff1681606001516fffffffffffffffffffffffffffffffff16106117d0576117cb81612509565b61180b565b6040517f08c379a000000000000000000000000000000000000000000000000000000000815260040161180290613114565b60405180910390fd5b5b7f2b9861ebbeabab8ef193be0c040da5974e1f55400eec042a33563c742ef70ea081600001513360405161184192919061316f565b60405180910390a1505050565b6000600260008373ffffffffffffffffffffffffffffffffffffffff1673ffffffffffffffffffffffffffffffffffffffff168152602001908152602001600020549050919050565b600080826fffffffffffffffffffffffffffffffff16116118ed576040517f08c379a00000000000000000000000000000000000000000000000000000000081526004016118e4906130d4565b60405180910390fd5b6000600260003373ffffffffffffffffffffffffffffffffffffffff1673ffffffffffffffffffffffffffffffffffffffff16815260200190815260200160002054905060008114611974576040517f08c379a000000000000000000000000000000000000000000000000000000000815260040161196b90613014565b60405180910390fd5b61197e600661294a565b600061198a6006612960565b9050600060405180610120016040528083815260200160008152602001866fffffffffffffffffffffffffffffffff16815260200160006fffffffffffffffffffffffffffffffff16815260200160006fffffffffffffffffffffffffffffffff168152602001600160009054906101000a90046fffffffffffffffffffffffffffffffff166fffffffffffffffffffffffffffffffff1681526020013373ffffffffffffffffffffffffffffffffffffffff168152602001611a4c876124be565b6fffffffffffffffffffffffffffffffff16815260200160006004811115611a9d577f4e487b7100000000000000000000000000000000000000000000000000000000600052602160045260246000fd5b8152509050806003600083600001518152602001908152602001600020600082015181600001556020820151816001015560408201518160020160006101000a8154816fffffffffffffffffffffffffffffffff02191690836fffffffffffffffffffffffffffffffff16021790555060608201518160020160106101000a8154816fffffffffffffffffffffffffffffffff02191690836fffffffffffffffffffffffffffffffff16021790555060808201518160030160006101000a8154816fffffffffffffffffffffffffffffffff02191690836fffffffffffffffffffffffffffffffff16021790555060a08201518160030160106101000a8154816fffffffffffffffffffffffffffffffff02191690836fffffffffffffffffffffffffffffffff16021790555060c08201518160040160006101000a81548173ffffffffffffffffffffffffffffffffffffffff021916908373ffffffffffffffffffffffffffffffffffffffff16021790555060e08201518160050160006101000a8154816fffffffffffffffffffffffffffffffff02191690836fffffffffffffffffffffffffffffffff1602179055506101008201518160050160106101000a81548160ff02191690836004811115611ca2577f4e487b7100000000000000000000000000000000000000000000000000000000600052602160045260246000fd5b02179055509050508060000151600260003373ffffffffffffffffffffffffffffffffffffffff1673ffffffffffffffffffffffffffffffffffffffff168152602001908152602001600020819055507f3aaf3cfb4a0b578d6f38e521e750d0d70b9da5f05aa80dc67d0f251c954725af8160000151604051611d259190613154565b60405180910390a180600001519350505050919050565b6000600560008373ffffffffffffffffffffffffffffffffffffffff1673ffffffffffffffffffffffffffffffffffffffff168152602001908152602001600020805490509050919050565b7ff01d371537a29441ca88925bc2ebc55be08cd21e1501372f19b7f7e83ac68e6e600360008381526020019081526020016000206000015460036000848152602001908152602001600020600101546003600085815260200190815260200160002060020160009054906101000a90046fffffffffffffffffffffffffffffffff166003600086815260200190815260200160002060020160109054906101000a90046fffffffffffffffffffffffffffffffff166003600087815260200190815260200160002060030160009054906101000a90046fffffffffffffffffffffffffffffffff166003600088815260200190815260200160002060030160109054906101000a90046fffffffffffffffffffffffffffffffff166003600089815260200190815260200160002060040160009054906101000a900473ffffffffffffffffffffffffffffffffffffffff16600360008a815260200190815260200160002060050160009054906101000a90046fffffffffffffffffffffffffffffffff16600360008b815260200190815260200160002060050160109054906101000a900460ff16604051611f4699989796959493929190613198565b60405180910390a150565b60068060000154905081565b606060046000838152602001908152602001600020805480602002602001604051908101604052809291908181526020016000905b828210156120c957838290600052602060002090600302016040518060800160405290816000820160009054906101000a900473ffffffffffffffffffffffffffffffffffffffff1673ffffffffffffffffffffffffffffffffffffffff1673ffffffffffffffffffffffffffffffffffffffff1681526020016001820160009054906101000a90046fffffffffffffffffffffffffffffffff166fffffffffffffffffffffffffffffffff166fffffffffffffffffffffffffffffffff1681526020016001820160109054906101000a900460ff161515151581526020016002820160009054906101000a90046fffffffffffffffffffffffffffffffff166fffffffffffffffffffffffffffffffff166fffffffffffffffffffffffffffffffff168152505081526020019060010190611f92565b505050509050919050565b60008054906101000a900473ffffffffffffffffffffffffffffffffffffffff1681565b60005b60046000838152602001908152602001600020805490508110156124ba576000600460008481526020019081526020016000208281548110612166577f4e487b7100000000000000000000000000000000000000000000000000000000600052603260045260246000fd5b90600052602060002090600302016040518060800160405290816000820160009054906101000a900473ffffffffffffffffffffffffffffffffffffffff1673ffffffffffffffffffffffffffffffffffffffff1673ffffffffffffffffffffffffffffffffffffffff1681526020016001820160009054906101000a90046fffffffffffffffffffffffffffffffff166fffffffffffffffffffffffffffffffff166fffffffffffffffffffffffffffffffff1681526020016001820160109054906101000a900460ff161515151581526020016002820160009054906101000a90046fffffffffffffffffffffffffffffffff166fffffffffffffffffffffffffffffffff166fffffffffffffffffffffffffffffffff1681525050905080604001516124a65760003373ffffffffffffffffffffffffffffffffffffffff1682606001516fffffffffffffffffffffffffffffffff166040516122cb90612fa2565b60006040518083038185875af1925050503d8060008114612308576040519150601f19603f3d011682016040523d82523d6000602084013e61230d565b606091505b5050905080612351576040517f08c379a000000000000000000000000000000000000000000000000000000000815260040161234890613054565b60405180910390fd5b6001826040019015159081151581525050816004600086815260200190815260200160002084815481106123ae577f4e487b7100000000000000000000000000000000000000000000000000000000600052603260045260246000fd5b906000526020600020906003020160008201518160000160006101000a81548173ffffffffffffffffffffffffffffffffffffffff021916908373ffffffffffffffffffffffffffffffffffffffff16021790555060208201518160010160006101000a8154816fffffffffffffffffffffffffffffffff02191690836fffffffffffffffffffffffffffffffff16021790555060408201518160010160106101000a81548160ff02191690831515021790555060608201518160020160006101000a8154816fffffffffffffffffffffffffffffffff02191690836fffffffffffffffffffffffffffffffff160217905550905050505b5080806124b290613466565b9150506120fb565b5050565b600081612710600160009054906101000a90046fffffffffffffffffffffffffffffffff16846124ee9190613347565b6124f89190613316565b612502919061327a565b9050919050565b60008160c0015173ffffffffffffffffffffffffffffffffffffffff1682604001516fffffffffffffffffffffffffffffffff1660405161254990612fa2565b60006040518083038185875af1925050503d8060008114612586576040519150601f19603f3d011682016040523d82523d6000602084013e61258b565b606091505b50509050806125cf576040517f08c379a00000000000000000000000000000000000000000000000000000000081526004016125c690613054565b60405180910390fd5b6040518061012001604052808360000151815260200162015180600160109054906101000a900460ff1660ff166126069190613391565b62ffffff164261261691906132c0565b815260200183604001516fffffffffffffffffffffffffffffffff16815260200183606001516fffffffffffffffffffffffffffffffff16815260200183608001516fffffffffffffffffffffffffffffffff1681526020018360a001516fffffffffffffffffffffffffffffffff1681526020018360c0015173ffffffffffffffffffffffffffffffffffffffff1681526020018360e001516fffffffffffffffffffffffffffffffff16815260200160026004811115612701577f4e487b7100000000000000000000000000000000000000000000000000000000600052602160045260246000fd5b8152506003600084600001518152602001908152602001600020600082015181600001556020820151816001015560408201518160020160006101000a8154816fffffffffffffffffffffffffffffffff02191690836fffffffffffffffffffffffffffffffff16021790555060608201518160020160106101000a8154816fffffffffffffffffffffffffffffffff02191690836fffffffffffffffffffffffffffffffff16021790555060808201518160030160006101000a8154816fffffffffffffffffffffffffffffffff02191690836fffffffffffffffffffffffffffffffff16021790555060a08201518160030160106101000a8154816fffffffffffffffffffffffffffffffff02191690836fffffffffffffffffffffffffffffffff16021790555060c08201518160040160006101000a81548173ffffffffffffffffffffffffffffffffffffffff021916908373ffffffffffffffffffffffffffffffffffffffff16021790555060e08201518160050160006101000a8154816fffffffffffffffffffffffffffffffff02191690836fffffffffffffffffffffffffffffffff1602179055506101008201518160050160106101000a81548160ff02191690836004811115612903577f4e487b7100000000000000000000000000000000000000000000000000000000600052602160045260246000fd5b02179055509050507f69fc7e7edd4865b1a05c051b8bf5b0d588983f0969141c15a5dcea05d5324b1b826000015160405161293e9190613154565b60405180910390a15050565b6001816000016000828254019250508190555050565b600081600001549050919050565b60008135905061297d81613550565b92915050565b60008135905061299281613567565b92915050565b6000813590506129a78161357e565b92915050565b6000602082840312156129bf57600080fd5b60006129cd8482850161296e565b91505092915050565b6000602082840312156129e857600080fd5b60006129f684828501612983565b91505092915050565b600060208284031215612a1157600080fd5b6000612a1f84828501612998565b91505092915050565b60008060408385031215612a3b57600080fd5b6000612a4985828601612998565b9250506020612a5a85828601612983565b9150509250929050565b6000612a708383612f20565b60808301905092915050565b612a85816133ce565b82525050565b612a94816133ce565b82525050565b6000612aa582613235565b612aaf818561324d565b9350612aba83613225565b8060005b83811015612aeb578151612ad28882612a64565b9750612add83613240565b925050600181019050612abe565b5085935050505092915050565b612b01816133e0565b82525050565b612b1081613454565b82525050565b6000612b23601d83613269565b91507f4c6f616e2068617320616c7265616479206265656e2066756e6465642e0000006000830152602082019050919050565b6000612b63602183613269565b91507f4c6f616e20616c72656164792065786973747320666f7220626f72726f77657260008301527f2e000000000000000000000000000000000000000000000000000000000000006020830152604082019050919050565b6000612bc9603283613269565b91507f536f6d657468696e672077656e742077726f6e672c20616d6f756e742072657060008301527f61696420697320756e65787065637465642e00000000000000000000000000006020830152604082019050919050565b6000612c2f601483613269565b91507f4661696c656420746f2073656e642045746865720000000000000000000000006000830152602082019050919050565b6000612c6f602983613269565b91507f4465706f73697420616d6f756e74206d7573742062652067726561746572207460008301527f68616e207a65726f2e00000000000000000000000000000000000000000000006020830152604082019050919050565b6000612cd5602b83613269565b91507f52657061796d656e7420616d6f756e74206d757374206265206772656174657260008301527f207468616e207a65726f2e0000000000000000000000000000000000000000006020830152604082019050919050565b6000612d3b603583613269565b91507f416d6f756e742073656e7420646f6573206e6f7420657175616c206465636c6160008301527f7265642072657061796d656e7420616d6f756e742e00000000000000000000006020830152604082019050919050565b6000612da160008361325e565b9150600082019050919050565b6000612dbb602683613269565b91507f4c6f616e20616d6f756e74206d7573742062652067726561746572207468616e60008301527f207a65726f2e00000000000000000000000000000000000000000000000000006020830152604082019050919050565b6000612e21603383613269565b91507f416d6f756e742073656e7420646f6573206e6f7420657175616c206465636c6160008301527f726564206465706f73697420616d6f756e742e000000000000000000000000006020830152604082019050919050565b6000612e87603583613269565b91507f536f6d657468696e672077656e742077726f6e672c20616d6f756e742064657060008301527f6f736974656420697320756e65787065637465642e00000000000000000000006020830152604082019050919050565b6000612eed600f83613269565b91507f4c6f616e206e6f7420666f756e642e00000000000000000000000000000000006000830152602082019050919050565b608082016000820151612f366000850182612a7c565b506020820151612f496020850182612f75565b506040820151612f5c6040850182612af8565b506060820151612f6f6060850182612f75565b50505050565b612f7e816133ff565b82525050565b612f8d816133ff565b82525050565b612f9c8161344a565b82525050565b6000612fad82612d94565b9150819050919050565b6000602082019050612fcc6000830184612a8b565b92915050565b60006020820190508181036000830152612fec8184612a9a565b905092915050565b6000602082019050818103600083015261300d81612b16565b9050919050565b6000602082019050818103600083015261302d81612b56565b9050919050565b6000602082019050818103600083015261304d81612bbc565b9050919050565b6000602082019050818103600083015261306d81612c22565b9050919050565b6000602082019050818103600083015261308d81612c62565b9050919050565b600060208201905081810360008301526130ad81612cc8565b9050919050565b600060208201905081810360008301526130cd81612d2e565b9050919050565b600060208201905081810360008301526130ed81612dae565b9050919050565b6000602082019050818103600083015261310d81612e14565b9050919050565b6000602082019050818103600083015261312d81612e7a565b9050919050565b6000602082019050818103600083015261314d81612ee0565b9050919050565b60006020820190506131696000830184612f93565b92915050565b60006040820190506131846000830185612f93565b6131916020830184612a8b565b9392505050565b6000610120820190506131ae600083018c612f93565b6131bb602083018b612f93565b6131c8604083018a612f84565b6131d56060830189612f84565b6131e26080830188612f84565b6131ef60a0830187612f84565b6131fc60c0830186612a8b565b61320960e0830185612f84565b613217610100830184612b07565b9a9950505050505050505050565b6000819050602082019050919050565b600081519050919050565b6000602082019050919050565b600082825260208201905092915050565b600081905092915050565b600082825260208201905092915050565b6000613285826133ff565b9150613290836133ff565b9250826fffffffffffffffffffffffffffffffff038211156132b5576132b46134af565b5b828201905092915050565b60006132cb8261344a565b91506132d68361344a565b9250827fffffffffffffffffffffffffffffffffffffffffffffffffffffffffffffffff0382111561330b5761330a6134af565b5b828201905092915050565b6000613321826133ff565b915061332c836133ff565b92508261333c5761333b6134de565b5b828204905092915050565b6000613352826133ff565b915061335d836133ff565b9250816fffffffffffffffffffffffffffffffff0483118215151615613386576133856134af565b5b828202905092915050565b600061339c8261343b565b91506133a78361343b565b92508162ffffff04831182151516156133c3576133c26134af565b5b828202905092915050565b60006133d98261341b565b9050919050565b60008115159050919050565b60008190506133fa8261353c565b919050565b60006fffffffffffffffffffffffffffffffff82169050919050565b600073ffffffffffffffffffffffffffffffffffffffff82169050919050565b600062ffffff82169050919050565b6000819050919050565b600061345f826133ec565b9050919050565b60006134718261344a565b91507fffffffffffffffffffffffffffffffffffffffffffffffffffffffffffffffff8214156134a4576134a36134af565b5b600182019050919050565b7f4e487b7100000000000000000000000000000000000000000000000000000000600052601160045260246000fd5b7f4e487b7100000000000000000000000000000000000000000000000000000000600052601260045260246000fd5b7f4e487b7100000000000000000000000000000000000000000000000000000000600052602160045260246000fd5b6005811061354d5761354c61350d565b5b50565b613559816133ce565b811461356457600080fd5b50565b613570816133ff565b811461357b57600080fd5b50565b6135878161344a565b811461359257600080fd5b5056fea2646970667358221220c7e6e17cc1199ab1194951741082fd4cdc97529ac5e9006a031a539f0aa125ff64736f6c63430008000033",
  "linkReferences": {},
  "deployedLinkReferences": {}
}